{"abi":[{"type":"constructor","inputs":[],"stateMutability":"nonpayable"},{"type":"function","name":"acceptOwnership","inputs":[],"outputs":[],"stateMutability":"nonpayable"},{"type":"function","name":"cancelRequest","inputs":[{"name":"_requestId","type":"bytes32","internalType":"bytes32"},{"name":"_payment","type":"uint256","internalType":"uint256"},{"name":"_callbackFunctionId","type":"bytes4","internalType":"bytes4"},{"name":"_expiration","type":"uint256","internalType":"uint256"}],"outputs":[],"stateMutability":"nonpayable"},{"type":"function","name":"fulfillConfirmData","inputs":[{"name":"_requestId","type":"bytes32","internalType":"bytes32"},{"name":"_isConfirmed","type":"bool","internalType":"bool"}],"outputs":[],"stateMutability":"nonpayable"},{"type":"function","name":"fulfillDisperseData","inputs":[{"name":"_requestId","type":"bytes32","internalType":"bytes32"},{"name":"_dispersalID","type":"string","internalType":"string"},{"name":"_lastUpdatedHeadCID","type":"string","internalType":"string"}],"outputs":[],"stateMutability":"nonpayable"},{"type":"function","name":"getChainlinkToken","inputs":[],"outputs":[{"name":"","type":"address","internalType":"address"}],"stateMutability":"view"},{"type":"function","name":"getUserDetail","inputs":[{"name":"_user","type":"address","internalType":"address"}],"outputs":[{"name":"","type":"tuple","internalType":"struct ICarbonMonitoringVerifier.UserDetail","components":[{"name":"whitelisted","type":"bool","internalType":"bool"},{"name":"userProjects","type":"tuple[]","internalType":"struct ICarbonMonitoringVerifier.UserProject[]","components":[{"name":"isSubscribed","type":"bool","internalType":"bool"},{"name":"projectState","type":"uint8","internalType":"uint8"},{"name":"start","type":"uint256","internalType":"uint256"},{"name":"end","type":"uint256","internalType":"uint256"},{"name":"expectedTimeofDispersal","type":"uint256","internalType":"uint256"},{"name":"expectedTimeofExpiry","type":"uint256","internalType":"uint256"},{"name":"projectName","type":"string","internalType":"string"},{"name":"cid","type":"string","internalType":"string"},{"name":"dispersalRequestID","type":"string","internalType":"string"},{"name":"lastUpdatedHeadCID","type":"string","internalType":"string"}]}]}],"stateMutability":"view"},{"type":"function","name":"owner","inputs":[],"outputs":[{"name":"","type":"address","internalType":"address"}],"stateMutability":"view"},{"type":"function","name":"projectIndex","inputs":[{"name":"","type":"string","internalType":"string"}],"outputs":[{"name":"","type":"uint256","internalType":"uint256"}],"stateMutability":"view"},{"type":"function","name":"projectVerifier","inputs":[],"outputs":[{"name":"","type":"address","internalType":"address"}],"stateMutability":"view"},{"type":"function","name":"requestConfirmData","inputs":[{"name":"_user","type":"address","internalType":"address"},{"name":"_projectName","type":"string","internalType":"string"}],"outputs":[],"stateMutability":"nonpayable"},{"type":"function","name":"requestInitialDispersal","inputs":[{"name":"_isSubscription","type":"bool","internalType":"bool"},{"name":"_start","type":"uint256","internalType":"uint256"},{"name":"_end","type":"uint256","internalType":"uint256"},{"name":"_projectName","type":"string","internalType":"string"},{"name":"_cid","type":"string","internalType":"string"}],"outputs":[],"stateMutability":"nonpayable"},{"type":"function","name":"requestRedispersal","inputs":[{"name":"_user","type":"address","internalType":"address"},{"name":"_projectName","type":"string","internalType":"string"}],"outputs":[],"stateMutability":"nonpayable"},{"type":"function","name":"setProjectVerifier","inputs":[{"name":"_projectVerifier","type":"address","internalType":"address"}],"outputs":[],"stateMutability":"nonpayable"},{"type":"function","name":"transferOwnership","inputs":[{"name":"to","type":"address","internalType":"address"}],"outputs":[],"stateMutability":"nonpayable"},{"type":"function","name":"updateProjectState","inputs":[{"name":"_user","type":"address","internalType":"address"},{"name":"_projectName","type":"string","internalType":"string"}],"outputs":[],"stateMutability":"nonpayable"},{"type":"function","name":"userDetails","inputs":[{"name":"","type":"address","internalType":"address"}],"outputs":[{"name":"whitelisted","type":"bool","internalType":"bool"}],"stateMutability":"view"},{"type":"function","name":"whitelistUser","inputs":[{"name":"_user","type":"address","internalType":"address"}],"outputs":[],"stateMutability":"nonpayable"},{"type":"function","name":"withdrawLink","inputs":[],"outputs":[],"stateMutability":"nonpayable"},{"type":"event","name":"ChainlinkCancelled","inputs":[{"name":"id","type":"bytes32","indexed":true,"internalType":"bytes32"}],"anonymous":false},{"type":"event","name":"ChainlinkFulfilled","inputs":[{"name":"id","type":"bytes32","indexed":true,"internalType":"bytes32"}],"anonymous":false},{"type":"event","name":"ChainlinkRequested","inputs":[{"name":"id","type":"bytes32","indexed":true,"internalType":"bytes32"}],"anonymous":false},{"type":"event","name":"OwnershipTransferRequested","inputs":[{"name":"from","type":"address","indexed":true,"internalType":"address"},{"name":"to","type":"address","indexed":true,"internalType":"address"}],"anonymous":false},{"type":"event","name":"OwnershipTransferred","inputs":[{"name":"from","type":"address","indexed":true,"internalType":"address"},{"name":"to","type":"address","indexed":true,"internalType":"address"}],"anonymous":false},{"type":"event","name":"RequestConfirmDataFulfilled","inputs":[{"name":"requestId","type":"bytes32","indexed":false,"internalType":"bytes32"},{"name":"confirmed","type":"bool","indexed":true,"internalType":"bool"},{"name":"projectID","type":"string","indexed":true,"internalType":"string"},{"name":"projectVerifier","type":"address","indexed":true,"internalType":"address"}],"anonymous":false},{"type":"event","name":"RequestDisperseDataFulfilled","inputs":[{"name":"requestId","type":"bytes32","indexed":false,"internalType":"bytes32"},{"name":"dispersalRequestID","type":"string","indexed":true,"internalType":"string"},{"name":"lastUpdatedHeadCID","type":"string","indexed":true,"internalType":"string"}],"anonymous":false},{"type":"error","name":"StringsInsufficientHexLength","inputs":[{"name":"value","type":"uint256","internalType":"uint256"},{"name":"length","type":"uint256","internalType":"uint256"}]}],"bytecode":{"object":"0x60806040526001600455600880546001600160a01b031916738032b4dba3779b6836b4c69203bb1d3b4f92908b17905534801561003b57600080fd5b5033806000816100925760405162461bcd60e51b815260206004820152601860248201527f43616e6e6f7420736574206f776e657220746f207a65726f000000000000000060448201526064015b60405180910390fd5b600680546001600160a01b0319166001600160a01b03848116919091179091558116156100c2576100c2816100ed565b5050506100e873d27376e609bf32b506535efe2bf1303a74eb546761019760201b60201c565b6101b9565b336001600160a01b038216036101455760405162461bcd60e51b815260206004820152601760248201527f43616e6e6f74207472616e7366657220746f2073656c660000000000000000006044820152606401610089565b600780546001600160a01b0319166001600160a01b03838116918217909255600654604051919216907fed8889f560326eb138920d842192f0eb3dd22b4f139c87a2c57538e05bae127890600090a350565b600280546001600160a01b0319166001600160a01b0392909216919091179055565b613250806101c86000396000f3fe608060405234801561001057600080fd5b50600436106101165760003560e01c80635c734115116100a25780638da5cb5b116100715780638da5cb5b1461026e5780638dc654a21461027f578063aa4f0fc314610287578063ec65d0f81461029a578063f2fde38b146102ad57600080fd5b80635c7341151461022d578063626e5f941461024057806374bae7d91461025357806379ba50971461026657600080fd5b806348dec2a7116100e957806348dec2a7146101a15780634a48c84b146101d45780634a4c560d146101f457806350c9230d146102075780635adf47181461021a57600080fd5b8063114bd73b1461011b578063165d35e1146101305780633178c8141461015557806334f108581461018e575b600080fd5b61012e61012936600461295b565b6102c0565b005b6101386102ea565b6040516001600160a01b0390911681526020015b60405180910390f35b610180610163366004612a18565b8051602081830181018051600a8252928201919093012091525481565b60405190815260200161014c565b61012e61019c366004612a4c565b610303565b6101c46101af36600461295b565b60096020526000908152604090205460ff1681565b604051901515815260200161014c565b6101e76101e236600461295b565b6106fb565b60405161014c9190612ae9565b61012e61020236600461295b565b610a32565b61012e610215366004612c14565b610ac7565b61012e610228366004612c44565b610d74565b61012e61023b366004612a4c565b61100a565b600854610138906001600160a01b031681565b61012e610261366004612cb0565b6113b8565b61012e6114a0565b6006546001600160a01b0316610138565b61012e61154e565b61012e610295366004612a4c565b611692565b61012e6102a8366004612d39565b611a66565b61012e6102bb36600461295b565b611a80565b6102c8611a91565b600880546001600160a01b0319166001600160a01b0392909216919091179055565b60006102fe6002546001600160a01b031690565b905090565b600061030f8383611ae6565b90506000600a826040516103239190612d85565b90815260200160405180910390205490506000811161035d5760405162461bcd60e51b815260040161035490612da1565b60405180910390fd5b6001600160a01b03841660009081526009602052604081206001908101906103859084612de2565b8154811061039557610395612df5565b600091825260209182902060408051610140810182526009909302909101805460ff8082161515855261010090910416938301939093526001830154908201526002820154606082015260038201546080820152600482015460a082015260058201805491929160c08401919061040b90612e0b565b80601f016020809104026020016040519081016040528092919081815260200182805461043790612e0b565b80156104845780601f1061045957610100808354040283529160200191610484565b820191906000526020600020905b81548152906001019060200180831161046757829003601f168201915b5050505050815260200160068201805461049d90612e0b565b80601f01602080910402602001604051908101604052809291908181526020018280546104c990612e0b565b80156105165780601f106104eb57610100808354040283529160200191610516565b820191906000526020600020905b8154815290600101906020018083116104f957829003601f168201915b5050505050815260200160078201805461052f90612e0b565b80601f016020809104026020016040519081016040528092919081815260200182805461055b90612e0b565b80156105a85780601f1061057d576101008083540402835291602001916105a8565b820191906000526020600020905b81548152906001019060200180831161058b57829003601f168201915b505050505081526020016008820180546105c190612e0b565b80601f01602080910402602001604051908101604052809291908181526020018280546105ed90612e0b565b801561063a5780601f1061060f5761010080835404028352916020019161063a565b820191906000526020600020905b81548152906001019060200180831161061d57829003601f168201915b5050505050815250509050428160a0015110156106cb576001600160a01b038516600090815260096020526040902060039060019081019061067c9085612de2565b8154811061068c5761068c612df5565b60009182526020909120600990910201805460ff929092166101000261ff00199092169190911790558051156106c6576106c68585611692565b6106f4565b4281608001511080156106e55750806020015160ff166001145b156106f4576106f4858561100a565b5050505050565b6040805180820190915260008152606060208201526001600160a01b038216600090815260096020908152604080832081518083018352815460ff16151581526001820180548451818702810187019095528085529195929486810194939192919084015b82821015610a24576000848152602090819020604080516101408101825260098602909201805460ff8082161515855261010090910416938301939093526001830154908201526002820154606082015260038201546080820152600482015460a082015260058201805491929160c0840191906107dd90612e0b565b80601f016020809104026020016040519081016040528092919081815260200182805461080990612e0b565b80156108565780601f1061082b57610100808354040283529160200191610856565b820191906000526020600020905b81548152906001019060200180831161083957829003601f168201915b5050505050815260200160068201805461086f90612e0b565b80601f016020809104026020016040519081016040528092919081815260200182805461089b90612e0b565b80156108e85780601f106108bd576101008083540402835291602001916108e8565b820191906000526020600020905b8154815290600101906020018083116108cb57829003601f168201915b5050505050815260200160078201805461090190612e0b565b80601f016020809104026020016040519081016040528092919081815260200182805461092d90612e0b565b801561097a5780601f1061094f5761010080835404028352916020019161097a565b820191906000526020600020905b81548152906001019060200180831161095d57829003601f168201915b5050505050815260200160088201805461099390612e0b565b80601f01602080910402602001604051908101604052809291908181526020018280546109bf90612e0b565b8015610a0c5780601f106109e157610100808354040283529160200191610a0c565b820191906000526020600020905b8154815290600101906020018083116109ef57829003601f168201915b50505050508152505081526020019060010190610760565b505050915250909392505050565b610a3a611a91565b6001600160a01b03811660009081526009602052604090205460ff1615610aa35760405162461bcd60e51b815260206004820152601860248201527f7573657220616c72656164792077686974656c697374656400000000000000006044820152606401610354565b6001600160a01b03166000908152600960205260409020805460ff19166001179055565b60008281526005602052604090205482906001600160a01b03163314610aff5760405162461bcd60e51b815260040161035490612e3f565b60008181526005602052604080822080546001600160a01b03191690555182917f7cc135e0cebb02c3480ae5d74d377283180a2601f8f644edf7987b009316c63a91a26000838152600b602052604081208054600190910180546001600160a01b039092169291610b6f90612e0b565b80601f0160208091040260200160405190810160405280929190818152602001828054610b9b90612e0b565b8015610be85780601f10610bbd57610100808354040283529160200191610be8565b820191906000526020600020905b815481529060010190602001808311610bcb57829003601f168201915b505050505090506000600a82604051610c019190612d85565b90815260200160405180910390205490508415610cdf57600854604051633623e2a960e11b81526001600160a01b0390911690636c47c55290610c48908590600401612e87565b600060405180830381600087803b158015610c6257600080fd5b505af1158015610c76573d6000803e3d6000fd5b5050506001600160a01b038416600090815260096020526040902060029150600190810190610ca59084612de2565b81548110610cb557610cb5612df5565b906000526020600020906009020160000160016101000a81548160ff021916908360ff1602179055505b6008546040516001600160a01b0390911690610cfc908490612d85565b60405180910390208615157f27ba9a475b834dc3333cbf286869a81c8c50c858296e64a37de4a83c26ff3adc89604051610d3891815260200190565b60405180910390a46000868152600b6020526040812080546001600160a01b031916815590610d6a60018301826128b1565b5050505050505050565b60008381526005602052604090205483906001600160a01b03163314610dac5760405162461bcd60e51b815260040161035490612e3f565b60008181526005602052604080822080546001600160a01b03191690555182917f7cc135e0cebb02c3480ae5d74d377283180a2601f8f644edf7987b009316c63a91a281604051610dfd9190612d85565b604051809103902083604051610e139190612d85565b604051908190038120868252907f8b52207fce6980cb21677901b8ecbc6b81748f347a9e3171cf167b7b4ed2f9a09060200160405180910390a36000848152600b602052604081208054600190910180546001600160a01b039092169291610e7a90612e0b565b80601f0160208091040260200160405190810160405280929190818152602001828054610ea690612e0b565b8015610ef35780601f10610ec857610100808354040283529160200191610ef3565b820191906000526020600020905b815481529060010190602001808311610ed657829003601f168201915b505050505090506000600a82604051610f0c9190612d85565b908152602001604051809103902054905060008111610f3d5760405162461bcd60e51b815260040161035490612da1565b6001600160a01b0383166000908152600960205260408120600190810190610f659084612de2565b81548110610f7557610f75612df5565b9060005260206000209060090201905042610258610f939190612e9a565b6003820155610fa442610258612e9a565b610fb190620d2f00612e9a565b600482015560078101610fc48882612ef5565b5060088101610fd38782612ef5565b506000888152600b6020526040812080546001600160a01b031916815590610ffe60018301826128b1565b50505050505050505050565b600061103d7f38383038353338616562326434333039613333616631656463396665623435326350c9230d60e01b611b26565b3360009081526009602052604090205490915060ff16801561107757506001600160a01b03831660009081526009602052604090205460ff165b6110bd5760405162461bcd60e51b81526020600482015260176024820152761d5cd95c8a1cca481b9bdd081dda1a5d195b1a5cdd1959604a1b6044820152606401610354565b60006110c98484611ae6565b90506000600a826040516110dd9190612d85565b9081526020016040518091039020549050806001146111495760405162461bcd60e51b815260206004820152602260248201527f70726f6a656374206d757374206265206177616974696e672064697370657273604482015261185b60f21b6064820152608401610354565b6001600160a01b038516600090815260096020526040902042906001908101906111739084612de2565b8154811061118357611183612df5565b906000526020600020906009020160030154106111d05760405162461bcd60e51b815260206004820152600b60248201526a1c1b19585cd9481dd85a5d60aa1b6044820152606401610354565b6040805180820190915260098152681c1c9bda9958dd125160ba1b60208201526111fc90849084611b4a565b61131960405180604001604052806012815260200171191a5cdc195c9cd85b14995c5d595cdd125160721b81525060096000886001600160a01b03166001600160a01b0316815260200190815260200160002060010160018461125f9190612de2565b8154811061126f5761126f612df5565b9060005260206000209060090201600701805461128b90612e0b565b80601f01602080910402602001604051908101604052809291908181526020018280546112b790612e0b565b80156113045780601f106112d957610100808354040283529160200191611304565b820191906000526020600020905b8154815290600101906020018083116112e757829003601f168201915b505050505085611b4a9092919063ffffffff16565b600061135773ccda5e49ff369640edfa0fb58fb6af165b53b8b585600a611348670de0b6b3a764000086612fb4565b6113529190612fe1565b611b6d565b6040805180820182526001600160a01b03898116825260208083018881526000868152600b909252939020825181546001600160a01b031916921691909117815591519293509160018201906113ad9082612ef5565b505050505050505050565b3360009081526009602052604090205460ff1661140e5760405162461bcd60e51b81526020600482015260146024820152731d5cd95c881b9bdd081dda1a5d195b1a5cdd195960621b6044820152606401610354565b600061141a3384611ae6565b9050600a8160405161142c9190612d85565b90815260200160405180910390205460001461148a5760405162461bcd60e51b815260206004820152601b60248201527f70726f6a656374206e616d6520616c72656164792065786973747300000000006044820152606401610354565b611498863387878787611c00565b505050505050565b6007546001600160a01b031633146114f35760405162461bcd60e51b815260206004820152601660248201527526bab9ba10313290383937b837b9b2b21037bbb732b960511b6044820152606401610354565b600680546001600160a01b0319808216339081179093556007805490911690556040516001600160a01b03909116919082907f8be0079c531659141344cd1fd0a4f28419497f9722a3daafe3b4186f6b6457e090600090a350565b611556611a91565b600061156a6002546001600160a01b031690565b6040516370a0823160e01b81523060048201529091506001600160a01b0382169063a9059cbb90339083906370a0823190602401602060405180830381865afa1580156115bb573d6000803e3d6000fd5b505050506040513d601f19601f820116820180604052508101906115df9190612ff5565b6040516001600160e01b031960e085901b1681526001600160a01b03909216600483015260248201526044016020604051808303816000875af115801561162a573d6000803e3d6000fd5b505050506040513d601f19601f8201168201806040525081019061164e919061300e565b61168f5760405162461bcd60e51b81526020600482015260126024820152712ab730b13632903a37903a3930b739b332b960711b6044820152606401610354565b50565b3360009081526009602052604090205460ff1680156116c957506001600160a01b03821660009081526009602052604090205460ff165b61170f5760405162461bcd60e51b81526020600482015260176024820152761d5cd95c8a1cca481b9bdd081dda1a5d195b1a5cdd1959604a1b6044820152606401610354565b600061171b8383611ae6565b90506000600a8260405161172f9190612d85565b9081526020016040518091039020549050600081116117605760405162461bcd60e51b815260040161035490612da1565b6001600160a01b03841660009081526009602052604081206001908101906117889084612de2565b8154811061179857611798612df5565b600091825260209182902060408051610140810182526009909302909101805460ff8082161515855261010090910416938301939093526001830154908201526002820154606082015260038201546080820152600482015460a082015260058201805491929160c08401919061180e90612e0b565b80601f016020809104026020016040519081016040528092919081815260200182805461183a90612e0b565b80156118875780601f1061185c57610100808354040283529160200191611887565b820191906000526020600020905b81548152906001019060200180831161186a57829003601f168201915b505050505081526020016006820180546118a090612e0b565b80601f01602080910402602001604051908101604052809291908181526020018280546118cc90612e0b565b80156119195780601f106118ee57610100808354040283529160200191611919565b820191906000526020600020905b8154815290600101906020018083116118fc57829003601f168201915b5050505050815260200160078201805461193290612e0b565b80601f016020809104026020016040519081016040528092919081815260200182805461195e90612e0b565b80156119ab5780601f10611980576101008083540402835291602001916119ab565b820191906000526020600020905b81548152906001019060200180831161198e57829003601f168201915b505050505081526020016008820180546119c490612e0b565b80601f01602080910402602001604051908101604052809291908181526020018280546119f090612e0b565b8015611a3d5780601f10611a1257610100808354040283529160200191611a3d565b820191906000526020600020905b815481529060010190602001808311611a2057829003601f168201915b50505050508152505090506106f481600001518683604001518460600151888660e00151611c00565b611a6e611a91565b611a7a84848484611fb3565b50505050565b611a88611a91565b61168f8161207a565b6006546001600160a01b03163314611ae45760405162461bcd60e51b815260206004820152601660248201527527b7363c9031b0b63630b1363290313c9037bbb732b960511b6044820152606401610354565b565b6060611afc836001600160a01b03166014612124565b82604051602001611b0e92919061302b565b60405160208183030381529060405290505b92915050565b611b2e6128eb565b611b366128eb565b611b428185308661229b565b949350505050565b6080830151611b5990836122d8565b6080830151611b6890826122d8565b505050565b600454600090611b7e816001612e9a565b600455835160408086015160808701515191516000936320214ca360e11b93611bb69386938493923092918a91600191602401613067565b60408051601f198184030181529190526020810180516001600160e01b03166001600160e01b0319909316929092179091529050611bf6868386846122ef565b9695505050505050565b6000611c0c3384611ae6565b90506000611c417f6561663231373035343564633437393361616464313961613364633832643636630b5be8e360e31b611b26565b6040805180820190915260098152681c1c9bda9958dd125160ba1b6020820152909150611c7090829084611b4a565b60408051808201909152600381526218da5960ea1b6020820152611c9690829085611b4a565b6040805180820190915260058152641cdd185c9d60da1b6020820152611cbe9082908861244d565b604080518082019091526003815262195b9960ea1b6020820152611ce49082908761244d565b6000611d1373ccda5e49ff369640edfa0fb58fb6af165b53b8b583600a611348670de0b6b3a764000086612fb4565b6040805180820182526001600160a01b038b8116825260208083018881526000868152600b909252939020825181546001600160a01b03191692169190911781559151929350916001820190611d699082612ef5565b509050506000600a84604051611d7f9190612d85565b90815260200160405180910390205490506000600960008b6001600160a01b03166001600160a01b03168152602001908152602001600020600101905081600003611f2557806040518061014001604052808d15158152602001600160ff1681526020018b81526020018a815260200142610384611dfd9190612e9a565b81526000602080830182905260408084018d905260608085018d9052815180840183528481526080808701919091528251808501845285815260a096870152875460018181018a5598865294849020875160099096020180549488015160ff166101000261ff00199615159690961661ffff199095169490941794909417835590850151958201959095559383015160028501558201516003840155810151600483015560c08101519091906005820190611eb89082612ef5565b5060e08201516006820190611ecd9082612ef5565b506101008201516007820190611ee39082612ef5565b506101208201516008820190611ef99082612ef5565b5050508080549050915081600a86604051611f149190612d85565b908152604051908190036020019020555b600181611f328285612de2565b81548110611f4257611f42612df5565b60009182526020909120600990910201805460ff929092166101000261ff00199092169190911790558581611f78600185612de2565b81548110611f8857611f88612df5565b90600052602060002090600902016006019081611fa59190612ef5565b505050505050505050505050565b60008481526005602052604080822080546001600160a01b0319811690915590516001600160a01b039091169186917fe1fe3afa0f7f761ff0a8b89086790efd5140d2907ebd5b7ff6bfcb5e075fd4c59190a2604051636ee4d55360e01b815260048101869052602481018590526001600160e01b031984166044820152606481018390526001600160a01b03821690636ee4d55390608401600060405180830381600087803b15801561206657600080fd5b505af11580156113ad573d6000803e3d6000fd5b336001600160a01b038216036120d25760405162461bcd60e51b815260206004820152601760248201527f43616e6e6f74207472616e7366657220746f2073656c660000000000000000006044820152606401610354565b600780546001600160a01b0319166001600160a01b03838116918217909255600654604051919216907fed8889f560326eb138920d842192f0eb3dd22b4f139c87a2c57538e05bae127890600090a350565b6060826000612134846002612fb4565b61213f906002612e9a565b6001600160401b0381111561215657612156612976565b6040519080825280601f01601f191660200182016040528015612180576020820181803683370190505b509050600360fc1b8160008151811061219b5761219b612df5565b60200101906001600160f81b031916908160001a905350600f60fb1b816001815181106121ca576121ca612df5565b60200101906001600160f81b031916908160001a90535060006121ee856002612fb4565b6121f9906001612e9a565b90505b6001811115612271576f181899199a1a9b1b9c1cb0b131b232b360811b83600f166010811061222d5761222d612df5565b1a60f81b82828151811061224357612243612df5565b60200101906001600160f81b031916908160001a90535060049290921c9161226a816130cf565b90506121fc565b508115611b425760405163e22e27eb60e01b81526004810186905260248101859052604401610354565b6122a36128eb565b6122b3856080015161010061246b565b50509183526001600160a01b031660208301526001600160e01b031916604082015290565b6122e582600383516124d0565b611b6882826125d7565b6040516bffffffffffffffffffffffff193060601b1660208201526034810184905260009060540160408051808303601f1901815282825280516020918201206000818152600590925291812080546001600160a01b0319166001600160a01b038a1617905590925082917fb5e6e01e79f91267dc17b4e6314d5d4d03593d2ceee0fbb452b750bd70ea5af99190a2600254604051630200057560e51b81526001600160a01b0390911690634000aea0906123b2908890879087906004016130e6565b6020604051808303816000875af11580156123d1573d6000803e3d6000fd5b505050506040513d601f19601f820116820180604052508101906123f5919061300e565b611b425760405162461bcd60e51b815260206004820152602360248201527f756e61626c6520746f207472616e73666572416e6443616c6c20746f206f7261604482015262636c6560e81b6064820152608401610354565b608083015161245c90836122d8565b6080830151611b689082612605565b60408051808201909152606081526000602082015261248b602083613116565b156124b35761249b602083613116565b6124a6906020612de2565b6124b09083612e9a565b91505b506020828101829052604080518085526000815290920101905290565b6017816001600160401b0316116124f457611a7a8360e0600585901b16831761262e565b60ff816001600160401b0316116125305761251a836018611fe0600586901b161761262e565b50611a7a836001600160401b0383166001612653565b61ffff816001600160401b03161161256d57612557836019611fe0600586901b161761262e565b50611a7a836001600160401b0383166002612653565b63ffffffff816001600160401b0316116125ac5761259683601a611fe0600586901b161761262e565b50611a7a836001600160401b0383166004612653565b6125c183601b611fe0600586901b161761262e565b50611a7a836001600160401b0383166008612653565b6040805180820190915260608152600060208201526125fe83846000015151848551612679565b9392505050565b6001600160401b038111156126225761261e8282612763565b5050565b61261e826000836124d0565b6040805180820190915260608152600060208201526125fe838460000151518461279a565b604080518082019091526060815260006020820152611b428485600001515185856127f5565b604080518082019091526060815260006020820152825182111561269c57600080fd5b60208501516126ab8386612e9a565b11156126de576126de856126ce876020015187866126c99190612e9a565b612876565b6126d9906002612fb4565b61288d565b6000808651805187602083010193508088870111156126fd5787860182525b505050602084015b6020841061273d578051825261271c602083612e9a565b9150612729602082612e9a565b9050612736602085612de2565b9350612705565b51815160001960208690036101000a019081169019919091161790525083949350505050565b61276e8260c261262e565b5061261e828260405160200161278691815260200190565b6040516020818303038152906040526128a4565b604080518082019091526060815260006020820152836020015183106127cf576127cf84856020015160026126d99190612fb4565b83518051602085830101848153508085036127eb576001810182525b5093949350505050565b60408051808201909152606081526000602082015260208501516128198584612e9a565b111561282d5761282d856126ce8685612e9a565b6000600161283d8461010061320e565b6128479190612de2565b905085518386820101858319825116178152508051848701111561286b5783860181525b509495945050505050565b600081831115612887575081611b20565b50919050565b8151612899838361246b565b50611a7a83826125d7565b6122e582600283516124d0565b5080546128bd90612e0b565b6000825580601f106128cd575050565b601f01602090049060005260206000209081019061168f9190612926565b6040805160a0810182526000808252602080830182905282840182905260608084018390528451808601909552845283015290608082015290565b5b8082111561293b5760008155600101612927565b5090565b80356001600160a01b038116811461295657600080fd5b919050565b60006020828403121561296d57600080fd5b6125fe8261293f565b634e487b7160e01b600052604160045260246000fd5b600082601f83011261299d57600080fd5b81356001600160401b03808211156129b7576129b7612976565b604051601f8301601f19908116603f011681019082821181831017156129df576129df612976565b816040528381528660208588010111156129f857600080fd5b836020870160208301376000602085830101528094505050505092915050565b600060208284031215612a2a57600080fd5b81356001600160401b03811115612a4057600080fd5b611b428482850161298c565b60008060408385031215612a5f57600080fd5b612a688361293f565b915060208301356001600160401b03811115612a8357600080fd5b612a8f8582860161298c565b9150509250929050565b60005b83811015612ab4578181015183820152602001612a9c565b50506000910152565b60008151808452612ad5816020860160208601612a99565b601f01601f19169290920160200192915050565b60006020808352606080840185511515838601528286015160408060408801528282518085526080945060808901915060808160051b8a0101878501945060005b82811015612bf7578a8203607f190184528551805115158352610140818b015160ff8116858d0152508682015187850152898201518a850152888201518985015260a080830151818601525060c0808301518282870152612b8d83870182612abd565b9250505060e08083015185830382870152612ba88382612abd565b925050506101008083015185830382870152612bc48382612abd565b925050506101208083015192508482038186015250612be38183612abd565b978b0197958b019593505050600101612b2a565b509a9950505050505050505050565b801515811461168f57600080fd5b60008060408385031215612c2757600080fd5b823591506020830135612c3981612c06565b809150509250929050565b600080600060608486031215612c5957600080fd5b8335925060208401356001600160401b0380821115612c7757600080fd5b612c838783880161298c565b93506040860135915080821115612c9957600080fd5b50612ca68682870161298c565b9150509250925092565b600080600080600060a08688031215612cc857600080fd5b8535612cd381612c06565b9450602086013593506040860135925060608601356001600160401b0380821115612cfd57600080fd5b612d0989838a0161298c565b93506080880135915080821115612d1f57600080fd5b50612d2c8882890161298c565b9150509295509295909350565b60008060008060808587031215612d4f57600080fd5b843593506020850135925060408501356001600160e01b031981168114612d7557600080fd5b9396929550929360600135925050565b60008251612d97818460208701612a99565b9190910192915050565b6020808252601190820152701c1c9bda9958dd081b9bdd08199bdd5b99607a1b604082015260600190565b634e487b7160e01b600052601160045260246000fd5b81810381811115611b2057611b20612dcc565b634e487b7160e01b600052603260045260246000fd5b600181811c90821680612e1f57607f821691505b60208210810361288757634e487b7160e01b600052602260045260246000fd5b60208082526028908201527f536f75726365206d75737420626520746865206f7261636c65206f6620746865604082015267081c995c5d595cdd60c21b606082015260800190565b6020815260006125fe6020830184612abd565b80820180821115611b2057611b20612dcc565b601f821115611b68576000816000526020600020601f850160051c81016020861015612ed65750805b601f850160051c820191505b8181101561149857828155600101612ee2565b81516001600160401b03811115612f0e57612f0e612976565b612f2281612f1c8454612e0b565b84612ead565b602080601f831160018114612f575760008415612f3f5750858301515b600019600386901b1c1916600185901b178555611498565b600085815260208120601f198616915b82811015612f8657888601518255948401946001909101908401612f67565b5085821015612fa45787850151600019600388901b60f8161c191681555b5050505050600190811b01905550565b8082028115828204841417611b2057611b20612dcc565b634e487b7160e01b600052601260045260246000fd5b600082612ff057612ff0612fcb565b500490565b60006020828403121561300757600080fd5b5051919050565b60006020828403121561302057600080fd5b81516125fe81612c06565b6000835161303d818460208801612a99565b601d60f91b908301908152835161305b816001840160208801612a99565b01600101949350505050565b6001600160a01b0389811682526020820189905260408201889052861660608201526001600160e01b03198516608082015260a0810184905260c0810183905261010060e082018190526000906130c083820185612abd565b9b9a5050505050505050505050565b6000816130de576130de612dcc565b506000190190565b60018060a01b038416815282602082015260606040820152600061310d6060830184612abd565b95945050505050565b60008261312557613125612fcb565b500690565b600181815b8085111561316557816000190482111561314b5761314b612dcc565b8085161561315857918102915b93841c939080029061312f565b509250929050565b60008261317c57506001611b20565b8161318957506000611b20565b816001811461319f57600281146131a9576131c5565b6001915050611b20565b60ff8411156131ba576131ba612dcc565b50506001821b611b20565b5060208310610133831016604e8410600b84101617156131e8575081810a611b20565b6131f2838361312a565b806000190482111561320657613206612dcc565b029392505050565b60006125fe838361316d56fea26469706673582212205aafd378d07a23528dcc18dbb60477638f6b14248497ff943d18f48435f0ab1f64736f6c63430008190033","linkReferences":{}},"methodIdentifiers":{"acceptOwnership()":"79ba5097","cancelRequest(bytes32,uint256,bytes4,uint256)":"ec65d0f8","fulfillConfirmData(bytes32,bool)":"50c9230d","fulfillDisperseData(bytes32,string,string)":"5adf4718","getChainlinkToken()":"165d35e1","getUserDetail(address)":"4a48c84b","owner()":"8da5cb5b","projectIndex(string)":"3178c814","projectVerifier()":"626e5f94","requestConfirmData(address,string)":"5c734115","requestInitialDispersal(bool,uint256,uint256,string,string)":"74bae7d9","requestRedispersal(address,string)":"aa4f0fc3","setProjectVerifier(address)":"114bd73b","transferOwnership(address)":"f2fde38b","updateProjectState(address,string)":"34f10858","userDetails(address)":"48dec2a7","whitelistUser(address)":"4a4c560d","withdrawLink()":"8dc654a2"},"id":71}