{"abi":[{"type":"constructor","inputs":[],"stateMutability":"nonpayable"},{"type":"function","name":"acceptOwnership","inputs":[],"outputs":[],"stateMutability":"nonpayable"},{"type":"function","name":"cancelRequest","inputs":[{"name":"_requestId","type":"bytes32","internalType":"bytes32"},{"name":"_payment","type":"uint256","internalType":"uint256"},{"name":"_callbackFunctionId","type":"bytes4","internalType":"bytes4"},{"name":"_expiration","type":"uint256","internalType":"uint256"}],"outputs":[],"stateMutability":"nonpayable"},{"type":"function","name":"fulfillConfirmData","inputs":[{"name":"_requestId","type":"bytes32","internalType":"bytes32"},{"name":"_isConfirmed","type":"bool","internalType":"bool"}],"outputs":[],"stateMutability":"nonpayable"},{"type":"function","name":"fulfillDisperseData","inputs":[{"name":"_requestId","type":"bytes32","internalType":"bytes32"},{"name":"_dispersalID","type":"string","internalType":"string"},{"name":"_lastUpdatedHeadCID","type":"string","internalType":"string"}],"outputs":[],"stateMutability":"nonpayable"},{"type":"function","name":"getChainlinkToken","inputs":[],"outputs":[{"name":"","type":"address","internalType":"address"}],"stateMutability":"view"},{"type":"function","name":"getUserDetail","inputs":[{"name":"_user","type":"address","internalType":"address"}],"outputs":[{"name":"","type":"tuple","internalType":"struct ICarbonMonitoringVerifier.UserDetail","components":[{"name":"whitelisted","type":"bool","internalType":"bool"},{"name":"userProjects","type":"tuple[]","internalType":"struct ICarbonMonitoringVerifier.UserProject[]","components":[{"name":"isSubscribed","type":"bool","internalType":"bool"},{"name":"projectState","type":"uint8","internalType":"uint8"},{"name":"start","type":"uint256","internalType":"uint256"},{"name":"end","type":"uint256","internalType":"uint256"},{"name":"expectedTimeofDispersal","type":"uint256","internalType":"uint256"},{"name":"expectedTimeofExpiry","type":"uint256","internalType":"uint256"},{"name":"projectName","type":"string","internalType":"string"},{"name":"cid","type":"string","internalType":"string"},{"name":"dispersalRequestID","type":"string","internalType":"string"},{"name":"lastUpdatedHeadCID","type":"string","internalType":"string"}]}]}],"stateMutability":"view"},{"type":"function","name":"owner","inputs":[],"outputs":[{"name":"","type":"address","internalType":"address"}],"stateMutability":"view"},{"type":"function","name":"projectIndex","inputs":[{"name":"","type":"string","internalType":"string"}],"outputs":[{"name":"","type":"uint256","internalType":"uint256"}],"stateMutability":"view"},{"type":"function","name":"projectVerifier","inputs":[],"outputs":[{"name":"","type":"address","internalType":"address"}],"stateMutability":"view"},{"type":"function","name":"requestConfirmData","inputs":[{"name":"_user","type":"address","internalType":"address"},{"name":"_projectName","type":"string","internalType":"string"}],"outputs":[],"stateMutability":"nonpayable"},{"type":"function","name":"requestInitialDispersal","inputs":[{"name":"_isSubscription","type":"bool","internalType":"bool"},{"name":"_start","type":"uint256","internalType":"uint256"},{"name":"_end","type":"uint256","internalType":"uint256"},{"name":"_projectName","type":"string","internalType":"string"},{"name":"_cid","type":"string","internalType":"string"}],"outputs":[],"stateMutability":"nonpayable"},{"type":"function","name":"requestRedispersal","inputs":[{"name":"_user","type":"address","internalType":"address"},{"name":"_projectName","type":"string","internalType":"string"}],"outputs":[],"stateMutability":"nonpayable"},{"type":"function","name":"setProjectVerifier","inputs":[{"name":"_projectVerifier","type":"address","internalType":"address"}],"outputs":[],"stateMutability":"nonpayable"},{"type":"function","name":"transferOwnership","inputs":[{"name":"to","type":"address","internalType":"address"}],"outputs":[],"stateMutability":"nonpayable"},{"type":"function","name":"unwhitelistUser","inputs":[{"name":"_user","type":"address","internalType":"address"}],"outputs":[],"stateMutability":"nonpayable"},{"type":"function","name":"updateProjectState","inputs":[{"name":"_user","type":"address","internalType":"address"},{"name":"_projectName","type":"string","internalType":"string"}],"outputs":[],"stateMutability":"nonpayable"},{"type":"function","name":"userDetails","inputs":[{"name":"","type":"address","internalType":"address"}],"outputs":[{"name":"whitelisted","type":"bool","internalType":"bool"}],"stateMutability":"view"},{"type":"function","name":"whitelistUser","inputs":[{"name":"_user","type":"address","internalType":"address"}],"outputs":[],"stateMutability":"nonpayable"},{"type":"function","name":"withdrawLink","inputs":[],"outputs":[],"stateMutability":"nonpayable"},{"type":"event","name":"ChainlinkCancelled","inputs":[{"name":"id","type":"bytes32","indexed":true,"internalType":"bytes32"}],"anonymous":false},{"type":"event","name":"ChainlinkFulfilled","inputs":[{"name":"id","type":"bytes32","indexed":true,"internalType":"bytes32"}],"anonymous":false},{"type":"event","name":"ChainlinkRequested","inputs":[{"name":"id","type":"bytes32","indexed":true,"internalType":"bytes32"}],"anonymous":false},{"type":"event","name":"OwnershipTransferRequested","inputs":[{"name":"from","type":"address","indexed":true,"internalType":"address"},{"name":"to","type":"address","indexed":true,"internalType":"address"}],"anonymous":false},{"type":"event","name":"OwnershipTransferred","inputs":[{"name":"from","type":"address","indexed":true,"internalType":"address"},{"name":"to","type":"address","indexed":true,"internalType":"address"}],"anonymous":false},{"type":"event","name":"RequestConfirmDataFulfilled","inputs":[{"name":"requestId","type":"bytes32","indexed":false,"internalType":"bytes32"},{"name":"confirmed","type":"bool","indexed":true,"internalType":"bool"},{"name":"projectID","type":"string","indexed":true,"internalType":"string"},{"name":"projectVerifier","type":"address","indexed":true,"internalType":"address"}],"anonymous":false},{"type":"event","name":"RequestDisperseDataFulfilled","inputs":[{"name":"requestId","type":"bytes32","indexed":false,"internalType":"bytes32"},{"name":"dispersalRequestID","type":"string","indexed":true,"internalType":"string"},{"name":"lastUpdatedHeadCID","type":"string","indexed":true,"internalType":"string"}],"anonymous":false},{"type":"error","name":"StringsInsufficientHexLength","inputs":[{"name":"value","type":"uint256","internalType":"uint256"},{"name":"length","type":"uint256","internalType":"uint256"}]}],"bytecode":{"object":"0x60806040526001600455600880546001600160a01b031916738032b4dba3779b6836b4c69203bb1d3b4f92908b17905534801561003b57600080fd5b5033806000816100925760405162461bcd60e51b815260206004820152601860248201527f43616e6e6f7420736574206f776e657220746f207a65726f000000000000000060448201526064015b60405180910390fd5b600680546001600160a01b0319166001600160a01b03848116919091179091558116156100c2576100c2816100ed565b5050506100e873d27376e609bf32b506535efe2bf1303a74eb546761019760201b60201c565b6101b9565b336001600160a01b038216036101455760405162461bcd60e51b815260206004820152601760248201527f43616e6e6f74207472616e7366657220746f2073656c660000000000000000006044820152606401610089565b600780546001600160a01b0319166001600160a01b03838116918217909255600654604051919216907fed8889f560326eb138920d842192f0eb3dd22b4f139c87a2c57538e05bae127890600090a350565b600280546001600160a01b0319166001600160a01b0392909216919091179055565b613358806101c86000396000f3fe608060405234801561001057600080fd5b50600436106101215760003560e01c80635adf4718116100ad5780638da5cb5b116100715780638da5cb5b1461028c5780638dc654a21461029d578063aa4f0fc3146102a5578063ec65d0f8146102b8578063f2fde38b146102cb57600080fd5b80635adf4718146102385780635c7341151461024b578063626e5f941461025e57806374bae7d91461027157806379ba50971461028457600080fd5b806348dec2a7116100f457806348dec2a7146101ac5780634a48c84b146101df5780634a4c560d146101ff57806350c9230d14610212578063565ae2731461022557600080fd5b8063114bd73b14610126578063165d35e11461013b5780633178c8141461016057806334f1085814610199575b600080fd5b610139610134366004612a63565b6102de565b005b610143610308565b6040516001600160a01b0390911681526020015b60405180910390f35b61018b61016e366004612b20565b8051602081830181018051600a8252928201919093012091525481565b604051908152602001610157565b6101396101a7366004612b54565b610321565b6101cf6101ba366004612a63565b60096020526000908152604090205460ff1681565b6040519015158152602001610157565b6101f26101ed366004612a63565b610719565b6040516101579190612bf1565b61013961020d366004612a63565b610a50565b610139610220366004612d1c565b610ae5565b610139610233366004612a63565b610d92565b610139610246366004612d4c565b610e1a565b610139610259366004612b54565b6110b0565b600854610143906001600160a01b031681565b61013961027f366004612db8565b6114b5565b61013961159d565b6006546001600160a01b0316610143565b61013961164b565b6101396102b3366004612b54565b61178f565b6101396102c6366004612e41565b611b63565b6101396102d9366004612a63565b611b7d565b6102e6611b8e565b600880546001600160a01b0319166001600160a01b0392909216919091179055565b600061031c6002546001600160a01b031690565b905090565b600061032d8383611be3565b90506000600a826040516103419190612e8d565b90815260200160405180910390205490506000811161037b5760405162461bcd60e51b815260040161037290612ea9565b60405180910390fd5b6001600160a01b03841660009081526009602052604081206001908101906103a39084612eea565b815481106103b3576103b3612efd565b600091825260209182902060408051610140810182526009909302909101805460ff8082161515855261010090910416938301939093526001830154908201526002820154606082015260038201546080820152600482015460a082015260058201805491929160c08401919061042990612f13565b80601f016020809104026020016040519081016040528092919081815260200182805461045590612f13565b80156104a25780601f10610477576101008083540402835291602001916104a2565b820191906000526020600020905b81548152906001019060200180831161048557829003601f168201915b505050505081526020016006820180546104bb90612f13565b80601f01602080910402602001604051908101604052809291908181526020018280546104e790612f13565b80156105345780601f1061050957610100808354040283529160200191610534565b820191906000526020600020905b81548152906001019060200180831161051757829003601f168201915b5050505050815260200160078201805461054d90612f13565b80601f016020809104026020016040519081016040528092919081815260200182805461057990612f13565b80156105c65780601f1061059b576101008083540402835291602001916105c6565b820191906000526020600020905b8154815290600101906020018083116105a957829003601f168201915b505050505081526020016008820180546105df90612f13565b80601f016020809104026020016040519081016040528092919081815260200182805461060b90612f13565b80156106585780601f1061062d57610100808354040283529160200191610658565b820191906000526020600020905b81548152906001019060200180831161063b57829003601f168201915b5050505050815250509050428160a0015110156106e9576001600160a01b038516600090815260096020526040902060039060019081019061069a9085612eea565b815481106106aa576106aa612efd565b60009182526020909120600990910201805460ff929092166101000261ff00199092169190911790558051156106e4576106e4858561178f565b610712565b4281608001511080156107035750806020015160ff166001145b156107125761071285856110b0565b5050505050565b6040805180820190915260008152606060208201526001600160a01b038216600090815260096020908152604080832081518083018352815460ff16151581526001820180548451818702810187019095528085529195929486810194939192919084015b82821015610a42576000848152602090819020604080516101408101825260098602909201805460ff8082161515855261010090910416938301939093526001830154908201526002820154606082015260038201546080820152600482015460a082015260058201805491929160c0840191906107fb90612f13565b80601f016020809104026020016040519081016040528092919081815260200182805461082790612f13565b80156108745780601f1061084957610100808354040283529160200191610874565b820191906000526020600020905b81548152906001019060200180831161085757829003601f168201915b5050505050815260200160068201805461088d90612f13565b80601f01602080910402602001604051908101604052809291908181526020018280546108b990612f13565b80156109065780601f106108db57610100808354040283529160200191610906565b820191906000526020600020905b8154815290600101906020018083116108e957829003601f168201915b5050505050815260200160078201805461091f90612f13565b80601f016020809104026020016040519081016040528092919081815260200182805461094b90612f13565b80156109985780601f1061096d57610100808354040283529160200191610998565b820191906000526020600020905b81548152906001019060200180831161097b57829003601f168201915b505050505081526020016008820180546109b190612f13565b80601f01602080910402602001604051908101604052809291908181526020018280546109dd90612f13565b8015610a2a5780601f106109ff57610100808354040283529160200191610a2a565b820191906000526020600020905b815481529060010190602001808311610a0d57829003601f168201915b5050505050815250508152602001906001019061077e565b505050915250909392505050565b610a58611b8e565b6001600160a01b03811660009081526009602052604090205460ff1615610ac15760405162461bcd60e51b815260206004820152601860248201527f7573657220616c72656164792077686974656c697374656400000000000000006044820152606401610372565b6001600160a01b03166000908152600960205260409020805460ff19166001179055565b60008281526005602052604090205482906001600160a01b03163314610b1d5760405162461bcd60e51b815260040161037290612f47565b60008181526005602052604080822080546001600160a01b03191690555182917f7cc135e0cebb02c3480ae5d74d377283180a2601f8f644edf7987b009316c63a91a26000838152600b602052604081208054600190910180546001600160a01b039092169291610b8d90612f13565b80601f0160208091040260200160405190810160405280929190818152602001828054610bb990612f13565b8015610c065780601f10610bdb57610100808354040283529160200191610c06565b820191906000526020600020905b815481529060010190602001808311610be957829003601f168201915b505050505090506000600a82604051610c1f9190612e8d565b90815260200160405180910390205490508415610cfd57600854604051633623e2a960e11b81526001600160a01b0390911690636c47c55290610c66908590600401612f8f565b600060405180830381600087803b158015610c8057600080fd5b505af1158015610c94573d6000803e3d6000fd5b5050506001600160a01b038416600090815260096020526040902060029150600190810190610cc39084612eea565b81548110610cd357610cd3612efd565b906000526020600020906009020160000160016101000a81548160ff021916908360ff1602179055505b6008546040516001600160a01b0390911690610d1a908490612e8d565b60405180910390208615157f27ba9a475b834dc3333cbf286869a81c8c50c858296e64a37de4a83c26ff3adc89604051610d5691815260200190565b60405180910390a46000868152600b6020526040812080546001600160a01b031916815590610d8860018301826129b9565b5050505050505050565b610d9a611b8e565b6001600160a01b03811660009081526009602052604090205460ff16610df95760405162461bcd60e51b81526020600482015260146024820152731d5cd95c881b9bdd081dda1a5d195b1a5cdd195960621b6044820152606401610372565b6001600160a01b03166000908152600960205260409020805460ff19169055565b60008381526005602052604090205483906001600160a01b03163314610e525760405162461bcd60e51b815260040161037290612f47565b60008181526005602052604080822080546001600160a01b03191690555182917f7cc135e0cebb02c3480ae5d74d377283180a2601f8f644edf7987b009316c63a91a281604051610ea39190612e8d565b604051809103902083604051610eb99190612e8d565b604051908190038120868252907f8b52207fce6980cb21677901b8ecbc6b81748f347a9e3171cf167b7b4ed2f9a09060200160405180910390a36000848152600b602052604081208054600190910180546001600160a01b039092169291610f2090612f13565b80601f0160208091040260200160405190810160405280929190818152602001828054610f4c90612f13565b8015610f995780601f10610f6e57610100808354040283529160200191610f99565b820191906000526020600020905b815481529060010190602001808311610f7c57829003601f168201915b505050505090506000600a82604051610fb29190612e8d565b908152602001604051809103902054905060008111610fe35760405162461bcd60e51b815260040161037290612ea9565b6001600160a01b038316600090815260096020526040812060019081019061100b9084612eea565b8154811061101b5761101b612efd565b90600052602060002090600902019050426102586110399190612fa2565b600382015561104a42610258612fa2565b61105790620d2f00612fa2565b60048201556007810161106a8882612ffd565b50600881016110798782612ffd565b506000888152600b6020526040812080546001600160a01b0319168155906110a460018301826129b9565b50505050505050505050565b60006110e37f38383038353338616562326434333039613333616631656463396665623435326350c9230d60e01b611c23565b3360009081526009602052604090205490915060ff16801561111d57506001600160a01b03831660009081526009602052604090205460ff165b6111635760405162461bcd60e51b81526020600482015260176024820152761d5cd95c8a1cca481b9bdd081dda1a5d195b1a5cdd1959604a1b6044820152606401610372565b600061116f8484611be3565b90506000600a826040516111839190612e8d565b9081526020016040518091039020549050600060096000876001600160a01b03166001600160a01b031681526020019081526020016000206001016001836111cb9190612eea565b815481106111db576111db612efd565b6000918252602090912060099091020154610100900460ff169050600181146112515760405162461bcd60e51b815260206004820152602260248201527f70726f6a656374206d757374206265206177616974696e672064697370657273604482015261185b60f21b6064820152608401610372565b6001600160a01b0386166000908152600960205260409020429060019081019061127b9085612eea565b8154811061128b5761128b612efd565b906000526020600020906009020160030154106112d85760405162461bcd60e51b815260206004820152600b60248201526a1c1b19585cd9481dd85a5d60aa1b6044820152606401610372565b6040805180820190915260098152681c1c9bda9958dd125160ba1b602082015261130490859085611c47565b61142160405180604001604052806012815260200171191a5cdc195c9cd85b14995c5d595cdd125160721b81525060096000896001600160a01b03166001600160a01b031681526020019081526020016000206001016001856113679190612eea565b8154811061137757611377612efd565b9060005260206000209060090201600701805461139390612f13565b80601f01602080910402602001604051908101604052809291908181526020018280546113bf90612f13565b801561140c5780601f106113e15761010080835404028352916020019161140c565b820191906000526020600020905b8154815290600101906020018083116113ef57829003601f168201915b505050505086611c479092919063ffffffff16565b600061145f73ccda5e49ff369640edfa0fb58fb6af165b53b8b586600a611450670de0b6b3a7640000866130bc565b61145a91906130e9565b611c6a565b6040805180820182526001600160a01b038a8116825260208083018981526000868152600b909252939020825181546001600160a01b031916921691909117815591519293509160018201906110a49082612ffd565b3360009081526009602052604090205460ff1661150b5760405162461bcd60e51b81526020600482015260146024820152731d5cd95c881b9bdd081dda1a5d195b1a5cdd195960621b6044820152606401610372565b60006115173384611be3565b9050600a816040516115299190612e8d565b9081526020016040518091039020546000146115875760405162461bcd60e51b815260206004820152601b60248201527f70726f6a656374206e616d6520616c72656164792065786973747300000000006044820152606401610372565b611595863387878787611cfd565b505050505050565b6007546001600160a01b031633146115f05760405162461bcd60e51b815260206004820152601660248201527526bab9ba10313290383937b837b9b2b21037bbb732b960511b6044820152606401610372565b600680546001600160a01b0319808216339081179093556007805490911690556040516001600160a01b03909116919082907f8be0079c531659141344cd1fd0a4f28419497f9722a3daafe3b4186f6b6457e090600090a350565b611653611b8e565b60006116676002546001600160a01b031690565b6040516370a0823160e01b81523060048201529091506001600160a01b0382169063a9059cbb90339083906370a0823190602401602060405180830381865afa1580156116b8573d6000803e3d6000fd5b505050506040513d601f19601f820116820180604052508101906116dc91906130fd565b6040516001600160e01b031960e085901b1681526001600160a01b03909216600483015260248201526044016020604051808303816000875af1158015611727573d6000803e3d6000fd5b505050506040513d601f19601f8201168201806040525081019061174b9190613116565b61178c5760405162461bcd60e51b81526020600482015260126024820152712ab730b13632903a37903a3930b739b332b960711b6044820152606401610372565b50565b3360009081526009602052604090205460ff1680156117c657506001600160a01b03821660009081526009602052604090205460ff165b61180c5760405162461bcd60e51b81526020600482015260176024820152761d5cd95c8a1cca481b9bdd081dda1a5d195b1a5cdd1959604a1b6044820152606401610372565b60006118188383611be3565b90506000600a8260405161182c9190612e8d565b90815260200160405180910390205490506000811161185d5760405162461bcd60e51b815260040161037290612ea9565b6001600160a01b03841660009081526009602052604081206001908101906118859084612eea565b8154811061189557611895612efd565b600091825260209182902060408051610140810182526009909302909101805460ff8082161515855261010090910416938301939093526001830154908201526002820154606082015260038201546080820152600482015460a082015260058201805491929160c08401919061190b90612f13565b80601f016020809104026020016040519081016040528092919081815260200182805461193790612f13565b80156119845780601f1061195957610100808354040283529160200191611984565b820191906000526020600020905b81548152906001019060200180831161196757829003601f168201915b5050505050815260200160068201805461199d90612f13565b80601f01602080910402602001604051908101604052809291908181526020018280546119c990612f13565b8015611a165780601f106119eb57610100808354040283529160200191611a16565b820191906000526020600020905b8154815290600101906020018083116119f957829003601f168201915b50505050508152602001600782018054611a2f90612f13565b80601f0160208091040260200160405190810160405280929190818152602001828054611a5b90612f13565b8015611aa85780601f10611a7d57610100808354040283529160200191611aa8565b820191906000526020600020905b815481529060010190602001808311611a8b57829003601f168201915b50505050508152602001600882018054611ac190612f13565b80601f0160208091040260200160405190810160405280929190818152602001828054611aed90612f13565b8015611b3a5780601f10611b0f57610100808354040283529160200191611b3a565b820191906000526020600020905b815481529060010190602001808311611b1d57829003601f168201915b505050505081525050905061071281600001518683604001518460600151888660e00151611cfd565b611b6b611b8e565b611b77848484846120b0565b50505050565b611b85611b8e565b61178c81612182565b6006546001600160a01b03163314611be15760405162461bcd60e51b815260206004820152601660248201527527b7363c9031b0b63630b1363290313c9037bbb732b960511b6044820152606401610372565b565b6060611bf9836001600160a01b0316601461222c565b82604051602001611c0b929190613133565b60405160208183030381529060405290505b92915050565b611c2b6129f3565b611c336129f3565b611c3f818530866123a3565b949350505050565b6080830151611c5690836123e0565b6080830151611c6590826123e0565b505050565b600454600090611c7b816001612fa2565b600455835160408086015160808701515191516000936320214ca360e11b93611cb39386938493923092918a9160019160240161316f565b60408051601f198184030181529190526020810180516001600160e01b03166001600160e01b0319909316929092179091529050611cf3868386846123f7565b9695505050505050565b6000611d098684611be3565b90506000611d3e7f6561663231373035343564633437393361616464313961613364633832643636630b5be8e360e31b611c23565b6040805180820190915260098152681c1c9bda9958dd125160ba1b6020820152909150611d6d90829084611c47565b60408051808201909152600381526218da5960ea1b6020820152611d9390829085611c47565b6040805180820190915260058152641cdd185c9d60da1b6020820152611dbb90829088612555565b604080518082019091526003815262195b9960ea1b6020820152611de190829087612555565b6000611e1073ccda5e49ff369640edfa0fb58fb6af165b53b8b583600a611450670de0b6b3a7640000866130bc565b6040805180820182526001600160a01b038b8116825260208083018881526000868152600b909252939020825181546001600160a01b03191692169190911781559151929350916001820190611e669082612ffd565b509050506000600a84604051611e7c9190612e8d565b90815260200160405180910390205490506000600960008b6001600160a01b03166001600160a01b0316815260200190815260200160002060010190508160000361202257806040518061014001604052808d15158152602001600160ff1681526020018b81526020018a815260200142610384611efa9190612fa2565b81526000602080830182905260408084018d905260608085018d9052815180840183528481526080808701919091528251808501845285815260a096870152875460018181018a5598865294849020875160099096020180549488015160ff166101000261ff00199615159690961661ffff199095169490941794909417835590850151958201959095559383015160028501558201516003840155810151600483015560c08101519091906005820190611fb59082612ffd565b5060e08201516006820190611fca9082612ffd565b506101008201516007820190611fe09082612ffd565b506101208201516008820190611ff69082612ffd565b5050508080549050915081600a866040516120119190612e8d565b908152604051908190036020019020555b60018161202f8285612eea565b8154811061203f5761203f612efd565b60009182526020909120600990910201805460ff929092166101000261ff00199092169190911790558581612075600185612eea565b8154811061208557612085612efd565b906000526020600020906009020160060190816120a29190612ffd565b505050505050505050505050565b60008481526005602052604080822080546001600160a01b0319811690915590516001600160a01b039091169186917fe1fe3afa0f7f761ff0a8b89086790efd5140d2907ebd5b7ff6bfcb5e075fd4c59190a2604051636ee4d55360e01b815260048101869052602481018590526001600160e01b031984166044820152606481018390526001600160a01b03821690636ee4d55390608401600060405180830381600087803b15801561216357600080fd5b505af1158015612177573d6000803e3d6000fd5b505050505050505050565b336001600160a01b038216036121da5760405162461bcd60e51b815260206004820152601760248201527f43616e6e6f74207472616e7366657220746f2073656c660000000000000000006044820152606401610372565b600780546001600160a01b0319166001600160a01b03838116918217909255600654604051919216907fed8889f560326eb138920d842192f0eb3dd22b4f139c87a2c57538e05bae127890600090a350565b606082600061223c8460026130bc565b612247906002612fa2565b6001600160401b0381111561225e5761225e612a7e565b6040519080825280601f01601f191660200182016040528015612288576020820181803683370190505b509050600360fc1b816000815181106122a3576122a3612efd565b60200101906001600160f81b031916908160001a905350600f60fb1b816001815181106122d2576122d2612efd565b60200101906001600160f81b031916908160001a90535060006122f68560026130bc565b612301906001612fa2565b90505b6001811115612379576f181899199a1a9b1b9c1cb0b131b232b360811b83600f166010811061233557612335612efd565b1a60f81b82828151811061234b5761234b612efd565b60200101906001600160f81b031916908160001a90535060049290921c91612372816131d7565b9050612304565b508115611c3f5760405163e22e27eb60e01b81526004810186905260248101859052604401610372565b6123ab6129f3565b6123bb8560800151610100612573565b50509183526001600160a01b031660208301526001600160e01b031916604082015290565b6123ed82600383516125d8565b611c6582826126df565b6040516bffffffffffffffffffffffff193060601b1660208201526034810184905260009060540160408051808303601f1901815282825280516020918201206000818152600590925291812080546001600160a01b0319166001600160a01b038a1617905590925082917fb5e6e01e79f91267dc17b4e6314d5d4d03593d2ceee0fbb452b750bd70ea5af99190a2600254604051630200057560e51b81526001600160a01b0390911690634000aea0906124ba908890879087906004016131ee565b6020604051808303816000875af11580156124d9573d6000803e3d6000fd5b505050506040513d601f19601f820116820180604052508101906124fd9190613116565b611c3f5760405162461bcd60e51b815260206004820152602360248201527f756e61626c6520746f207472616e73666572416e6443616c6c20746f206f7261604482015262636c6560e81b6064820152608401610372565b608083015161256490836123e0565b6080830151611c65908261270d565b60408051808201909152606081526000602082015261259360208361321e565b156125bb576125a360208361321e565b6125ae906020612eea565b6125b89083612fa2565b91505b506020828101829052604080518085526000815290920101905290565b6017816001600160401b0316116125fc57611b778360e0600585901b168317612736565b60ff816001600160401b03161161263857612622836018611fe0600586901b1617612736565b50611b77836001600160401b038316600161275b565b61ffff816001600160401b0316116126755761265f836019611fe0600586901b1617612736565b50611b77836001600160401b038316600261275b565b63ffffffff816001600160401b0316116126b45761269e83601a611fe0600586901b1617612736565b50611b77836001600160401b038316600461275b565b6126c983601b611fe0600586901b1617612736565b50611b77836001600160401b038316600861275b565b60408051808201909152606081526000602082015261270683846000015151848551612781565b9392505050565b6001600160401b0381111561272a57612726828261286b565b5050565b612726826000836125d8565b60408051808201909152606081526000602082015261270683846000015151846128a2565b604080518082019091526060815260006020820152611c3f8485600001515185856128fd565b60408051808201909152606081526000602082015282518211156127a457600080fd5b60208501516127b38386612fa2565b11156127e6576127e6856127d6876020015187866127d19190612fa2565b61297e565b6127e19060026130bc565b612995565b6000808651805187602083010193508088870111156128055787860182525b505050602084015b602084106128455780518252612824602083612fa2565b9150612831602082612fa2565b905061283e602085612eea565b935061280d565b51815160001960208690036101000a019081169019919091161790525083949350505050565b6128768260c2612736565b50612726828260405160200161288e91815260200190565b6040516020818303038152906040526129ac565b604080518082019091526060815260006020820152836020015183106128d7576128d784856020015160026127e191906130bc565b83518051602085830101848153508085036128f3576001810182525b5093949350505050565b60408051808201909152606081526000602082015260208501516129218584612fa2565b111561293557612935856127d68685612fa2565b6000600161294584610100613316565b61294f9190612eea565b90508551838682010185831982511617815250805184870111156129735783860181525b509495945050505050565b60008183111561298f575081611c1d565b50919050565b81516129a18383612573565b50611b7783826126df565b6123ed82600283516125d8565b5080546129c590612f13565b6000825580601f106129d5575050565b601f01602090049060005260206000209081019061178c9190612a2e565b6040805160a0810182526000808252602080830182905282840182905260608084018390528451808601909552845283015290608082015290565b5b80821115612a435760008155600101612a2f565b5090565b80356001600160a01b0381168114612a5e57600080fd5b919050565b600060208284031215612a7557600080fd5b61270682612a47565b634e487b7160e01b600052604160045260246000fd5b600082601f830112612aa557600080fd5b81356001600160401b0380821115612abf57612abf612a7e565b604051601f8301601f19908116603f01168101908282118183101715612ae757612ae7612a7e565b81604052838152866020858801011115612b0057600080fd5b836020870160208301376000602085830101528094505050505092915050565b600060208284031215612b3257600080fd5b81356001600160401b03811115612b4857600080fd5b611c3f84828501612a94565b60008060408385031215612b6757600080fd5b612b7083612a47565b915060208301356001600160401b03811115612b8b57600080fd5b612b9785828601612a94565b9150509250929050565b60005b83811015612bbc578181015183820152602001612ba4565b50506000910152565b60008151808452612bdd816020860160208601612ba1565b601f01601f19169290920160200192915050565b60006020808352606080840185511515838601528286015160408060408801528282518085526080945060808901915060808160051b8a0101878501945060005b82811015612cff578a8203607f190184528551805115158352610140818b015160ff8116858d0152508682015187850152898201518a850152888201518985015260a080830151818601525060c0808301518282870152612c9583870182612bc5565b9250505060e08083015185830382870152612cb08382612bc5565b925050506101008083015185830382870152612ccc8382612bc5565b925050506101208083015192508482038186015250612ceb8183612bc5565b978b0197958b019593505050600101612c32565b509a9950505050505050505050565b801515811461178c57600080fd5b60008060408385031215612d2f57600080fd5b823591506020830135612d4181612d0e565b809150509250929050565b600080600060608486031215612d6157600080fd5b8335925060208401356001600160401b0380821115612d7f57600080fd5b612d8b87838801612a94565b93506040860135915080821115612da157600080fd5b50612dae86828701612a94565b9150509250925092565b600080600080600060a08688031215612dd057600080fd5b8535612ddb81612d0e565b9450602086013593506040860135925060608601356001600160401b0380821115612e0557600080fd5b612e1189838a01612a94565b93506080880135915080821115612e2757600080fd5b50612e3488828901612a94565b9150509295509295909350565b60008060008060808587031215612e5757600080fd5b843593506020850135925060408501356001600160e01b031981168114612e7d57600080fd5b9396929550929360600135925050565b60008251612e9f818460208701612ba1565b9190910192915050565b6020808252601190820152701c1c9bda9958dd081b9bdd08199bdd5b99607a1b604082015260600190565b634e487b7160e01b600052601160045260246000fd5b81810381811115611c1d57611c1d612ed4565b634e487b7160e01b600052603260045260246000fd5b600181811c90821680612f2757607f821691505b60208210810361298f57634e487b7160e01b600052602260045260246000fd5b60208082526028908201527f536f75726365206d75737420626520746865206f7261636c65206f6620746865604082015267081c995c5d595cdd60c21b606082015260800190565b6020815260006127066020830184612bc5565b80820180821115611c1d57611c1d612ed4565b601f821115611c65576000816000526020600020601f850160051c81016020861015612fde5750805b601f850160051c820191505b8181101561159557828155600101612fea565b81516001600160401b0381111561301657613016612a7e565b61302a816130248454612f13565b84612fb5565b602080601f83116001811461305f57600084156130475750858301515b600019600386901b1c1916600185901b178555611595565b600085815260208120601f198616915b8281101561308e5788860151825594840194600190910190840161306f565b50858210156130ac5787850151600019600388901b60f8161c191681555b5050505050600190811b01905550565b8082028115828204841417611c1d57611c1d612ed4565b634e487b7160e01b600052601260045260246000fd5b6000826130f8576130f86130d3565b500490565b60006020828403121561310f57600080fd5b5051919050565b60006020828403121561312857600080fd5b815161270681612d0e565b60008351613145818460208801612ba1565b601d60f91b9083019081528351613163816001840160208801612ba1565b01600101949350505050565b6001600160a01b0389811682526020820189905260408201889052861660608201526001600160e01b03198516608082015260a0810184905260c0810183905261010060e082018190526000906131c883820185612bc5565b9b9a5050505050505050505050565b6000816131e6576131e6612ed4565b506000190190565b60018060a01b03841681528260208201526060604082015260006132156060830184612bc5565b95945050505050565b60008261322d5761322d6130d3565b500690565b600181815b8085111561326d57816000190482111561325357613253612ed4565b8085161561326057918102915b93841c9390800290613237565b509250929050565b60008261328457506001611c1d565b8161329157506000611c1d565b81600181146132a757600281146132b1576132cd565b6001915050611c1d565b60ff8411156132c2576132c2612ed4565b50506001821b611c1d565b5060208310610133831016604e8410600b84101617156132f0575081810a611c1d565b6132fa8383613232565b806000190482111561330e5761330e612ed4565b029392505050565b6000612706838361327556fea2646970667358221220a5b09a0cc5753eef9f2d77f6eda7cf9737e6734759f425abfad82ea7931a987f64736f6c63430008190033","linkReferences":{}},"methodIdentifiers":{"acceptOwnership()":"79ba5097","cancelRequest(bytes32,uint256,bytes4,uint256)":"ec65d0f8","fulfillConfirmData(bytes32,bool)":"50c9230d","fulfillDisperseData(bytes32,string,string)":"5adf4718","getChainlinkToken()":"165d35e1","getUserDetail(address)":"4a48c84b","owner()":"8da5cb5b","projectIndex(string)":"3178c814","projectVerifier()":"626e5f94","requestConfirmData(address,string)":"5c734115","requestInitialDispersal(bool,uint256,uint256,string,string)":"74bae7d9","requestRedispersal(address,string)":"aa4f0fc3","setProjectVerifier(address)":"114bd73b","transferOwnership(address)":"f2fde38b","unwhitelistUser(address)":"565ae273","updateProjectState(address,string)":"34f10858","userDetails(address)":"48dec2a7","whitelistUser(address)":"4a4c560d","withdrawLink()":"8dc654a2"},"id":70}