{"abi":[{"type":"constructor","inputs":[{"name":"owner","type":"address","internalType":"address"}],"stateMutability":"nonpayable"},{"type":"function","name":"DEFAULT_ADMIN_ROLE","inputs":[],"outputs":[{"name":"","type":"bytes32","internalType":"bytes32"}],"stateMutability":"view"},{"type":"function","name":"SETTER_ROLE","inputs":[],"outputs":[{"name":"","type":"bytes32","internalType":"bytes32"}],"stateMutability":"view"},{"type":"function","name":"getRoleAdmin","inputs":[{"name":"role","type":"bytes32","internalType":"bytes32"}],"outputs":[{"name":"","type":"bytes32","internalType":"bytes32"}],"stateMutability":"view"},{"type":"function","name":"grantRole","inputs":[{"name":"role","type":"bytes32","internalType":"bytes32"},{"name":"account","type":"address","internalType":"address"}],"outputs":[],"stateMutability":"nonpayable"},{"type":"function","name":"grantSetterRole","inputs":[{"name":"_setter","type":"address","internalType":"address"}],"outputs":[],"stateMutability":"nonpayable"},{"type":"function","name":"hasRole","inputs":[{"name":"role","type":"bytes32","internalType":"bytes32"},{"name":"account","type":"address","internalType":"address"}],"outputs":[{"name":"","type":"bool","internalType":"bool"}],"stateMutability":"view"},{"type":"function","name":"projects","inputs":[{"name":"","type":"string","internalType":"string"}],"outputs":[{"name":"","type":"bool","internalType":"bool"}],"stateMutability":"view"},{"type":"function","name":"readProjectStorageProof","inputs":[{"name":"projectID","type":"string","internalType":"string"}],"outputs":[{"name":"","type":"tuple","internalType":"struct IProjectStorageVerifier.FullStore","components":[{"name":"exists","type":"bool","internalType":"bool"},{"name":"storageDetail","type":"tuple","internalType":"struct IBlobVerifier.StorageDetail","components":[{"name":"lastUpdatedTimestamp","type":"uint256","internalType":"uint256"},{"name":"blobHeader","type":"tuple","internalType":"struct IBlobVerifier.ModifiedBlobHeader","components":[{"name":"commitment","type":"tuple","internalType":"struct BN254.G1Point","components":[{"name":"X","type":"uint256","internalType":"uint256"},{"name":"Y","type":"uint256","internalType":"uint256"}]},{"name":"dataLength","type":"uint32","internalType":"uint32"},{"name":"batchHeaderHash","type":"bytes32","internalType":"bytes32"},{"name":"quorumNumbers","type":"uint8[]","internalType":"uint8[]"},{"name":"adversaryThresholdPercentages","type":"uint8[]","internalType":"uint8[]"},{"name":"confirmationThresholdPercentages","type":"uint8[]","internalType":"uint8[]"},{"name":"chunkLengths","type":"uint32[]","internalType":"uint32[]"}]},{"name":"blobVerificationProof","type":"tuple","internalType":"struct EigenDARollupUtils.BlobVerificationProof","components":[{"name":"batchId","type":"uint32","internalType":"uint32"},{"name":"blobIndex","type":"uint32","internalType":"uint32"},{"name":"batchMetadata","type":"tuple","internalType":"struct IEigenDAServiceManager.BatchMetadata","components":[{"name":"batchHeader","type":"tuple","internalType":"struct IEigenDAServiceManager.BatchHeader","components":[{"name":"blobHeadersRoot","type":"bytes32","internalType":"bytes32"},{"name":"quorumNumbers","type":"bytes","internalType":"bytes"},{"name":"signedStakeForQuorums","type":"bytes","internalType":"bytes"},{"name":"referenceBlockNumber","type":"uint32","internalType":"uint32"}]},{"name":"signatoryRecordHash","type":"bytes32","internalType":"bytes32"},{"name":"confirmationBlockNumber","type":"uint32","internalType":"uint32"}]},{"name":"inclusionProof","type":"bytes","internalType":"bytes"},{"name":"quorumIndices","type":"bytes","internalType":"bytes"}]}]}]}],"stateMutability":"view"},{"type":"function","name":"readStorageDetail","inputs":[{"name":"id","type":"string","internalType":"string"}],"outputs":[{"name":"","type":"tuple","internalType":"struct IBlobVerifier.StorageDetail","components":[{"name":"lastUpdatedTimestamp","type":"uint256","internalType":"uint256"},{"name":"blobHeader","type":"tuple","internalType":"struct IBlobVerifier.ModifiedBlobHeader","components":[{"name":"commitment","type":"tuple","internalType":"struct BN254.G1Point","components":[{"name":"X","type":"uint256","internalType":"uint256"},{"name":"Y","type":"uint256","internalType":"uint256"}]},{"name":"dataLength","type":"uint32","internalType":"uint32"},{"name":"batchHeaderHash","type":"bytes32","internalType":"bytes32"},{"name":"quorumNumbers","type":"uint8[]","internalType":"uint8[]"},{"name":"adversaryThresholdPercentages","type":"uint8[]","internalType":"uint8[]"},{"name":"confirmationThresholdPercentages","type":"uint8[]","internalType":"uint8[]"},{"name":"chunkLengths","type":"uint32[]","internalType":"uint32[]"}]},{"name":"blobVerificationProof","type":"tuple","internalType":"struct EigenDARollupUtils.BlobVerificationProof","components":[{"name":"batchId","type":"uint32","internalType":"uint32"},{"name":"blobIndex","type":"uint32","internalType":"uint32"},{"name":"batchMetadata","type":"tuple","internalType":"struct IEigenDAServiceManager.BatchMetadata","components":[{"name":"batchHeader","type":"tuple","internalType":"struct IEigenDAServiceManager.BatchHeader","components":[{"name":"blobHeadersRoot","type":"bytes32","internalType":"bytes32"},{"name":"quorumNumbers","type":"bytes","internalType":"bytes"},{"name":"signedStakeForQuorums","type":"bytes","internalType":"bytes"},{"name":"referenceBlockNumber","type":"uint32","internalType":"uint32"}]},{"name":"signatoryRecordHash","type":"bytes32","internalType":"bytes32"},{"name":"confirmationBlockNumber","type":"uint32","internalType":"uint32"}]},{"name":"inclusionProof","type":"bytes","internalType":"bytes"},{"name":"quorumIndices","type":"bytes","internalType":"bytes"}]}]}],"stateMutability":"view"},{"type":"function","name":"renounceRole","inputs":[{"name":"role","type":"bytes32","internalType":"bytes32"},{"name":"callerConfirmation","type":"address","internalType":"address"}],"outputs":[],"stateMutability":"nonpayable"},{"type":"function","name":"revokeRole","inputs":[{"name":"role","type":"bytes32","internalType":"bytes32"},{"name":"account","type":"address","internalType":"address"}],"outputs":[],"stateMutability":"nonpayable"},{"type":"function","name":"setStorageDetail","inputs":[{"name":"_blobHeader","type":"tuple","internalType":"struct IBlobVerifier.ModifiedBlobHeader","components":[{"name":"commitment","type":"tuple","internalType":"struct BN254.G1Point","components":[{"name":"X","type":"uint256","internalType":"uint256"},{"name":"Y","type":"uint256","internalType":"uint256"}]},{"name":"dataLength","type":"uint32","internalType":"uint32"},{"name":"batchHeaderHash","type":"bytes32","internalType":"bytes32"},{"name":"quorumNumbers","type":"uint8[]","internalType":"uint8[]"},{"name":"adversaryThresholdPercentages","type":"uint8[]","internalType":"uint8[]"},{"name":"confirmationThresholdPercentages","type":"uint8[]","internalType":"uint8[]"},{"name":"chunkLengths","type":"uint32[]","internalType":"uint32[]"}]},{"name":"_blobVerificationProof","type":"tuple","internalType":"struct EigenDARollupUtils.BlobVerificationProof","components":[{"name":"batchId","type":"uint32","internalType":"uint32"},{"name":"blobIndex","type":"uint32","internalType":"uint32"},{"name":"batchMetadata","type":"tuple","internalType":"struct IEigenDAServiceManager.BatchMetadata","components":[{"name":"batchHeader","type":"tuple","internalType":"struct IEigenDAServiceManager.BatchHeader","components":[{"name":"blobHeadersRoot","type":"bytes32","internalType":"bytes32"},{"name":"quorumNumbers","type":"bytes","internalType":"bytes"},{"name":"signedStakeForQuorums","type":"bytes","internalType":"bytes"},{"name":"referenceBlockNumber","type":"uint32","internalType":"uint32"}]},{"name":"signatoryRecordHash","type":"bytes32","internalType":"bytes32"},{"name":"confirmationBlockNumber","type":"uint32","internalType":"uint32"}]},{"name":"inclusionProof","type":"bytes","internalType":"bytes"},{"name":"quorumIndices","type":"bytes","internalType":"bytes"}]},{"name":"id","type":"string","internalType":"string"}],"outputs":[],"stateMutability":"nonpayable"},{"type":"function","name":"supportsInterface","inputs":[{"name":"interfaceId","type":"bytes4","internalType":"bytes4"}],"outputs":[{"name":"","type":"bool","internalType":"bool"}],"stateMutability":"view"},{"type":"function","name":"uploadProjectStorageProof","inputs":[{"name":"projectID","type":"string","internalType":"string"},{"name":"_blobHeader","type":"tuple","internalType":"struct IBlobVerifier.ModifiedBlobHeader","components":[{"name":"commitment","type":"tuple","internalType":"struct BN254.G1Point","components":[{"name":"X","type":"uint256","internalType":"uint256"},{"name":"Y","type":"uint256","internalType":"uint256"}]},{"name":"dataLength","type":"uint32","internalType":"uint32"},{"name":"batchHeaderHash","type":"bytes32","internalType":"bytes32"},{"name":"quorumNumbers","type":"uint8[]","internalType":"uint8[]"},{"name":"adversaryThresholdPercentages","type":"uint8[]","internalType":"uint8[]"},{"name":"confirmationThresholdPercentages","type":"uint8[]","internalType":"uint8[]"},{"name":"chunkLengths","type":"uint32[]","internalType":"uint32[]"}]},{"name":"_blobVerificationProof","type":"tuple","internalType":"struct EigenDARollupUtils.BlobVerificationProof","components":[{"name":"batchId","type":"uint32","internalType":"uint32"},{"name":"blobIndex","type":"uint32","internalType":"uint32"},{"name":"batchMetadata","type":"tuple","internalType":"struct IEigenDAServiceManager.BatchMetadata","components":[{"name":"batchHeader","type":"tuple","internalType":"struct IEigenDAServiceManager.BatchHeader","components":[{"name":"blobHeadersRoot","type":"bytes32","internalType":"bytes32"},{"name":"quorumNumbers","type":"bytes","internalType":"bytes"},{"name":"signedStakeForQuorums","type":"bytes","internalType":"bytes"},{"name":"referenceBlockNumber","type":"uint32","internalType":"uint32"}]},{"name":"signatoryRecordHash","type":"bytes32","internalType":"bytes32"},{"name":"confirmationBlockNumber","type":"uint32","internalType":"uint32"}]},{"name":"inclusionProof","type":"bytes","internalType":"bytes"},{"name":"quorumIndices","type":"bytes","internalType":"bytes"}]}],"outputs":[],"stateMutability":"nonpayable"},{"type":"function","name":"verifyAttestation","inputs":[{"name":"id","type":"string","internalType":"string"}],"outputs":[],"stateMutability":"view"},{"type":"function","name":"verifyProjectStorageProof","inputs":[{"name":"projectID","type":"string","internalType":"string"}],"outputs":[],"stateMutability":"view"},{"type":"event","name":"RoleAdminChanged","inputs":[{"name":"role","type":"bytes32","indexed":true,"internalType":"bytes32"},{"name":"previousAdminRole","type":"bytes32","indexed":true,"internalType":"bytes32"},{"name":"newAdminRole","type":"bytes32","indexed":true,"internalType":"bytes32"}],"anonymous":false},{"type":"event","name":"RoleGranted","inputs":[{"name":"role","type":"bytes32","indexed":true,"internalType":"bytes32"},{"name":"account","type":"address","indexed":true,"internalType":"address"},{"name":"sender","type":"address","indexed":true,"internalType":"address"}],"anonymous":false},{"type":"event","name":"RoleRevoked","inputs":[{"name":"role","type":"bytes32","indexed":true,"internalType":"bytes32"},{"name":"account","type":"address","indexed":true,"internalType":"address"},{"name":"sender","type":"address","indexed":true,"internalType":"address"}],"anonymous":false},{"type":"error","name":"AccessControlBadConfirmation","inputs":[]},{"type":"error","name":"AccessControlUnauthorizedAccount","inputs":[{"name":"account","type":"address","internalType":"address"},{"name":"neededRole","type":"bytes32","internalType":"bytes32"}]}],"bytecode":{"object":"0x608060405234801561001057600080fd5b50604051612e72380380612e7283398101604081905261002f916100ef565b8061003b600082610043565b50505061011f565b6000828152602081815260408083206001600160a01b038516845290915281205460ff166100e5576000838152602081815260408083206001600160a01b03861684529091529020805460ff1916600117905561009d3390565b6001600160a01b0316826001600160a01b0316847f2f8788117e7eff1d82e926ec794901d17c78024a50270940304540a733656f0d60405160405180910390a45060016100e9565b5060005b92915050565b60006020828403121561010157600080fd5b81516001600160a01b038116811461011857600080fd5b9392505050565b612d448061012e6000396000f3fe608060405234801561001057600080fd5b50600436106101005760003560e01c80637718574211610097578063a2011b3f11610066578063a2011b3f14610246578063a217fddf1461025b578063d547741f14610263578063ebe5d25c1461027657600080fd5b806377185742146101d257806391c9b268146101e557806391d1485414610213578063a02056f91461022657600080fd5b806340420ee6116100d357806340420ee614610186578063557ad663146101995780636c47c552146101ac5780637248f2b4146101bf57600080fd5b806301ffc9a714610105578063248a9ca31461012d5780632f2ff15d1461015e57806336568abe14610173575b600080fd5b6101186101133660046118e0565b610296565b60405190151581526020015b60405180910390f35b61015061013b366004611911565b60009081526020819052604090206001015490565b604051908152602001610124565b61017161016c366004611946565b6102cd565b005b610171610181366004611946565b6102f8565b6101716101943660046119e5565b610330565b6101716101a7366004611a72565b61038f565b6101716101ba366004611c27565b610676565b6101716101cd366004611c27565b610706565b6101716101e0366004611c77565b610ed8565b6101186101f3366004611c27565b805160208183018101805160038252928201919093012091525460ff1681565b610118610221366004611946565b610efb565b610239610234366004611c92565b610f24565b6040516101249190611f42565b610150600080516020612cef83398151915281565b610150600081565b610171610271366004611946565b6114e7565b610289610284366004611c92565b61150c565b6040516101249190611f55565b60006001600160e01b03198216637965db0b60e01b14806102c757506301ffc9a760e01b6001600160e01b03198316145b92915050565b6000828152602081905260409020600101546102e88161155d565b6102f28383611567565b50505050565b6001600160a01b03811633146103215760405163334bd91960e11b815260040160405180910390fd5b61032b82826115f9565b505050565b600080516020612cef8339815191526103488161155d565b6103548383878761038f565b600160038686604051610368929190611f7c565b908152604051908190036020019020805491151560ff199092169190911790555050505050565b600080516020612cef8339815191526103a78161155d565b6000600284846040516103bb929190611f7c565b9081526020016040518091039020549050806000036105f557600180546103e191611fa2565b905080600285856040516103f6929190611f7c565b908152602001604051809103902081905550600160405180606001604052804281526020018861042590612132565b81526020016104338861230e565b905281546001808201845560009384526020938490208351601290930201918255828401518051805192840192835585015160028401558085015160038401805463ffffffff191663ffffffff90921691909117905560408101516004840155606081015180519495939491936104b2926005870192909101906116a1565b50608082015180516104ce9160058401916020909101906116a1565b5060a082015180516104ea9160068401916020909101906116a1565b5060c08201518051610506916007840191602090910190611747565b505050604082810151805160098401805460208085015163ffffffff9081166401000000000267ffffffffffffffff199093169416939093171781559282015180518051600a8701908155928101519394939192918290600b88019061056c908261245f565b5060408201516002820190610581908261245f565b50606091820151600391909101805463ffffffff1990811663ffffffff93841617909155602085015160048501556040909401516005909301805490941692169190911790915582015160078201906105da908261245f565b50608082015160088201906105ef908261245f565b50505050505b856001610602818461251c565b815481106106125761061261252f565b9060005260206000209060120201600101818161062f919061276f565b50859050600161063f818461251c565b8154811061064f5761064f61252f565b9060005260206000209060120201600901818161066c9190612a04565b5050505050505050565b6003816040516106869190612c05565b9081526040519081900360200190205460ff166106fa5760405162461bcd60e51b815260206004820152602760248201527f50726f6a65637453746f7261676556657269666965723a20696e76616c6964206044820152661c1c9bda9958dd60ca1b60648201526084015b60405180910390fd5b61070381610706565b50565b60006002826040516107189190612c05565b9081526020016040518091039020549050600081116107745760405162461bcd60e51b8152602060048201526018602482015277109b1bd895995c9a599a595c8e881a5b9d985b1a59081a5960421b60448201526064016106f1565b60006001610782818461251c565b815481106107925761079261252f565b6000918252602091829020604080516060808201835260129094029092018054835281516101208101835260018201805460e0830190815260028401546101008401528252600383015463ffffffff16828801526004830154828501526005830180548551818a0281018a01909652808652959793968885019693959294908601939083018282801561086257602002820191906000526020600020906000905b825461010083900a900460ff168152602060019283018181049485019490930390920291018084116108335790505b50505050508152602001600582018054806020026020016040519081016040528092919081815260200182805480156108d857602002820191906000526020600020906000905b825461010083900a900460ff168152602060019283018181049485019490930390920291018084116108a95790505b505050505081526020016006820180548060200260200160405190810160405280929190818152602001828054801561094e57602002820191906000526020600020906000905b825461010083900a900460ff1681526020600192830181810494850194909303909202910180841161091f5790505b50505050508152602001600782018054806020026020016040519081016040528092919081815260200182805480156109d257602002820191906000526020600020906000905b82829054906101000a900463ffffffff1663ffffffff16815260200190600401906020826003010492830192600103820291508084116109955790505b5050509190925250505081526040805160a08101825260098401805463ffffffff808216845264010000000090910416602083810191909152835160e081018552600a8701805460608301908152600b890180549490980197959694959487019492939192849284916080850191610a49906123c1565b80601f0160208091040260200160405190810160405280929190818152602001828054610a75906123c1565b8015610ac25780601f10610a9757610100808354040283529160200191610ac2565b820191906000526020600020905b815481529060010190602001808311610aa557829003601f168201915b50505050508152602001600282018054610adb906123c1565b80601f0160208091040260200160405190810160405280929190818152602001828054610b07906123c1565b8015610b545780601f10610b2957610100808354040283529160200191610b54565b820191906000526020600020905b815481529060010190602001808311610b3757829003601f168201915b50505091835250506003919091015463ffffffff908116602092830152918352600484015483820152600590930154166040909101529082526007830180549290910191610ba1906123c1565b80601f0160208091040260200160405190810160405280929190818152602001828054610bcd906123c1565b8015610c1a5780601f10610bef57610100808354040283529160200191610c1a565b820191906000526020600020905b815481529060010190602001808311610bfd57829003601f168201915b50505050508152602001600882018054610c33906123c1565b80601f0160208091040260200160405190810160405280929190818152602001828054610c5f906123c1565b8015610cac5780601f10610c8157610100808354040283529160200191610cac565b820191906000526020600020905b815481529060010190602001808311610c8f57829003601f168201915b505050505081525050815250509050600073d4a7e1bd8015057293f0d0a557088c286942e84b90506000826020015160600151516001600160401b03811115610cf757610cf7611afc565b604051908082528060200260200182016040528015610d4957816020015b604080516080810182526000808252602080830182905292820181905260608201528252600019909201910181610d155790505b50905060005b83602001516060015151811015610e395760405180608001604052808560200151606001518381518110610d8557610d8561252f565b602002602001015160ff1681526020018560200151608001518381518110610daf57610daf61252f565b602002602001015160ff168152602001856020015160a001518381518110610dd957610dd961252f565b602002602001015160ff168152602001856020015160c001518381518110610e0357610e0361252f565b602002602001015163ffffffff16815250828281518110610e2657610e2661252f565b6020908102919091010152600101610d4f565b5060408051606081018252602080860180515183525181015163ffffffff169082015280820183905284820151915163219460e160e21b8152909173__$399f9ce8dd33a06d144ce1eb24d845e280$__91638651838491610ea09185918891600401612c21565b60006040518083038186803b158015610eb857600080fd5b505af4158015610ecc573d6000803e3d6000fd5b50505050505050505050565b6000610ee38161155d565b61032b600080516020612cef83398151915283611567565b6000918252602082815260408084206001600160a01b0393909316845291905290205460ff1690565b610f2c6117e4565b600060028484604051610f40929190611f7c565b908152602001604051809103902054905060008111610f9c5760405162461bcd60e51b8152602060048201526018602482015277109b1bd895995c9a599a595c8e881a5b9d985b1a59081a5960421b60448201526064016106f1565b6001610fa8818361251c565b81548110610fb857610fb861252f565b6000918252602091829020604080516060808201835260129094029092018054835281516101208101835260018201805460e0830190815260028401546101008401528252600383015463ffffffff16828801526004830154828501526005830180548551818a0281018a01909652808652959793968885019693959294908601939083018282801561108857602002820191906000526020600020906000905b825461010083900a900460ff168152602060019283018181049485019490930390920291018084116110595790505b50505050508152602001600582018054806020026020016040519081016040528092919081815260200182805480156110fe57602002820191906000526020600020906000905b825461010083900a900460ff168152602060019283018181049485019490930390920291018084116110cf5790505b505050505081526020016006820180548060200260200160405190810160405280929190818152602001828054801561117457602002820191906000526020600020906000905b825461010083900a900460ff168152602060019283018181049485019490930390920291018084116111455790505b50505050508152602001600782018054806020026020016040519081016040528092919081815260200182805480156111f857602002820191906000526020600020906000905b82829054906101000a900463ffffffff1663ffffffff16815260200190600401906020826003010492830192600103820291508084116111bb5790505b5050509190925250505081526040805160a08101825260098401805463ffffffff808216845264010000000090910416602083810191909152835160e081018552600a8701805460608301908152600b89018054949098019795969495948701949293919284928491608085019161126f906123c1565b80601f016020809104026020016040519081016040528092919081815260200182805461129b906123c1565b80156112e85780601f106112bd576101008083540402835291602001916112e8565b820191906000526020600020905b8154815290600101906020018083116112cb57829003601f168201915b50505050508152602001600282018054611301906123c1565b80601f016020809104026020016040519081016040528092919081815260200182805461132d906123c1565b801561137a5780601f1061134f5761010080835404028352916020019161137a565b820191906000526020600020905b81548152906001019060200180831161135d57829003601f168201915b50505091835250506003919091015463ffffffff9081166020928301529183526004840154838201526005909301541660409091015290825260078301805492909101916113c7906123c1565b80601f01602080910402602001604051908101604052809291908181526020018280546113f3906123c1565b80156114405780601f1061141557610100808354040283529160200191611440565b820191906000526020600020905b81548152906001019060200180831161142357829003601f168201915b50505050508152602001600882018054611459906123c1565b80601f0160208091040260200160405190810160405280929190818152602001828054611485906123c1565b80156114d25780601f106114a7576101008083540402835291602001916114d2565b820191906000526020600020905b8154815290600101906020018083116114b557829003601f168201915b50505091909252505050905250949350505050565b6000828152602081905260409020600101546115028161155d565b6102f283836115f9565b6115146118af565b604051806040016040528060038585604051611531929190611f7c565b908152604051602091819003820190205460ff1615158252016115548585610f24565b90529392505050565b6107038133611664565b60006115738383610efb565b6115f1576000838152602081815260408083206001600160a01b03861684529091529020805460ff191660011790556115a93390565b6001600160a01b0316826001600160a01b0316847f2f8788117e7eff1d82e926ec794901d17c78024a50270940304540a733656f0d60405160405180910390a45060016102c7565b5060006102c7565b60006116058383610efb565b156115f1576000838152602081815260408083206001600160a01b0386168085529252808320805460ff1916905551339286917ff6391f5c32d9c69d2a47ea670b442974b53935d1edc7fd64eb21e047a839171b9190a45060016102c7565b61166e8282610efb565b61169d5760405163e2517d3f60e01b81526001600160a01b0382166004820152602481018390526044016106f1565b5050565b82805482825590600052602060002090601f016020900481019282156117375791602002820160005b8382111561170857835183826101000a81548160ff021916908360ff16021790555092602001926001016020816000010492830192600103026116ca565b80156117355782816101000a81549060ff0219169055600101602081600001049283019260010302611708565b505b506117439291506118cb565b5090565b828054828255906000526020600020906007016008900481019282156117375791602002820160005b838211156117b457835183826101000a81548163ffffffff021916908363ffffffff1602179055509260200192600401602081600301049283019260010302611770565b80156117355782816101000a81549063ffffffff02191690556004016020816003010492830192600103026117b4565b6040518060600160405280600081526020016118436040805161012081018252600060e0820181815261010083018290528252602082018190529181019190915260608082018190526080820181905260a0820181905260c082015290565b81526020016118aa6040805160a0808201835260008083526020808401829052845160e0810186526060808201848152608083018290529482015260c081018390529283528201819052818401529091820190815260200160608152602001606081525090565b905290565b60405180604001604052806000151581526020016118aa6117e4565b5b8082111561174357600081556001016118cc565b6000602082840312156118f257600080fd5b81356001600160e01b03198116811461190a57600080fd5b9392505050565b60006020828403121561192357600080fd5b5035919050565b80356001600160a01b038116811461194157600080fd5b919050565b6000806040838503121561195957600080fd5b823591506119696020840161192a565b90509250929050565b60008083601f84011261198457600080fd5b5081356001600160401b0381111561199b57600080fd5b6020830191508360208285010111156119b357600080fd5b9250929050565b600061010082840312156119cd57600080fd5b50919050565b600060a082840312156119cd57600080fd5b600080600080606085870312156119fb57600080fd5b84356001600160401b0380821115611a1257600080fd5b611a1e88838901611972565b90965094506020870135915080821115611a3757600080fd5b611a43888389016119ba565b93506040870135915080821115611a5957600080fd5b50611a66878288016119d3565b91505092959194509250565b60008060008060608587031215611a8857600080fd5b84356001600160401b0380821115611a9f57600080fd5b611aab888389016119ba565b95506020870135915080821115611ac157600080fd5b611acd888389016119d3565b94506040870135915080821115611ae357600080fd5b50611af087828801611972565b95989497509550505050565b634e487b7160e01b600052604160045260246000fd5b60405160e081016001600160401b0381118282101715611b3457611b34611afc565b60405290565b604051606081016001600160401b0381118282101715611b3457611b34611afc565b604051608081016001600160401b0381118282101715611b3457611b34611afc565b60405160a081016001600160401b0381118282101715611b3457611b34611afc565b604051601f8201601f191681016001600160401b0381118282101715611bc857611bc8611afc565b604052919050565b60006001600160401b03831115611be957611be9611afc565b611bfc601f8401601f1916602001611ba0565b9050828152838383011115611c1057600080fd5b828260208301376000602084830101529392505050565b600060208284031215611c3957600080fd5b81356001600160401b03811115611c4f57600080fd5b8201601f81018413611c6057600080fd5b611c6f84823560208401611bd0565b949350505050565b600060208284031215611c8957600080fd5b61190a8261192a565b60008060208385031215611ca557600080fd5b82356001600160401b03811115611cbb57600080fd5b611cc785828601611972565b90969095509350505050565b60008151808452602080850194506020840160005b83811015611d0757815160ff1687529582019590820190600101611ce8565b509495945050505050565b60008151808452602080850194506020840160005b83811015611d0757815163ffffffff1687529582019590820190600101611d27565b60005b83811015611d64578181015183820152602001611d4c565b50506000910152565b60008151808452611d85816020860160208601611d49565b601f01601f19169290920160200192915050565b600063ffffffff808351168452806020840151166020850152604083015160a060408601528051606060a0870152805161010087015260208101516080610120880152611dea610180880182611d6d565b9050604082015160ff1988830301610140890152611e088282611d6d565b91505083606083015116610160880152602083015160c08801528360408401511660e0880152606086015193508681036060880152611e478185611d6d565b935050505060808301518482036080860152611e638282611d6d565b95945050505050565b805182526000602082015160606020850152611e9660608501825180518252602090810151910152565b63ffffffff60208201511660a0850152604081015160c085015260608101516101008060e0870152611ecc610160870183611cd3565b91506080830151605f19808885030183890152611ee98483611cd3565b935060a085015192508088850301610120890152611f078484611cd3565b935060c085015194508088850301610140890152505050611f288183611d12565b91505060408301518482036040860152611e638282611d99565b60208152600061190a6020830184611e6c565b6020815281511515602082015260006020830151604080840152611c6f6060840182611e6c565b8183823760009101908152919050565b634e487b7160e01b600052601160045260246000fd5b808201808211156102c7576102c7611f8c565b600060408284031215611fc757600080fd5b604051604081018181106001600160401b0382111715611fe957611fe9611afc565b604052823581526020928301359281019290925250919050565b63ffffffff8116811461070357600080fd5b803561194181612003565b60006001600160401b0382111561203957612039611afc565b5060051b60200190565b60ff8116811461070357600080fd5b600082601f83011261206357600080fd5b8135602061207861207383612020565b611ba0565b8083825260208201915060208460051b87010193508684111561209a57600080fd5b602086015b848110156120bf5780356120b281612043565b835291830191830161209f565b509695505050505050565b600082601f8301126120db57600080fd5b813560206120eb61207383612020565b8083825260208201915060208460051b87010193508684111561210d57600080fd5b602086015b848110156120bf57803561212581612003565b8352918301918301612112565b6000610100823603121561214557600080fd5b61214d611b12565b6121573684611fb5565b815261216560408401612015565b60208201526060830135604082015260808301356001600160401b038082111561218e57600080fd5b61219a36838701612052565b606084015260a08501359150808211156121b357600080fd5b6121bf36838701612052565b608084015260c08501359150808211156121d857600080fd5b6121e436838701612052565b60a084015260e08501359150808211156121fd57600080fd5b5061220a368286016120ca565b60c08301525092915050565b600082601f83011261222757600080fd5b61190a83833560208501611bd0565b60006060828403121561224857600080fd5b612250611b3a565b905081356001600160401b038082111561226957600080fd5b908301906080828603121561227d57600080fd5b612285611b5c565b8235815260208301358281111561229b57600080fd5b6122a787828601612216565b6020830152506040830135828111156122bf57600080fd5b6122cb87828601612216565b604083015250606083013592506122e183612003565b8260608201528084525050506020820135602082015261230360408301612015565b604082015292915050565b600060a0823603121561232057600080fd5b612328611b7e565b61233183612015565b815261233f60208401612015565b602082015260408301356001600160401b038082111561235e57600080fd5b61236a36838701612236565b6040840152606085013591508082111561238357600080fd5b61238f36838701612216565b606084015260808501359150808211156123a857600080fd5b506123b536828601612216565b60808301525092915050565b600181811c908216806123d557607f821691505b6020821081036119cd57634e487b7160e01b600052602260045260246000fd5b5b8181101561169d57600081556001016123f6565b601f82111561032b57806000526020600020601f840160051c810160208510156124315750805b612443601f850160051c8301826123f5565b5050505050565b600019600383901b1c191660019190911b1790565b81516001600160401b0381111561247857612478611afc565b61248c8161248684546123c1565b8461240a565b602080601f8311600181146124bb57600084156124a95750858301515b6124b3858261244a565b865550612514565b600085815260208120601f198616915b828110156124ea578886015182559484019460019091019084016124cb565b50858210156125085787850151600019600388901b60f8161c191681555b505060018460011b0185555b505050505050565b818103818111156102c7576102c7611f8c565b634e487b7160e01b600052603260045260246000fd5b600081356102c781612003565b6000808335601e1984360301811261256957600080fd5b8301803591506001600160401b0382111561258357600080fd5b6020019150600581901b36038213156119b357600080fd5b600160401b8211156125af576125af611afc565b80548282558083101561032b57816000526020600020601f840160051c8101601f851680156125f5576125f581600019840180546000198360200360031b1c1681555050565b50612443601f840160051c8301826123f5565b600081356102c781612043565b6001600160401b0383111561262c5761262c611afc565b612636838261259b565b60008181526020902082908460051c60005b818110156126a0576000805b60208082106126635750612693565b61268661266f88612608565b60ff908116600385901b90811b91901b1985161790565b9601959150600101612654565b5083820155600101612648565b50601f19861680870381881461066c576000805b828110156126f0576126df6126c888612608565b60ff908116600384901b90811b91901b1984161790565b6020979097019691506001016126b4565b50848401555050505050505050565b600160401b82111561271357612713611afc565b80548282558083101561032b578160005260206000206007840160031c8101601c8560021b16801561275c5761275c81600019840180546000198360200360031b1c1681555050565b506124436007840160031c8301826123f5565b81358155600160208084013560018401556002604085013561279081612003565b60028501805463ffffffff191663ffffffff831617905550606085013560038501556127bf6080860186612552565b6127cd818360048901612615565b50506127dc60a0860186612552565b6127ea818360058901612615565b50506127f960c0860186612552565b612807818360068901612615565b50506007840161281a60e0870187612552565b6001600160401b0381111561283157612831611afc565b61283b81846126ff565b60008381526020902092508060031c60005b818110156128a2576000805b60088110156128965761288961286e87612545565b63ffffffff908116838b1b60031b90811b91901b1984161790565b9589019591508901612859565b5085820155870161284d565b5060071982168083038184146128f8576000805b828110156128f2576128e56128ca88612545565b63ffffffff908116838c1b60031b90811b91901b1984161790565b968a019691508a016128b6565b50868401555b5050505050505050505050565b6000808335601e1984360301811261291c57600080fd5b8301803591506001600160401b0382111561293657600080fd5b6020019150368190038213156119b357600080fd5b6001600160401b0383111561296257612962611afc565b6129768361297083546123c1565b8361240a565b6000601f8411600181146129a457600085156129925750838201355b61299c868261244a565b845550612443565b600083815260209020601f19861690835b828110156129d557868501358255602094850194600190920191016129b5565b50868210156129f25760001960f88860031b161c19848701351681555b505060018560011b0183555050505050565b8135612a0f81612003565b815463ffffffff191663ffffffff821617825550602080830135612a3281612003565b825467ffffffff00000000191690821b67ffffffff00000000161782556001604084013536859003605e19018112612a6957600080fd5b8401803536829003607e19018112612a8057600080fd5b81018035600186015560028501612a9985830183612905565b6001600160401b03811115612ab057612ab0611afc565b612ac481612abe85546123c1565b8561240a565b6000601f821160018114612af25760008315612ae05750838201355b612aea848261244a565b865550612b49565b600085815260209020601f19841690835b82811015612b2057868501358255938b0193908a01908b01612b03565b5084821015612b3d5760001960f88660031b161c19848701351681555b505060018360011b0185555b5050505050612b5b6040820182612905565b9350612b6b84826003890161294b565b50612b96612b7b60608301612545565b6004870163ffffffff821663ffffffff198254161781555050565b50828101356005850155612bca612baf60408301612545565b6006860163ffffffff821663ffffffff198254161781555050565b505050612bda6060830183612905565b612be881836007860161294b565b5050612bf76080830183612905565b6102f281836008860161294b565b60008251612c17818460208701611d49565b9190910192915050565b6060808252845180518383015260200151608083015260009060e0830160208088015163ffffffff80821660a08801526040915060408a015160808060c08a01528582518088526101008b0191508684019750600093505b80841015612cbc578751805160ff908116845288820151811689850152878201511687840152890151851689830152968601966001939093019290820190612c79565b506001600160a01b038c168a87015289810360408b0152612cdd818c611d99565b9d9c5050505050505050505050505056fe61c92169ef077349011ff0b1383c894d86c5f0b41d986366b58a6cf31e93bedaa26469706673582212204ede331da12099e66e8c6beb72662f21819b17a54f005fd1c917e8ceae2f930064736f6c63430008190033","linkReferences":{"lib/eigenda/contracts/src/libraries/EigenDARollupUtils.sol":{"EigenDARollupUtils":[{"start":4004,"length":20}]}}},"methodIdentifiers":{"DEFAULT_ADMIN_ROLE()":"a217fddf","SETTER_ROLE()":"a2011b3f","getRoleAdmin(bytes32)":"248a9ca3","grantRole(bytes32,address)":"2f2ff15d","grantSetterRole(address)":"77185742","hasRole(bytes32,address)":"91d14854","projects(string)":"91c9b268","readProjectStorageProof(string)":"ebe5d25c","readStorageDetail(string)":"a02056f9","renounceRole(bytes32,address)":"36568abe","revokeRole(bytes32,address)":"d547741f","setStorageDetail(((uint256,uint256),uint32,bytes32,uint8[],uint8[],uint8[],uint32[]),(uint32,uint32,((bytes32,bytes,bytes,uint32),bytes32,uint32),bytes,bytes),string)":"557ad663","supportsInterface(bytes4)":"01ffc9a7","uploadProjectStorageProof(string,((uint256,uint256),uint32,bytes32,uint8[],uint8[],uint8[],uint32[]),(uint32,uint32,((bytes32,bytes,bytes,uint32),bytes32,uint32),bytes,bytes))":"40420ee6","verifyAttestation(string)":"7248f2b4","verifyProjectStorageProof(string)":"6c47c552"},"id":77}