{"abi":[{"type":"constructor","inputs":[{"name":"_registryCoordinator","type":"address","internalType":"contract IRegistryCoordinator"}],"stateMutability":"nonpayable"},{"type":"function","name":"blsApkRegistry","inputs":[],"outputs":[{"name":"","type":"address","internalType":"contract IBLSApkRegistry"}],"stateMutability":"view"},{"type":"function","name":"checkSignatures","inputs":[{"name":"msgHash","type":"bytes32","internalType":"bytes32"},{"name":"quorumNumbers","type":"bytes","internalType":"bytes"},{"name":"referenceBlockNumber","type":"uint32","internalType":"uint32"},{"name":"params","type":"tuple","internalType":"struct IBLSSignatureChecker.NonSignerStakesAndSignature","components":[{"name":"nonSignerQuorumBitmapIndices","type":"uint32[]","internalType":"uint32[]"},{"name":"nonSignerPubkeys","type":"tuple[]","internalType":"struct BN254.G1Point[]","components":[{"name":"X","type":"uint256","internalType":"uint256"},{"name":"Y","type":"uint256","internalType":"uint256"}]},{"name":"quorumApks","type":"tuple[]","internalType":"struct BN254.G1Point[]","components":[{"name":"X","type":"uint256","internalType":"uint256"},{"name":"Y","type":"uint256","internalType":"uint256"}]},{"name":"apkG2","type":"tuple","internalType":"struct BN254.G2Point","components":[{"name":"X","type":"uint256[2]","internalType":"uint256[2]"},{"name":"Y","type":"uint256[2]","internalType":"uint256[2]"}]},{"name":"sigma","type":"tuple","internalType":"struct BN254.G1Point","components":[{"name":"X","type":"uint256","internalType":"uint256"},{"name":"Y","type":"uint256","internalType":"uint256"}]},{"name":"quorumApkIndices","type":"uint32[]","internalType":"uint32[]"},{"name":"totalStakeIndices","type":"uint32[]","internalType":"uint32[]"},{"name":"nonSignerStakeIndices","type":"uint32[][]","internalType":"uint32[][]"}]}],"outputs":[{"name":"","type":"tuple","internalType":"struct IBLSSignatureChecker.QuorumStakeTotals","components":[{"name":"signedStakeForQuorum","type":"uint96[]","internalType":"uint96[]"},{"name":"totalStakeForQuorum","type":"uint96[]","internalType":"uint96[]"}]},{"name":"","type":"bytes32","internalType":"bytes32"}],"stateMutability":"view"},{"type":"function","name":"delegation","inputs":[],"outputs":[{"name":"","type":"address","internalType":"contract IDelegationManager"}],"stateMutability":"view"},{"type":"function","name":"registryCoordinator","inputs":[],"outputs":[{"name":"","type":"address","internalType":"contract IRegistryCoordinator"}],"stateMutability":"view"},{"type":"function","name":"setStaleStakesForbidden","inputs":[{"name":"value","type":"bool","internalType":"bool"}],"outputs":[],"stateMutability":"nonpayable"},{"type":"function","name":"stakeRegistry","inputs":[],"outputs":[{"name":"","type":"address","internalType":"contract IStakeRegistry"}],"stateMutability":"view"},{"type":"function","name":"staleStakesForbidden","inputs":[],"outputs":[{"name":"","type":"bool","internalType":"bool"}],"stateMutability":"view"},{"type":"function","name":"trySignatureAndApkVerification","inputs":[{"name":"msgHash","type":"bytes32","internalType":"bytes32"},{"name":"apk","type":"tuple","internalType":"struct BN254.G1Point","components":[{"name":"X","type":"uint256","internalType":"uint256"},{"name":"Y","type":"uint256","internalType":"uint256"}]},{"name":"apkG2","type":"tuple","internalType":"struct BN254.G2Point","components":[{"name":"X","type":"uint256[2]","internalType":"uint256[2]"},{"name":"Y","type":"uint256[2]","internalType":"uint256[2]"}]},{"name":"sigma","type":"tuple","internalType":"struct BN254.G1Point","components":[{"name":"X","type":"uint256","internalType":"uint256"},{"name":"Y","type":"uint256","internalType":"uint256"}]}],"outputs":[{"name":"pairingSuccessful","type":"bool","internalType":"bool"},{"name":"siganatureIsValid","type":"bool","internalType":"bool"}],"stateMutability":"view"},{"type":"event","name":"StaleStakesForbiddenUpdate","inputs":[{"name":"value","type":"bool","indexed":false,"internalType":"bool"}],"anonymous":false}],"bytecode":{"object":"0x61010060405234801561001157600080fd5b506040516128ba3803806128ba833981016040819052610030916101cd565b6001600160a01b038116608081905260408051636830483560e01b815290516368304835916004808201926020929091908290030181865afa15801561007a573d6000803e3d6000fd5b505050506040513d601f19601f8201168201806040525081019061009e91906101cd565b6001600160a01b031660a0816001600160a01b031681525050806001600160a01b0316635df459466040518163ffffffff1660e01b8152600401602060405180830381865afa1580156100f5573d6000803e3d6000fd5b505050506040513d601f19601f8201168201806040525081019061011991906101cd565b6001600160a01b031660c0816001600160a01b03168152505060a0516001600160a01b031663df5cf7236040518163ffffffff1660e01b8152600401602060405180830381865afa158015610172573d6000803e3d6000fd5b505050506040513d601f19601f8201168201806040525081019061019691906101cd565b6001600160a01b031660e052506000805460ff191660011790556101f1565b6001600160a01b03811681146101ca57600080fd5b50565b6000602082840312156101df57600080fd5b81516101ea816101b5565b9392505050565b60805160a05160c05160e051612659610261600039600081816101a10152610bad01526000818160d60152610d8f01526000818161011501528181610f66015261112801526000818161013c0152818161034f0152818161088001528181610a180152610c4a01526126596000f3fe608060405234801561001057600080fd5b50600436106100885760003560e01c80636d14a9871161005b5780636d14a987146101375780636efb46361461015e578063b98d09081461017f578063df5cf7231461019c57600080fd5b8063171f1d5b1461008d578063416c7e5e146100bc5780635df45946146100d15780636830483514610110575b600080fd5b6100a061009b366004611f74565b6101c3565b6040805192151583529015156020830152015b60405180910390f35b6100cf6100ca366004611fc5565b61034d565b005b6100f87f000000000000000000000000000000000000000000000000000000000000000081565b6040516001600160a01b0390911681526020016100b3565b6100f87f000000000000000000000000000000000000000000000000000000000000000081565b6100f87f000000000000000000000000000000000000000000000000000000000000000081565b61017161016c3660046122a8565b6104c7565b6040516100b392919061239d565b60005461018c9060ff1681565b60405190151581526020016100b3565b6100f87f000000000000000000000000000000000000000000000000000000000000000081565b60008060007f30644e72e131a029b85045b68181585d2833e84879b9709143e1f593f00000018787600001518860200151886000015160006002811061020b5761020b6123e6565b60200201518951600160200201518a60200151600060028110610230576102306123e6565b60200201518b6020015160016002811061024c5761024c6123e6565b602090810291909101518c518d8301516040516102a99a99989796959401988952602089019790975260408801959095526060870193909352608086019190915260a085015260c084015260e08301526101008201526101200190565b6040516020818303038152906040528051906020012060001c6102cc91906123fc565b905061033f6102e56102de88846113c8565b8690611459565b6102ed6114ee565b61033561032685610320604080518082018252600080825260209182015281518083019092526001825260029082015290565b906113c8565b61032f8c6115ae565b90611459565b886201d4c061163d565b909890975095505050505050565b7f00000000000000000000000000000000000000000000000000000000000000006001600160a01b0316638da5cb5b6040518163ffffffff1660e01b8152600401602060405180830381865afa1580156103ab573d6000803e3d6000fd5b505050506040513d601f19601f820116820180604052508101906103cf919061241e565b6001600160a01b0316336001600160a01b0316146104805760405162461bcd60e51b815260206004820152605c60248201527f424c535369676e6174757265436865636b65722e6f6e6c79436f6f7264696e6160448201527f746f724f776e65723a2063616c6c6572206973206e6f7420746865206f776e6560648201527f72206f6620746865207265676973747279436f6f7264696e61746f7200000000608482015260a4015b60405180910390fd5b6000805460ff19168215159081179091556040519081527f40e4ed880a29e0f6ddce307457fb75cddf4feef7d3ecb0301bfdf4976a0e2dfc9060200160405180910390a150565b604080518082019091526060808252602082015260008481036105405760405162461bcd60e51b8152602060048201526037602482015260008051602061260483398151915260448201527f7265733a20656d7074792071756f72756d20696e7075740000000000000000006064820152608401610477565b60408301515185148015610558575060a08301515185145b8015610568575060c08301515185145b8015610578575060e08301515185145b6105e25760405162461bcd60e51b8152602060048201526041602482015260008051602061260483398151915260448201527f7265733a20696e7075742071756f72756d206c656e677468206d69736d6174636064820152600d60fb1b608482015260a401610477565b8251516020840151511461065a5760405162461bcd60e51b815260206004820152604460248201819052600080516020612604833981519152908201527f7265733a20696e707574206e6f6e7369676e6572206c656e677468206d69736d6064820152630c2e8c6d60e31b608482015260a401610477565b4363ffffffff168463ffffffff16106106c95760405162461bcd60e51b815260206004820152603c602482015260008051602061260483398151915260448201527f7265733a20696e76616c6964207265666572656e636520626c6f636b000000006064820152608401610477565b60408051808201825260008082526020808301919091528251808401909352606080845290830152908667ffffffffffffffff81111561070b5761070b611e20565b604051908082528060200260200182016040528015610734578160200160208202803683370190505b5060208201528667ffffffffffffffff81111561075357610753611e20565b60405190808252806020026020018201604052801561077c578160200160208202803683370190505b508152604080518082019091526060808252602082015285602001515167ffffffffffffffff8111156107b1576107b1611e20565b6040519080825280602002602001820160405280156107da578160200160208202803683370190505b50815260208601515167ffffffffffffffff8111156107fb576107fb611e20565b604051908082528060200260200182016040528015610824578160200160208202803683370190505b50816020018190525060006108f68a8a8080601f0160208091040260200160405190810160405280939291908181526020018383808284376000920191909152505060408051639aa1653d60e01b815290516001600160a01b037f0000000000000000000000000000000000000000000000000000000000000000169350639aa1653d925060048083019260209291908290030181865afa1580156108cd573d6000803e3d6000fd5b505050506040513d601f19601f820116820180604052508101906108f19190612447565b611857565b905060005b876020015151811015610b875761094088602001518281518110610921576109216123e6565b6020026020010151805160009081526020918201519091526040902090565b83602001518281518110610956576109566123e6565b60209081029190910101528015610a16576020830151610977600183612480565b81518110610987576109876123e6565b602002602001015160001c836020015182815181106109a8576109a86123e6565b602002602001015160001c11610a16576040805162461bcd60e51b815260206004820152602481019190915260008051602061260483398151915260448201527f7265733a206e6f6e5369676e65725075626b657973206e6f7420736f727465646064820152608401610477565b7f00000000000000000000000000000000000000000000000000000000000000006001600160a01b03166304ec635184602001518381518110610a5b57610a5b6123e6565b60200260200101518b8b600001518581518110610a7a57610a7a6123e6565b60200260200101516040518463ffffffff1660e01b8152600401610ab79392919092835263ffffffff918216602084015216604082015260600190565b602060405180830381865afa158015610ad4573d6000803e3d6000fd5b505050506040513d601f19601f82011682018060405250810190610af89190612493565b6001600160c01b031683600001518281518110610b1757610b176123e6565b602002602001018181525050610b7d6102de610b518486600001518581518110610b4357610b436123e6565b6020026020010151166118ea565b8a602001518481518110610b6757610b676123e6565b602002602001015161191590919063ffffffff16565b94506001016108fb565b5050610b92836119f8565b6000805491945060ff9091169081610bab576000610c2d565b7f00000000000000000000000000000000000000000000000000000000000000006001600160a01b031663c448feb86040518163ffffffff1660e01b8152600401602060405180830381865afa158015610c09573d6000803e3d6000fd5b505050506040513d601f19601f82011682018060405250810190610c2d91906124bc565b905060005b8a811015611297578215610d8d578963ffffffff16827f00000000000000000000000000000000000000000000000000000000000000006001600160a01b031663249a0c428f8f86818110610c8957610c896123e6565b60405160e085901b6001600160e01b031916815292013560f81c600483015250602401602060405180830381865afa158015610cc9573d6000803e3d6000fd5b505050506040513d601f19601f82011682018060405250810190610ced91906124bc565b610cf791906124d5565b11610d8d5760405162461bcd60e51b8152602060048201526066602482015260008051602061260483398151915260448201527f7265733a205374616b6552656769737472792075706461746573206d7573742060648201527f62652077697468696e207769746864726177616c44656c6179426c6f636b732060848201526577696e646f7760d01b60a482015260c401610477565b7f00000000000000000000000000000000000000000000000000000000000000006001600160a01b03166368bccaac8d8d84818110610dce57610dce6123e6565b9050013560f81c60f81b60f81c8c8c60a001518581518110610df257610df26123e6565b60209081029190910101516040516001600160e01b031960e086901b16815260ff909316600484015263ffffffff9182166024840152166044820152606401602060405180830381865afa158015610e4e573d6000803e3d6000fd5b505050506040513d601f19601f82011682018060405250810190610e7291906124e8565b67ffffffffffffffff1916610e968a604001518381518110610921576109216123e6565b67ffffffffffffffff191614610f325760405162461bcd60e51b8152602060048201526061602482015260008051602061260483398151915260448201527f7265733a2071756f72756d41706b206861736820696e2073746f72616765206460648201527f6f6573206e6f74206d617463682070726f76696465642071756f72756d2061706084820152606b60f81b60a482015260c401610477565b610f6289604001518281518110610f4b57610f4b6123e6565b60200260200101518761145990919063ffffffff16565b95507f00000000000000000000000000000000000000000000000000000000000000006001600160a01b031663c8294c568d8d84818110610fa557610fa56123e6565b9050013560f81c60f81b60f81c8c8c60c001518581518110610fc957610fc96123e6565b60209081029190910101516040516001600160e01b031960e086901b16815260ff909316600484015263ffffffff9182166024840152166044820152606401602060405180830381865afa158015611025573d6000803e3d6000fd5b505050506040513d601f19601f820116820180604052508101906110499190612513565b8560200151828151811061105f5761105f6123e6565b6001600160601b0390921660209283029190910182015285015180518290811061108b5761108b6123e6565b6020026020010151856000015182815181106110a9576110a96123e6565b60200260200101906001600160601b031690816001600160601b0316815250506000805b8a602001515181101561128d57611121866000015182815181106110f3576110f36123e6565b60200260200101518f8f8681811061110d5761110d6123e6565b600192013560f81c9290921c811614919050565b15611285577f00000000000000000000000000000000000000000000000000000000000000006001600160a01b031663f2be94ae8f8f86818110611167576111676123e6565b9050013560f81c60f81b60f81c8e8960200151858151811061118b5761118b6123e6565b60200260200101518f60e0015188815181106111a9576111a96123e6565b602002602001015187815181106111c2576111c26123e6565b60209081029190910101516040516001600160e01b031960e087901b16815260ff909416600485015263ffffffff92831660248501526044840191909152166064820152608401602060405180830381865afa158015611226573d6000803e3d6000fd5b505050506040513d601f19601f8201168201806040525081019061124a9190612513565b875180518590811061125e5761125e6123e6565b60200260200101818151611272919061253c565b6001600160601b03169052506001909101905b6001016110cd565b5050600101610c32565b5050506000806112b18c868a606001518b608001516101c3565b91509150816113225760405162461bcd60e51b8152602060048201526043602482015260008051602061260483398151915260448201527f7265733a2070616972696e6720707265636f6d70696c652063616c6c206661696064820152621b195960ea1b608482015260a401610477565b806113835760405162461bcd60e51b8152602060048201526039602482015260008051602061260483398151915260448201527f7265733a207369676e617475726520697320696e76616c6964000000000000006064820152608401610477565b5050600087826020015160405160200161139e929190612563565b60408051808303601f190181529190528051602090910120929b929a509198505050505050505050565b60408051808201909152600080825260208201526113e4611d46565b835181526020808501519082015260408082018490526000908360608460076107d05a03fa9050808061141357fe5b50806114515760405162461bcd60e51b815260206004820152600d60248201526c1958cb5b5d5b0b59985a5b1959609a1b6044820152606401610477565b505092915050565b6040805180820190915260008082526020820152611475611d64565b835181526020808501518183015283516040808401919091529084015160608301526000908360808460066107d05a03fa905080806114b057fe5b50806114515760405162461bcd60e51b815260206004820152600d60248201526c1958cb5859190b59985a5b1959609a1b6044820152606401610477565b6114f6611d82565b50604080516080810182527f198e9393920d483a7260bfb731fb5d25f1aa493335a9e71297e485b7aef312c28183019081527f1800deef121f1e76426a00665e5c4479674322d4f75edadd46debd5cd992f6ed6060830152815281518083019092527f275dc4a288d1afb3cbb1ac09187524c7db36395df7be3b99e673b13a075a65ec82527f1d9befcd05a5323e6da4d435f3b617cdb3af83285c2df711ef39c01571827f9d60208381019190915281019190915290565b6040805180820190915260008082526020820152600080806115de6000805160206125e4833981519152866123fc565b90505b6115ea81611a93565b90935091506000805160206125e48339815191528283098303611623576040805180820190915290815260208101919091529392505050565b6000805160206125e48339815191526001820890506115e1565b60408051808201825286815260208082018690528251808401909352868352820184905260009182919061166f611da7565b60005b600281101561182a5760006116888260066125ab565b905084826002811061169c5761169c6123e6565b602002015151836116ae8360006124d5565b600c81106116be576116be6123e6565b60200201528482600281106116d5576116d56123e6565b602002015160200151838260016116ec91906124d5565b600c81106116fc576116fc6123e6565b6020020152838260028110611713576117136123e6565b60200201515151836117268360026124d5565b600c8110611736576117366123e6565b602002015283826002811061174d5761174d6123e6565b60200201515160016020020151836117668360036124d5565b600c8110611776576117766123e6565b602002015283826002811061178d5761178d6123e6565b6020020151602001516000600281106117a8576117a86123e6565b6020020151836117b98360046124d5565b600c81106117c9576117c96123e6565b60200201528382600281106117e0576117e06123e6565b6020020151602001516001600281106117fb576117fb6123e6565b60200201518361180c8360056124d5565b600c811061181c5761181c6123e6565b602002015250600101611672565b50611833611dc6565b60006020826101808560088cfa9151919c9115159b50909950505050505050505050565b60008061186384611b15565b9050808360ff166001901b116118e15760405162461bcd60e51b815260206004820152603f60248201527f4269746d61705574696c732e6f72646572656442797465734172726179546f4260448201527f69746d61703a206269746d61702065786365656473206d61782076616c7565006064820152608401610477565b90505b92915050565b6000805b82156118e4576118ff600184612480565b909216918061190d816125c2565b9150506118ee565b60408051808201909152600080825260208201526102008261ffff16106119715760405162461bcd60e51b815260206004820152601060248201526f7363616c61722d746f6f2d6c6172676560801b6044820152606401610477565b8161ffff166001036119845750816118e4565b6040805180820190915260008082526020820181905284906001905b8161ffff168661ffff16106119ed57600161ffff871660ff83161c811690036119d0576119cd8484611459565b93505b6119da8384611459565b92506201fffe600192831b1691016119a0565b509195945050505050565b60408051808201909152600080825260208201528151158015611a1d57506020820151155b15611a3b575050604080518082019091526000808252602082015290565b6040518060400160405280836000015181526020016000805160206125e48339815191528460200151611a6e91906123fc565b611a86906000805160206125e4833981519152612480565b905292915050565b919050565b600080806000805160206125e483398151915260036000805160206125e4833981519152866000805160206125e4833981519152888909090890506000611b09827f0c19139cb84c680a6e14116da060561765e05aa45a1c72a34f082305b61f3f526000805160206125e4833981519152611c9d565b91959194509092505050565b600061010082511115611b9e5760405162461bcd60e51b8152602060048201526044602482018190527f4269746d61705574696c732e6f72646572656442797465734172726179546f42908201527f69746d61703a206f7264657265644279746573417272617920697320746f6f206064820152636c6f6e6760e01b608482015260a401610477565b8151600003611baf57506000919050565b60008083600081518110611bc557611bc56123e6565b0160200151600160f89190911c81901b92505b8451811015611c9457848181518110611bf357611bf36123e6565b0160200151600160f89190911c1b9150828211611c885760405162461bcd60e51b815260206004820152604760248201527f4269746d61705574696c732e6f72646572656442797465734172726179546f4260448201527f69746d61703a206f72646572656442797465734172726179206973206e6f74206064820152661bdc99195c995960ca1b608482015260a401610477565b91811791600101611bd8565b50909392505050565b600080611ca8611dc6565b611cb0611de4565b602080825281810181905260408201819052606082018890526080820187905260a082018690528260c08360056107d05a03fa92508280611ced57fe5b5082611d3b5760405162461bcd60e51b815260206004820152601a60248201527f424e3235342e6578704d6f643a2063616c6c206661696c7572650000000000006044820152606401610477565b505195945050505050565b60405180606001604052806003906020820280368337509192915050565b60405180608001604052806004906020820280368337509192915050565b6040518060400160405280611d95611e02565b8152602001611da2611e02565b905290565b604051806101800160405280600c906020820280368337509192915050565b60405180602001604052806001906020820280368337509192915050565b6040518060c001604052806006906020820280368337509192915050565b60405180604001604052806002906020820280368337509192915050565b634e487b7160e01b600052604160045260246000fd5b6040805190810167ffffffffffffffff81118282101715611e5957611e59611e20565b60405290565b604051610100810167ffffffffffffffff81118282101715611e5957611e59611e20565b604051601f8201601f1916810167ffffffffffffffff81118282101715611eac57611eac611e20565b604052919050565b600060408284031215611ec657600080fd5b611ece611e36565b9050813581526020820135602082015292915050565b600082601f830112611ef557600080fd5b611efd611e36565b806040840185811115611f0f57600080fd5b845b81811015611f29578035845260209384019301611f11565b509095945050505050565b600060808284031215611f4657600080fd5b611f4e611e36565b9050611f5a8383611ee4565b8152611f698360408401611ee4565b602082015292915050565b6000806000806101208587031215611f8b57600080fd5b84359350611f9c8660208701611eb4565b9250611fab8660608701611f34565b9150611fba8660e08701611eb4565b905092959194509250565b600060208284031215611fd757600080fd5b813580151581146118e157600080fd5b803563ffffffff81168114611a8e57600080fd5b600067ffffffffffffffff82111561201557612015611e20565b5060051b60200190565b600082601f83011261203057600080fd5b8135602061204561204083611ffb565b611e83565b8083825260208201915060208460051b87010193508684111561206757600080fd5b602086015b8481101561208a5761207d81611fe7565b835291830191830161206c565b509695505050505050565b600082601f8301126120a657600080fd5b813560206120b661204083611ffb565b8083825260208201915060208460061b8701019350868411156120d857600080fd5b602086015b8481101561208a576120ef8882611eb4565b8352918301916040016120dd565b600082601f83011261210e57600080fd5b8135602061211e61204083611ffb565b82815260059290921b8401810191818101908684111561213d57600080fd5b8286015b8481101561208a57803567ffffffffffffffff8111156121615760008081fd5b61216f8986838b010161201f565b845250918301918301612141565b6000610180828403121561219057600080fd5b612198611e5f565b9050813567ffffffffffffffff808211156121b257600080fd5b6121be8583860161201f565b835260208401359150808211156121d457600080fd5b6121e085838601612095565b602084015260408401359150808211156121f957600080fd5b61220585838601612095565b60408401526122178560608601611f34565b60608401526122298560e08601611eb4565b608084015261012084013591508082111561224357600080fd5b61224f8583860161201f565b60a084015261014084013591508082111561226957600080fd5b6122758583860161201f565b60c084015261016084013591508082111561228f57600080fd5b5061229c848285016120fd565b60e08301525092915050565b6000806000806000608086880312156122c057600080fd5b85359450602086013567ffffffffffffffff808211156122df57600080fd5b818801915088601f8301126122f357600080fd5b81358181111561230257600080fd5b89602082850101111561231457600080fd5b602083019650945061232860408901611fe7565b9350606088013591508082111561233e57600080fd5b5061234b8882890161217d565b9150509295509295909350565b60008151808452602080850194506020840160005b838110156123925781516001600160601b03168752958201959082019060010161236d565b509495945050505050565b60408152600083516040808401526123b86080840182612358565b90506020850151603f198483030160608501526123d58282612358565b925050508260208301529392505050565b634e487b7160e01b600052603260045260246000fd5b60008261241957634e487b7160e01b600052601260045260246000fd5b500690565b60006020828403121561243057600080fd5b81516001600160a01b03811681146118e157600080fd5b60006020828403121561245957600080fd5b815160ff811681146118e157600080fd5b634e487b7160e01b600052601160045260246000fd5b818103818111156118e4576118e461246a565b6000602082840312156124a557600080fd5b81516001600160c01b03811681146118e157600080fd5b6000602082840312156124ce57600080fd5b5051919050565b808201808211156118e4576118e461246a565b6000602082840312156124fa57600080fd5b815167ffffffffffffffff19811681146118e157600080fd5b60006020828403121561252557600080fd5b81516001600160601b03811681146118e157600080fd5b6001600160601b0382811682821603908082111561255c5761255c61246a565b5092915050565b63ffffffff60e01b8360e01b1681526000600482018351602080860160005b8381101561259e57815185529382019390820190600101612582565b5092979650505050505050565b80820281158282048414176118e4576118e461246a565b600061ffff8083168181036125d9576125d961246a565b600101939250505056fe30644e72e131a029b85045b68181585d97816a916871ca8d3c208c16d87cfd47424c535369676e6174757265436865636b65722e636865636b5369676e617475a2646970667358221220878c9734c6be163b2d979bbfb2b091b6c6c432d7ec9b4001280ac7407c28125e64736f6c63430008190033","linkReferences":{}},"methodIdentifiers":{"blsApkRegistry()":"5df45946","checkSignatures(bytes32,bytes,uint32,(uint32[],(uint256,uint256)[],(uint256,uint256)[],(uint256[2],uint256[2]),(uint256,uint256),uint32[],uint32[],uint32[][]))":"6efb4636","delegation()":"df5cf723","registryCoordinator()":"6d14a987","setStaleStakesForbidden(bool)":"416c7e5e","stakeRegistry()":"68304835","staleStakesForbidden()":"b98d0908","trySignatureAndApkVerification(bytes32,(uint256,uint256),(uint256[2],uint256[2]),(uint256,uint256))":"171f1d5b"},"id":72}