{"abi":[{"type":"constructor","inputs":[],"stateMutability":"nonpayable"},{"type":"function","name":"acceptOwnership","inputs":[],"outputs":[],"stateMutability":"nonpayable"},{"type":"function","name":"cancelRequest","inputs":[{"name":"_requestId","type":"bytes32","internalType":"bytes32"},{"name":"_payment","type":"uint256","internalType":"uint256"},{"name":"_callbackFunctionId","type":"bytes4","internalType":"bytes4"},{"name":"_expiration","type":"uint256","internalType":"uint256"}],"outputs":[],"stateMutability":"nonpayable"},{"type":"function","name":"fulfillDisperseData","inputs":[{"name":"_requestId","type":"bytes32","internalType":"bytes32"},{"name":"_dispersalID","type":"string","internalType":"string"},{"name":"_lastUpdatedHeadCID","type":"string","internalType":"string"}],"outputs":[],"stateMutability":"nonpayable"},{"type":"function","name":"getChainlinkToken","inputs":[],"outputs":[{"name":"","type":"address","internalType":"address"}],"stateMutability":"view"},{"type":"function","name":"owner","inputs":[],"outputs":[{"name":"","type":"address","internalType":"address"}],"stateMutability":"view"},{"type":"function","name":"projectIndex","inputs":[{"name":"","type":"string","internalType":"string"}],"outputs":[{"name":"","type":"uint256","internalType":"uint256"}],"stateMutability":"view"},{"type":"function","name":"projectVerifier","inputs":[],"outputs":[{"name":"","type":"address","internalType":"address"}],"stateMutability":"view"},{"type":"function","name":"readTestInput","inputs":[],"outputs":[{"name":"","type":"tuple","internalType":"struct ICarbonMonitoringVerifier.TestInput","components":[{"name":"user","type":"address","internalType":"address"},{"name":"requestId","type":"bytes32","internalType":"bytes32"},{"name":"index","type":"uint256","internalType":"uint256"},{"name":"projectID","type":"string","internalType":"string"}]}],"stateMutability":"view"},{"type":"function","name":"readTestOutput","inputs":[],"outputs":[{"name":"","type":"tuple","internalType":"struct ICarbonMonitoringVerifier.TestOutput","components":[{"name":"user","type":"address","internalType":"address"},{"name":"requestId","type":"bytes32","internalType":"bytes32"},{"name":"index","type":"uint256","internalType":"uint256"},{"name":"projectID","type":"string","internalType":"string"}]}],"stateMutability":"view"},{"type":"function","name":"requestDisperseData","inputs":[{"name":"_isSubscription","type":"bool","internalType":"bool"},{"name":"_start","type":"uint256","internalType":"uint256"},{"name":"_end","type":"uint256","internalType":"uint256"},{"name":"_projectName","type":"string","internalType":"string"},{"name":"_cid","type":"string","internalType":"string"}],"outputs":[],"stateMutability":"nonpayable"},{"type":"function","name":"setProjectVerifier","inputs":[{"name":"_projectVerifier","type":"address","internalType":"address"}],"outputs":[],"stateMutability":"nonpayable"},{"type":"function","name":"testInput","inputs":[],"outputs":[{"name":"user","type":"address","internalType":"address"},{"name":"requestId","type":"bytes32","internalType":"bytes32"},{"name":"index","type":"uint256","internalType":"uint256"},{"name":"projectID","type":"string","internalType":"string"}],"stateMutability":"view"},{"type":"function","name":"testOutput","inputs":[],"outputs":[{"name":"user","type":"address","internalType":"address"},{"name":"requestId","type":"bytes32","internalType":"bytes32"},{"name":"index","type":"uint256","internalType":"uint256"},{"name":"projectID","type":"string","internalType":"string"}],"stateMutability":"view"},{"type":"function","name":"transferOwnership","inputs":[{"name":"to","type":"address","internalType":"address"}],"outputs":[],"stateMutability":"nonpayable"},{"type":"function","name":"updateProjectState","inputs":[{"name":"_user","type":"address","internalType":"address"},{"name":"_projectName","type":"string","internalType":"string"}],"outputs":[],"stateMutability":"nonpayable"},{"type":"function","name":"userDetails","inputs":[{"name":"","type":"address","internalType":"address"}],"outputs":[{"name":"whitelisted","type":"bool","internalType":"bool"}],"stateMutability":"view"},{"type":"function","name":"whitelistUser","inputs":[{"name":"_userID","type":"address","internalType":"address"}],"outputs":[],"stateMutability":"nonpayable"},{"type":"function","name":"withdrawLink","inputs":[],"outputs":[],"stateMutability":"nonpayable"},{"type":"event","name":"ChainlinkCancelled","inputs":[{"name":"id","type":"bytes32","indexed":true,"internalType":"bytes32"}],"anonymous":false},{"type":"event","name":"ChainlinkFulfilled","inputs":[{"name":"id","type":"bytes32","indexed":true,"internalType":"bytes32"}],"anonymous":false},{"type":"event","name":"ChainlinkRequested","inputs":[{"name":"id","type":"bytes32","indexed":true,"internalType":"bytes32"}],"anonymous":false},{"type":"event","name":"OwnershipTransferRequested","inputs":[{"name":"from","type":"address","indexed":true,"internalType":"address"},{"name":"to","type":"address","indexed":true,"internalType":"address"}],"anonymous":false},{"type":"event","name":"OwnershipTransferred","inputs":[{"name":"from","type":"address","indexed":true,"internalType":"address"},{"name":"to","type":"address","indexed":true,"internalType":"address"}],"anonymous":false},{"type":"event","name":"RequestConfirmDataFulfilled","inputs":[{"name":"requestId","type":"bytes32","indexed":false,"internalType":"bytes32"},{"name":"confirmed","type":"bool","indexed":true,"internalType":"bool"},{"name":"projectID","type":"string","indexed":true,"internalType":"string"},{"name":"projectVerifier","type":"address","indexed":true,"internalType":"address"}],"anonymous":false},{"type":"event","name":"RequestDisperseDataFulfilled","inputs":[{"name":"requestId","type":"bytes32","indexed":false,"internalType":"bytes32"},{"name":"dispersalRequestID","type":"string","indexed":true,"internalType":"string"},{"name":"lastUpdatedHeadCID","type":"string","indexed":true,"internalType":"string"}],"anonymous":false},{"type":"error","name":"StringsInsufficientHexLength","inputs":[{"name":"value","type":"uint256","internalType":"uint256"},{"name":"length","type":"uint256","internalType":"uint256"}]}],"bytecode":{"object":"0x60806040526001600455600880546001600160a01b031916738032b4dba3779b6836b4c69203bb1d3b4f92908b17905534801561003b57600080fd5b5033806000816100925760405162461bcd60e51b815260206004820152601860248201527f43616e6e6f7420736574206f776e657220746f207a65726f000000000000000060448201526064015b60405180910390fd5b600680546001600160a01b0319166001600160a01b03848116919091179091558116156100c2576100c2816100ed565b5050506100e873d27376e609bf32b506535efe2bf1303a74eb546761019760201b60201c565b6101b9565b336001600160a01b038216036101455760405162461bcd60e51b815260206004820152601760248201527f43616e6e6f74207472616e7366657220746f2073656c660000000000000000006044820152606401610089565b600780546001600160a01b0319166001600160a01b03838116918217909255600654604051919216907fed8889f560326eb138920d842192f0eb3dd22b4f139c87a2c57538e05bae127890600090a350565b600280546001600160a01b0319166001600160a01b0392909216919091179055565b61241e806101c86000396000f3fe608060405234801561001057600080fd5b50600436106101165760003560e01c8063682dbfde116100a25780639564c0a2116100715780639564c0a21461024f578063c1cb256f14610262578063ec65d0f81461027a578063eca51d531461028d578063f2fde38b1461029557600080fd5b8063682dbfde1461022657806379ba50971461022e5780638da5cb5b146102365780638dc654a21461024757600080fd5b806334f10858116100e957806334f10858146101a757806348dec2a7146101ba5780634a4c560d146101ed5780635adf471814610200578063626e5f941461021357600080fd5b8063113f9f821461011b578063114bd73b14610139578063165d35e11461014e5780633178c8141461016e575b600080fd5b6101236102a8565b6040516101309190611ce8565b60405180910390f35b61014c610147366004611d17565b610393565b005b6101566103bd565b6040516001600160a01b039091168152602001610130565b61019961017c366004611dd4565b8051602081830181018051600a8252928201919093012091525481565b604051908152602001610130565b61014c6101b5366004611e08565b6103d6565b6101dd6101c8366004611d17565b60096020526000908152604090205460ff1681565b6040519015158152602001610130565b61014c6101fb366004611d17565b610748565b61014c61020e366004611e55565b6107dd565b600854610156906001600160a01b031681565b610123610a27565b61014c610a8b565b6006546001600160a01b0316610156565b61014c610b39565b61014c61025d366004611ecf565b610c7d565b61026a6110ac565b6040516101309493929190611f58565b61014c610288366004611f85565b611157565b61026a611171565b61014c6102a3366004611d17565b611199565b604080516080810182526000808252602082018190529181019190915260608082015260408051608081018252600c80546001600160a01b03168252600d546020830152600e5492820192909252600f805491929160608401919061030c90611fd1565b80601f016020809104026020016040519081016040528092919081815260200182805461033890611fd1565b80156103855780601f1061035a57610100808354040283529160200191610385565b820191906000526020600020905b81548152906001019060200180831161036857829003601f168201915b505050505081525050905090565b61039b6111aa565b600880546001600160a01b0319166001600160a01b0392909216919091179055565b60006103d16002546001600160a01b031690565b905090565b60006103e283836111ff565b90506000600a826040516103f69190612005565b9081526020016040518091039020549050600081116104505760405162461bcd60e51b81526020600482015260116024820152701c1c9bda9958dd081b9bdd08199bdd5b99607a1b60448201526064015b60405180910390fd5b6001600160a01b03841660009081526009602052604081206001908101906104789084612037565b815481106104885761048861204a565b600091825260209182902060408051610120810182526008909302909101805460ff8082161515855261010090910416938301939093526001830154908201526002820154606082015260038201546080820152600482015460a082015260058201805491929160c0840191906104fe90611fd1565b80601f016020809104026020016040519081016040528092919081815260200182805461052a90611fd1565b80156105775780601f1061054c57610100808354040283529160200191610577565b820191906000526020600020905b81548152906001019060200180831161055a57829003601f168201915b5050505050815260200160068201805461059090611fd1565b80601f01602080910402602001604051908101604052809291908181526020018280546105bc90611fd1565b80156106095780601f106105de57610100808354040283529160200191610609565b820191906000526020600020905b8154815290600101906020018083116105ec57829003601f168201915b5050505050815260200160078201805461062290611fd1565b80601f016020809104026020016040519081016040528092919081815260200182805461064e90611fd1565b801561069b5780601f106106705761010080835404028352916020019161069b565b820191906000526020600020905b81548152906001019060200180831161067e57829003601f168201915b5050505050815250509050428160a001511015610741576001600160a01b03851660009081526009602052604090206003906001908101906106dd9085612037565b815481106106ed576106ed61204a565b60009182526020909120600890910201805460ff929092166101000261ff0019909216919091179055805115610741576040810151606082015160c083015161073e90600190849084908a90610c7d565b50505b5050505050565b6107506111aa565b6001600160a01b03811660009081526009602052604090205460ff16156107b95760405162461bcd60e51b815260206004820152601860248201527f7573657220616c72656164792077686974656c697374656400000000000000006044820152606401610447565b6001600160a01b03166000908152600960205260409020805460ff19166001179055565b60008381526005602052604090205483906001600160a01b031633146108565760405162461bcd60e51b815260206004820152602860248201527f536f75726365206d75737420626520746865206f7261636c65206f6620746865604482015267081c995c5d595cdd60c21b6064820152608401610447565b60008181526005602052604080822080546001600160a01b03191690555182917f7cc135e0cebb02c3480ae5d74d377283180a2601f8f644edf7987b009316c63a91a2816040516108a79190612005565b6040518091039020836040516108bd9190612005565b604051908190038120868252907f8b52207fce6980cb21677901b8ecbc6b81748f347a9e3171cf167b7b4ed2f9a09060200160405180910390a36000848152600b602052604081208054600190910180546001600160a01b03909216929161092490611fd1565b80601f016020809104026020016040519081016040528092919081815260200182805461095090611fd1565b801561099d5780601f106109725761010080835404028352916020019161099d565b820191906000526020600020905b81548152906001019060200180831161098057829003601f168201915b505050505090506000600a826040516109b69190612005565b908152604080519182900360209081018320546080840183526001600160a01b0387168085529184018b905291830182905260608301859052601080546001600160a01b031916909117815560118a905560128290559092506013610a1b85826120b0565b50505050505050505050565b604080516080810182526000808252602082018190529181019190915260608082015260408051608081018252601080546001600160a01b031682526011546020830152601254928201929092526013805491929160608401919061030c90611fd1565b6007546001600160a01b03163314610ade5760405162461bcd60e51b815260206004820152601660248201527526bab9ba10313290383937b837b9b2b21037bbb732b960511b6044820152606401610447565b600680546001600160a01b0319808216339081179093556007805490911690556040516001600160a01b03909116919082907f8be0079c531659141344cd1fd0a4f28419497f9722a3daafe3b4186f6b6457e090600090a350565b610b416111aa565b6000610b556002546001600160a01b031690565b6040516370a0823160e01b81523060048201529091506001600160a01b0382169063a9059cbb90339083906370a0823190602401602060405180830381865afa158015610ba6573d6000803e3d6000fd5b505050506040513d601f19601f82011682018060405250810190610bca919061216f565b6040516001600160e01b031960e085901b1681526001600160a01b03909216600483015260248201526044016020604051808303816000875af1158015610c15573d6000803e3d6000fd5b505050506040513d601f19601f82011682018060405250810190610c399190612188565b610c7a5760405162461bcd60e51b81526020600482015260126024820152712ab730b13632903a37903a3930b739b332b960711b6044820152606401610447565b50565b3360009081526009602052604090205460ff16610cd35760405162461bcd60e51b81526020600482015260146024820152731d5cd95c881b9bdd081dda1a5d195b1a5cdd195960621b6044820152606401610447565b6000610d067f6561663231373035343564633437393361616464313961613364633832643636630b5be8e360e31b61123f565b90506000610d1433856111ff565b6040805180820190915260098152681c1c9bda9958dd125160ba1b6020820152909150610d4390839083611263565b60408051808201909152600381526218da5960ea1b6020820152610d6990839085611263565b6040805180820190915260058152641cdd185c9d60da1b6020820152610d9190839088611286565b604080518082019091526003815262195b9960ea1b6020820152610db790839087611286565b604080518082018252338152602080820184815285516000908152600b909252929020815181546001600160a01b0319166001600160a01b0390911617815591519091906001820190610e0a90826120b0565b50610e4c915073ccda5e49ff369640edfa0fb58fb6af165b53b8b5905083600a610e3d670de0b6b3a764000060006121a5565b610e4791906121d2565b6112a4565b506000600a82604051610e5f9190612005565b908152604080516020928190038301902054336000908152600990935290822090925060010190829003610fd857806040518061012001604052808b15158152602001600160ff1681526020018a8152602001898152602001426078610ec591906121e6565b8152602001610ed742620d2f006121e6565b815260208082018990526040805180830182526000808252828501919091528151808401835281815260609485015285546001818101885596825290839020855160089092020180549386015160ff166101000261ff00199215159290921661ffff19909416939093171782558301519381019390935581015160028301556080810151600383015560a0810151600483015560c08101519091906005820190610f8190826120b0565b5060e08201516006820190610f9690826120b0565b506101008201516007820190610fac90826120b0565b5050508080549050915081600a84604051610fc79190612005565b908152604051908190036020019020555b604080516080810182523380825286516020830181905292820185905260608201869052600c80546001600160a01b0319169091178155600d92909255600e84905590600f61102786826120b0565b50600191508290506110398285612037565b815481106110495761104961204a565b60009182526020909120600890910201805460ff929092166101000261ff0019909216919091179055848161107f600185612037565b8154811061108f5761108f61204a565b90600052602060002090600802016005019081610a1b91906120b0565b60108054601154601254601380546001600160a01b039094169492939192916110d490611fd1565b80601f016020809104026020016040519081016040528092919081815260200182805461110090611fd1565b801561114d5780601f106111225761010080835404028352916020019161114d565b820191906000526020600020905b81548152906001019060200180831161113057829003601f168201915b5050505050905084565b61115f6111aa565b61116b84848484611337565b50505050565b600c8054600d54600e54600f80546001600160a01b039094169492939192916110d490611fd1565b6111a16111aa565b610c7a81611409565b6006546001600160a01b031633146111fd5760405162461bcd60e51b815260206004820152601660248201527527b7363c9031b0b63630b1363290313c9037bbb732b960511b6044820152606401610447565b565b6060611215836001600160a01b031660146114b3565b826040516020016112279291906121f9565b60405160208183030381529060405290505b92915050565b611247611c22565b61124f611c22565b61125b8185308661162a565b949350505050565b60808301516112729083611667565b60808301516112819082611667565b505050565b60808301516112959083611667565b6080830151611281908261167e565b6004546000906112b58160016121e6565b600455835160408086015160808701515191516000936320214ca360e11b936112ed9386938493923092918a91600191602401612235565b60408051601f198184030181529190526020810180516001600160e01b03166001600160e01b031990931692909217909152905061132d868386846116a7565b9695505050505050565b60008481526005602052604080822080546001600160a01b0319811690915590516001600160a01b039091169186917fe1fe3afa0f7f761ff0a8b89086790efd5140d2907ebd5b7ff6bfcb5e075fd4c59190a2604051636ee4d55360e01b815260048101869052602481018590526001600160e01b031984166044820152606481018390526001600160a01b03821690636ee4d55390608401600060405180830381600087803b1580156113ea57600080fd5b505af11580156113fe573d6000803e3d6000fd5b505050505050505050565b336001600160a01b038216036114615760405162461bcd60e51b815260206004820152601760248201527f43616e6e6f74207472616e7366657220746f2073656c660000000000000000006044820152606401610447565b600780546001600160a01b0319166001600160a01b03838116918217909255600654604051919216907fed8889f560326eb138920d842192f0eb3dd22b4f139c87a2c57538e05bae127890600090a350565b60608260006114c38460026121a5565b6114ce9060026121e6565b6001600160401b038111156114e5576114e5611d32565b6040519080825280601f01601f19166020018201604052801561150f576020820181803683370190505b509050600360fc1b8160008151811061152a5761152a61204a565b60200101906001600160f81b031916908160001a905350600f60fb1b816001815181106115595761155961204a565b60200101906001600160f81b031916908160001a905350600061157d8560026121a5565b6115889060016121e6565b90505b6001811115611600576f181899199a1a9b1b9c1cb0b131b232b360811b83600f16601081106115bc576115bc61204a565b1a60f81b8282815181106115d2576115d261204a565b60200101906001600160f81b031916908160001a90535060049290921c916115f98161229d565b905061158b565b50811561125b5760405163e22e27eb60e01b81526004810186905260248101859052604401610447565b611632611c22565b6116428560800151610100611805565b50509183526001600160a01b031660208301526001600160e01b031916604082015290565b611674826003835161186a565b6112818282611971565b6001600160401b0381111561169b57611697828261199f565b5050565b6116978260008361186a565b6040516bffffffffffffffffffffffff193060601b1660208201526034810184905260009060540160408051808303601f1901815282825280516020918201206000818152600590925291812080546001600160a01b0319166001600160a01b038a1617905590925082917fb5e6e01e79f91267dc17b4e6314d5d4d03593d2ceee0fbb452b750bd70ea5af99190a2600254604051630200057560e51b81526001600160a01b0390911690634000aea09061176a908890879087906004016122b4565b6020604051808303816000875af1158015611789573d6000803e3d6000fd5b505050506040513d601f19601f820116820180604052508101906117ad9190612188565b61125b5760405162461bcd60e51b815260206004820152602360248201527f756e61626c6520746f207472616e73666572416e6443616c6c20746f206f7261604482015262636c6560e81b6064820152608401610447565b6040805180820190915260608152600060208201526118256020836122e4565b1561184d576118356020836122e4565b611840906020612037565b61184a90836121e6565b91505b506020828101829052604080518085526000815290920101905290565b6017816001600160401b03161161188e5761116b8360e0600585901b1683176119d6565b60ff816001600160401b0316116118ca576118b4836018611fe0600586901b16176119d6565b5061116b836001600160401b03831660016119fb565b61ffff816001600160401b031611611907576118f1836019611fe0600586901b16176119d6565b5061116b836001600160401b03831660026119fb565b63ffffffff816001600160401b0316116119465761193083601a611fe0600586901b16176119d6565b5061116b836001600160401b03831660046119fb565b61195b83601b611fe0600586901b16176119d6565b5061116b836001600160401b03831660086119fb565b60408051808201909152606081526000602082015261199883846000015151848551611a21565b9392505050565b6119aa8260c26119d6565b5061169782826040516020016119c291815260200190565b604051602081830303815290604052611b0b565b6040805180820190915260608152600060208201526119988384600001515184611b18565b60408051808201909152606081526000602082015261125b848560000151518585611b73565b6040805180820190915260608152600060208201528251821115611a4457600080fd5b6020850151611a5383866121e6565b1115611a8657611a8685611a7687602001518786611a7191906121e6565b611bf4565b611a819060026121a5565b611c0b565b600080865180518760208301019350808887011115611aa55787860182525b505050602084015b60208410611ae55780518252611ac46020836121e6565b9150611ad16020826121e6565b9050611ade602085612037565b9350611aad565b51815160001960208690036101000a019081169019919091161790525083949350505050565b611674826002835161186a565b60408051808201909152606081526000602082015283602001518310611b4d57611b4d8485602001516002611a8191906121a5565b8351805160208583010184815350808503611b69576001810182525b5093949350505050565b6040805180820190915260608152600060208201526020850151611b9785846121e6565b1115611bab57611bab85611a7686856121e6565b60006001611bbb846101006123dc565b611bc59190612037565b9050855183868201018583198251161781525080518487011115611be95783860181525b509495945050505050565b600081831115611c05575081611239565b50919050565b8151611c178383611805565b5061116b8382611971565b6040805160a0810182526000808252602080830182905282840182905260608084018390528451808601909552845283015290608082015290565b60005b83811015611c78578181015183820152602001611c60565b50506000910152565b60008151808452611c99816020860160208601611c5d565b601f01601f19169290920160200192915050565b60018060a01b0381511682526020810151602083015260408101516040830152600060608201516080606085015261125b6080850182611c81565b6020815260006119986020830184611cad565b80356001600160a01b0381168114611d1257600080fd5b919050565b600060208284031215611d2957600080fd5b61199882611cfb565b634e487b7160e01b600052604160045260246000fd5b600082601f830112611d5957600080fd5b81356001600160401b0380821115611d7357611d73611d32565b604051601f8301601f19908116603f01168101908282118183101715611d9b57611d9b611d32565b81604052838152866020858801011115611db457600080fd5b836020870160208301376000602085830101528094505050505092915050565b600060208284031215611de657600080fd5b81356001600160401b03811115611dfc57600080fd5b61125b84828501611d48565b60008060408385031215611e1b57600080fd5b611e2483611cfb565b915060208301356001600160401b03811115611e3f57600080fd5b611e4b85828601611d48565b9150509250929050565b600080600060608486031215611e6a57600080fd5b8335925060208401356001600160401b0380821115611e8857600080fd5b611e9487838801611d48565b93506040860135915080821115611eaa57600080fd5b50611eb786828701611d48565b9150509250925092565b8015158114610c7a57600080fd5b600080600080600060a08688031215611ee757600080fd5b8535611ef281611ec1565b9450602086013593506040860135925060608601356001600160401b0380821115611f1c57600080fd5b611f2889838a01611d48565b93506080880135915080821115611f3e57600080fd5b50611f4b88828901611d48565b9150509295509295909350565b60018060a01b038516815283602082015282604082015260806060820152600061132d6080830184611c81565b60008060008060808587031215611f9b57600080fd5b843593506020850135925060408501356001600160e01b031981168114611fc157600080fd5b9396929550929360600135925050565b600181811c90821680611fe557607f821691505b602082108103611c0557634e487b7160e01b600052602260045260246000fd5b60008251612017818460208701611c5d565b9190910192915050565b634e487b7160e01b600052601160045260246000fd5b8181038181111561123957611239612021565b634e487b7160e01b600052603260045260246000fd5b601f821115611281576000816000526020600020601f850160051c810160208610156120895750805b601f850160051c820191505b818110156120a857828155600101612095565b505050505050565b81516001600160401b038111156120c9576120c9611d32565b6120dd816120d78454611fd1565b84612060565b602080601f83116001811461211257600084156120fa5750858301515b600019600386901b1c1916600185901b1785556120a8565b600085815260208120601f198616915b8281101561214157888601518255948401946001909101908401612122565b508582101561215f5787850151600019600388901b60f8161c191681555b5050505050600190811b01905550565b60006020828403121561218157600080fd5b5051919050565b60006020828403121561219a57600080fd5b815161199881611ec1565b808202811582820484141761123957611239612021565b634e487b7160e01b600052601260045260246000fd5b6000826121e1576121e16121bc565b500490565b8082018082111561123957611239612021565b6000835161220b818460208801611c5d565b601d60f91b9083019081528351612229816001840160208801611c5d565b01600101949350505050565b6001600160a01b0389811682526020820189905260408201889052861660608201526001600160e01b03198516608082015260a0810184905260c0810183905261010060e0820181905260009061228e83820185611c81565b9b9a5050505050505050505050565b6000816122ac576122ac612021565b506000190190565b60018060a01b03841681528260208201526060604082015260006122db6060830184611c81565b95945050505050565b6000826122f3576122f36121bc565b500690565b600181815b8085111561233357816000190482111561231957612319612021565b8085161561232657918102915b93841c93908002906122fd565b509250929050565b60008261234a57506001611239565b8161235757506000611239565b816001811461236d576002811461237757612393565b6001915050611239565b60ff84111561238857612388612021565b50506001821b611239565b5060208310610133831016604e8410600b84101617156123b6575081810a611239565b6123c083836122f8565b80600019048211156123d4576123d4612021565b029392505050565b6000611998838361233b56fea2646970667358221220438bcf188e1c9a597b45a4ec514ade04621fbdaf8dad4c5a806b6c2fd6527e9564736f6c63430008190033","linkReferences":{}},"methodIdentifiers":{"acceptOwnership()":"79ba5097","cancelRequest(bytes32,uint256,bytes4,uint256)":"ec65d0f8","fulfillDisperseData(bytes32,string,string)":"5adf4718","getChainlinkToken()":"165d35e1","owner()":"8da5cb5b","projectIndex(string)":"3178c814","projectVerifier()":"626e5f94","readTestInput()":"113f9f82","readTestOutput()":"682dbfde","requestDisperseData(bool,uint256,uint256,string,string)":"9564c0a2","setProjectVerifier(address)":"114bd73b","testInput()":"eca51d53","testOutput()":"c1cb256f","transferOwnership(address)":"f2fde38b","updateProjectState(address,string)":"34f10858","userDetails(address)":"48dec2a7","whitelistUser(address)":"4a4c560d","withdrawLink()":"8dc654a2"},"id":72}