{"abi":[{"type":"function","name":"getQuorumAdversaryThreshold","inputs":[{"name":"eigenDAServiceManager","type":"IEigenDAServiceManager","internalType":"contract IEigenDAServiceManager"},{"name":"quorumNumber","type":"uint256","internalType":"uint256"}],"outputs":[{"name":"adversaryThresholdPercentage","type":"uint8","internalType":"uint8"}],"stateMutability":"view"},{"type":"function","name":"verifyBlob","inputs":[{"name":"blobHeader","type":"tuple","internalType":"struct IEigenDAServiceManager.BlobHeader","components":[{"name":"commitment","type":"tuple","internalType":"struct BN254.G1Point","components":[{"name":"X","type":"uint256","internalType":"uint256"},{"name":"Y","type":"uint256","internalType":"uint256"}]},{"name":"dataLength","type":"uint32","internalType":"uint32"},{"name":"quorumBlobParams","type":"tuple[]","internalType":"struct IEigenDAServiceManager.QuorumBlobParam[]","components":[{"name":"quorumNumber","type":"uint8","internalType":"uint8"},{"name":"adversaryThresholdPercentage","type":"uint8","internalType":"uint8"},{"name":"confirmationThresholdPercentage","type":"uint8","internalType":"uint8"},{"name":"chunkLength","type":"uint32","internalType":"uint32"}]}]},{"name":"eigenDAServiceManager","type":"IEigenDAServiceManager","internalType":"contract IEigenDAServiceManager"},{"name":"blobVerificationProof","type":"tuple","internalType":"struct EigenDARollupUtils.BlobVerificationProof","components":[{"name":"batchId","type":"uint32","internalType":"uint32"},{"name":"blobIndex","type":"uint32","internalType":"uint32"},{"name":"batchMetadata","type":"tuple","internalType":"struct IEigenDAServiceManager.BatchMetadata","components":[{"name":"batchHeader","type":"tuple","internalType":"struct IEigenDAServiceManager.BatchHeader","components":[{"name":"blobHeadersRoot","type":"bytes32","internalType":"bytes32"},{"name":"quorumNumbers","type":"bytes","internalType":"bytes"},{"name":"signedStakeForQuorums","type":"bytes","internalType":"bytes"},{"name":"referenceBlockNumber","type":"uint32","internalType":"uint32"}]},{"name":"signatoryRecordHash","type":"bytes32","internalType":"bytes32"},{"name":"confirmationBlockNumber","type":"uint32","internalType":"uint32"}]},{"name":"inclusionProof","type":"bytes","internalType":"bytes"},{"name":"quorumIndices","type":"bytes","internalType":"bytes"}]}],"outputs":[],"stateMutability":"view"}],"bytecode":{"object":"0x6114a9610039600b82828239805160001a607314602c57634e487b7160e01b600052600060045260246000fd5b30600052607381538281f3fe73000000000000000000000000000000000000000030146080604052600436106100405760003560e01c80638651838414610045578063ecad0b521461005a575b600080fd5b610058610053366004610d03565b610083565b005b61006d610068366004610d87565b610891565b60405160ff909116815260200160405180910390f35b6001600160a01b03821663eccbbfc961009f6020840184610dc5565b6040516001600160e01b031960e084901b16815263ffffffff919091166004820152602401602060405180830381865afa1580156100e1573d6000803e3d6000fd5b505050506040513d601f19601f820116820180604052508101906101059190610de7565b6101236101156040840184610e00565b61011e90610f54565b610989565b146101af5760405162461bcd60e51b815260206004820152604b60248201527f456967656e4441526f6c6c75705574696c732e766572696679426c6f623a206260448201527f617463684d6574616461746120646f6573206e6f74206d617463682073746f7260648201526a6564206d6574616461746160a81b608482015260a4015b60405180910390fd5b6102636101bf6060830183611025565b8080601f016020809104026020016040519081016040528093929190818152602001838380828437600092019190915250610201925050506040840184610e00565b61020b9080611073565b3561021d6102188761109a565b6109fa565b60405160200161022f91815260200190565b604051602081830303815290604052805190602001208460200160208101906102589190610dc5565b63ffffffff16610a2a565b6102d55760405162461bcd60e51b815260206004820152603960248201527f456967656e4441526f6c6c75705574696c732e766572696679426c6f623a206960448201527f6e636c7573696f6e2070726f6f6620697320696e76616c69640000000000000060648201526084016101a6565b6000805b6102e660608601866111e1565b905081101561077a576102fc60608601866111e1565b8281811061030c5761030c61122b565b6103229260206080909202019081019150611241565b60ff166103326040850185610e00565b61033c9080611073565b61034a906020810190611025565b6103576080870187611025565b858181106103675761036761122b565b919091013560f81c90508181106103805761038061122b565b9050013560f81c60f81b60f81c60ff16146104035760405162461bcd60e51b815260206004820152603a60248201527f456967656e4441526f6c6c75705574696c732e766572696679426c6f623a207160448201527f756f72756d4e756d62657220646f6573206e6f74206d6174636800000000000060648201526084016101a6565b61041060608601866111e1565b828181106104205761042061122b565b90506080020160400160208101906104389190611241565b60ff1661044860608701876111e1565b838181106104585761045861122b565b90506080020160200160208101906104709190611241565b60ff16106104f75760405162461bcd60e51b815260206004820152604860248201527f456967656e4441526f6c6c75705574696c732e766572696679426c6f623a206160448201527f64766572736172795468726573686f6c6450657263656e74616765206973206e6064820152671bdd081d985b1a5960c21b608482015260a4016101a6565b60006105388561050a60608901896111e1565b8581811061051a5761051a61122b565b6105309260206080909202019081019150611241565b60ff16610891565b905060ff8116156106025760ff811661055460608801886111e1565b848181106105645761056461122b565b905060800201602001602081019061057c9190611241565b60ff1610156106025760405162461bcd60e51b815260206004820152604660248201527f456967656e4441526f6c6c75705574696c732e766572696679426c6f623a206160448201527f64766572736172795468726573686f6c6450657263656e74616765206973206e6064820152651bdd081b595d60d21b608482015260a4016101a6565b61060f60608701876111e1565b8381811061061f5761061f61122b565b90506080020160400160208101906106379190611241565b60ff166106476040860186610e00565b6106519080611073565b61065f906040810190611025565b61066c6080880188611025565b8681811061067c5761067c61122b565b919091013560f81c90508181106106955761069561122b565b9050013560f81c60f81b60f81c60ff16101561072b5760405162461bcd60e51b815260206004820152604960248201527f456967656e4441526f6c6c75705574696c732e766572696679426c6f623a206360448201527f6f6e6669726d6174696f6e5468726573686f6c6450657263656e7461676520696064820152681cc81b9bdd081b595d60ba1b608482015260a4016101a6565b61076f8361073c60608901896111e1565b8581811061074c5761074c61122b565b6107629260206080909202019081019150611241565b600160ff919091161b1790565b9250506001016102d9565b506107f36107ec846001600160a01b031663e15234ff6040518163ffffffff1660e01b8152600401600060405180830381865afa1580156107bf573d6000803e3d6000fd5b505050506040513d6000823e601f3d908101601f191682016040526107e79190810190611280565b610a42565b8281161490565b61088b5760405162461bcd60e51b815260206004820152605960248201527f456967656e4441526f6c6c75705574696c732e766572696679426c6f623a207260448201527f657175697265642071756f72756d7320617265206e6f7420612073756273657460648201527f206f662074686520636f6e6669726d65642071756f72756d7300000000000000608482015260a4016101a6565b50505050565b600081836001600160a01b0316638687feae6040518163ffffffff1660e01b8152600401600060405180830381865afa1580156108d2573d6000803e3d6000fd5b505050506040513d6000823e601f3d908101601f191682016040526108fa9190810190611280565b51111561098357826001600160a01b0316638687feae6040518163ffffffff1660e01b8152600401600060405180830381865afa15801561093f573d6000803e3d6000fd5b505050506040513d6000823e601f3d908101601f191682016040526109679190810190611280565b82815181106109785761097861122b565b016020015160f81c90505b92915050565b600061098382600001516040516020016109a39190611323565b60408051808303601f1901815282825280516020918201208682015187840151838601929092528484015260e01b6001600160e01b0319166060840152815160448185030181526064909301909152815191012090565b600081604051602001610a0d9190611383565b604051602081830303815290604052805190602001209050919050565b600083610a38868585610bca565b1495945050505050565b600061010082511115610acb5760405162461bcd60e51b8152602060048201526044602482018190527f4269746d61705574696c732e6f72646572656442797465734172726179546f42908201527f69746d61703a206f7264657265644279746573417272617920697320746f6f206064820152636c6f6e6760e01b608482015260a4016101a6565b8151600003610adc57506000919050565b60008083600081518110610af257610af261122b565b0160200151600160f89190911c81901b92505b8451811015610bc157848181518110610b2057610b2061122b565b0160200151600160f89190911c1b9150828211610bb55760405162461bcd60e51b815260206004820152604760248201527f4269746d61705574696c732e6f72646572656442797465734172726179546f4260448201527f69746d61703a206f72646572656442797465734172726179206973206e6f74206064820152661bdc99195c995960ca1b608482015260a4016101a6565b91811791600101610b05565b50909392505050565b60008351600014158015610be9575060208451610be79190611430565b155b610c785760405162461bcd60e51b815260206004820152605460248201527f4d65726b6c652e70726f63657373496e636c7573696f6e50726f6f664b65636360448201527f616b3a2070726f6f66206c656e6774682073686f756c642062652061206e6f6e60648201527316bd32b9379036bab63a34b836329037b310199960611b608482015260a4016101a6565b8260205b85518111610cde57610c8f600285611430565b600003610cb357816000528086015160205260406000209150600284049350610ccc565b8086015160005281602052604060002091506002840493505b610cd7602082611452565b9050610c7c565b50949350505050565b80356001600160a01b0381168114610cfe57600080fd5b919050565b600080600060608486031215610d1857600080fd5b833567ffffffffffffffff80821115610d3057600080fd5b9085019060808288031215610d4457600080fd5b819450610d5360208701610ce7565b93506040860135915080821115610d6957600080fd5b50840160a08187031215610d7c57600080fd5b809150509250925092565b60008060408385031215610d9a57600080fd5b610da383610ce7565b946020939093013593505050565b803563ffffffff81168114610cfe57600080fd5b600060208284031215610dd757600080fd5b610de082610db1565b9392505050565b600060208284031215610df957600080fd5b5051919050565b60008235605e19833603018112610e1657600080fd5b9190910192915050565b634e487b7160e01b600052604160045260246000fd5b6040516060810167ffffffffffffffff81118282101715610e5957610e59610e20565b60405290565b6040516080810167ffffffffffffffff81118282101715610e5957610e59610e20565b6040805190810167ffffffffffffffff81118282101715610e5957610e59610e20565b604051601f8201601f1916810167ffffffffffffffff81118282101715610ece57610ece610e20565b604052919050565b600067ffffffffffffffff821115610ef057610ef0610e20565b50601f01601f191660200190565b600082601f830112610f0f57600080fd5b8135610f22610f1d82610ed6565b610ea5565b818152846020838601011115610f3757600080fd5b816020850160208301376000918101602001919091529392505050565b600060608236031215610f6657600080fd5b610f6e610e36565b823567ffffffffffffffff80821115610f8657600080fd5b818501915060808236031215610f9b57600080fd5b610fa3610e5f565b82358152602083013582811115610fb957600080fd5b610fc536828601610efe565b602083015250604083013582811115610fdd57600080fd5b610fe936828601610efe565b604083015250610ffb60608401610db1565b6060820152835250506020838101359082015261101a60408401610db1565b604082015292915050565b6000808335601e1984360301811261103c57600080fd5b83018035915067ffffffffffffffff82111561105757600080fd5b60200191503681900382131561106c57600080fd5b9250929050565b60008235607e19833603018112610e1657600080fd5b803560ff81168114610cfe57600080fd5b60008136036080808212156110ae57600080fd5b6110b6610e36565b6040808412156110c557600080fd5b6110cd610e82565b935085358452602080870135818601528483526110ec60408801610db1565b8184015260609450606087013567ffffffffffffffff8082111561110f57600080fd5b9088019036601f83011261112257600080fd5b81358181111561113457611134610e20565b611142848260051b01610ea5565b818152848101925060079190911b83018401903682111561116257600080fd5b928401925b818410156111ce5787843603121561117f5760008081fd5b611187610e5f565b61119085611089565b815261119d868601611089565b868201526111ac878601611089565b878201526111bb8a8601610db1565b818b015283529287019291840191611167565b6040870152509398975050505050505050565b6000808335601e198436030181126111f857600080fd5b83018035915067ffffffffffffffff82111561121357600080fd5b6020019150600781901b360382131561106c57600080fd5b634e487b7160e01b600052603260045260246000fd5b60006020828403121561125357600080fd5b610de082611089565b60005b8381101561127757818101518382015260200161125f565b50506000910152565b60006020828403121561129257600080fd5b815167ffffffffffffffff8111156112a957600080fd5b8201601f810184136112ba57600080fd5b80516112c8610f1d82610ed6565b8181528560208385010111156112dd57600080fd5b6112ee82602083016020860161125c565b95945050505050565b6000815180845261130f81602086016020860161125c565b601f01601f19169290920160200192915050565b6020815281516020820152600060208301516080604084015261134960a08401826112f7565b90506040840151601f1984830301606085015261136682826112f7565b91505063ffffffff60608501511660808401528091505092915050565b6000602080835260a0830184518051838601528281015190506040816040870152838701519150606063ffffffff80841660608901526040890151935060808060808a015285855180885260c08b0191508887019750600096505b80871015611421578751805160ff90811684528a82015181168b8501528782015116878401528501518416858301529688019660019690960195908201906113de565b509a9950505050505050505050565b60008261144d57634e487b7160e01b600052601260045260246000fd5b500690565b8082018082111561098357634e487b7160e01b600052601160045260246000fdfea26469706673582212205e0d4e672ba4d02882457af8abb2fb4b9a4a56d7d10451b39ffbc1b49115946864736f6c63430008190033","linkReferences":{}},"methodIdentifiers":{"getQuorumAdversaryThreshold(IEigenDAServiceManager,uint256)":"ecad0b52","verifyBlob(IEigenDAServiceManager.BlobHeader,IEigenDAServiceManager,EigenDARollupUtils.BlobVerificationProof)":"86518384"},"id":72}