{"abi":[{"type":"constructor","inputs":[],"stateMutability":"nonpayable"},{"type":"function","name":"acceptOwnership","inputs":[],"outputs":[],"stateMutability":"nonpayable"},{"type":"function","name":"cancelRequest","inputs":[{"name":"_requestId","type":"bytes32","internalType":"bytes32"},{"name":"_payment","type":"uint256","internalType":"uint256"},{"name":"_callbackFunctionId","type":"bytes4","internalType":"bytes4"},{"name":"_expiration","type":"uint256","internalType":"uint256"}],"outputs":[],"stateMutability":"nonpayable"},{"type":"function","name":"fulfillConfirmData","inputs":[{"name":"_requestId","type":"bytes32","internalType":"bytes32"},{"name":"_isConfirmed","type":"bool","internalType":"bool"}],"outputs":[],"stateMutability":"nonpayable"},{"type":"function","name":"fulfillDisperseData","inputs":[{"name":"_requestId","type":"bytes32","internalType":"bytes32"},{"name":"_dispersalID","type":"string","internalType":"string"},{"name":"_lastUpdatedHeadCID","type":"string","internalType":"string"}],"outputs":[],"stateMutability":"nonpayable"},{"type":"function","name":"getChainlinkToken","inputs":[],"outputs":[{"name":"","type":"address","internalType":"address"}],"stateMutability":"view"},{"type":"function","name":"owner","inputs":[],"outputs":[{"name":"","type":"address","internalType":"address"}],"stateMutability":"view"},{"type":"function","name":"projectIndex","inputs":[{"name":"","type":"string","internalType":"string"}],"outputs":[{"name":"","type":"uint256","internalType":"uint256"}],"stateMutability":"view"},{"type":"function","name":"projectVerifier","inputs":[],"outputs":[{"name":"","type":"address","internalType":"address"}],"stateMutability":"view"},{"type":"function","name":"requestConfirmData","inputs":[{"name":"_user","type":"address","internalType":"address"},{"name":"_projectName","type":"string","internalType":"string"}],"outputs":[],"stateMutability":"nonpayable"},{"type":"function","name":"requestDisperseData","inputs":[{"name":"_isSubscription","type":"bool","internalType":"bool"},{"name":"_start","type":"uint256","internalType":"uint256"},{"name":"_end","type":"uint256","internalType":"uint256"},{"name":"_projectName","type":"string","internalType":"string"},{"name":"_cid","type":"string","internalType":"string"}],"outputs":[],"stateMutability":"nonpayable"},{"type":"function","name":"setProjectVerifier","inputs":[{"name":"_projectVerifier","type":"address","internalType":"address"}],"outputs":[],"stateMutability":"nonpayable"},{"type":"function","name":"transferOwnership","inputs":[{"name":"to","type":"address","internalType":"address"}],"outputs":[],"stateMutability":"nonpayable"},{"type":"function","name":"updateProjectState","inputs":[{"name":"_user","type":"address","internalType":"address"},{"name":"_projectName","type":"string","internalType":"string"}],"outputs":[],"stateMutability":"nonpayable"},{"type":"function","name":"userDetails","inputs":[{"name":"","type":"address","internalType":"address"}],"outputs":[{"name":"whitelisted","type":"bool","internalType":"bool"}],"stateMutability":"view"},{"type":"function","name":"whitelistUser","inputs":[{"name":"_userID","type":"address","internalType":"address"}],"outputs":[],"stateMutability":"nonpayable"},{"type":"function","name":"withdrawLink","inputs":[],"outputs":[],"stateMutability":"nonpayable"},{"type":"event","name":"ChainlinkCancelled","inputs":[{"name":"id","type":"bytes32","indexed":true,"internalType":"bytes32"}],"anonymous":false},{"type":"event","name":"ChainlinkFulfilled","inputs":[{"name":"id","type":"bytes32","indexed":true,"internalType":"bytes32"}],"anonymous":false},{"type":"event","name":"ChainlinkRequested","inputs":[{"name":"id","type":"bytes32","indexed":true,"internalType":"bytes32"}],"anonymous":false},{"type":"event","name":"OwnershipTransferRequested","inputs":[{"name":"from","type":"address","indexed":true,"internalType":"address"},{"name":"to","type":"address","indexed":true,"internalType":"address"}],"anonymous":false},{"type":"event","name":"OwnershipTransferred","inputs":[{"name":"from","type":"address","indexed":true,"internalType":"address"},{"name":"to","type":"address","indexed":true,"internalType":"address"}],"anonymous":false},{"type":"event","name":"RequestConfirmDataFulfilled","inputs":[{"name":"requestId","type":"bytes32","indexed":false,"internalType":"bytes32"},{"name":"confirmed","type":"bool","indexed":true,"internalType":"bool"},{"name":"projectID","type":"string","indexed":true,"internalType":"string"},{"name":"projectVerifier","type":"address","indexed":true,"internalType":"address"}],"anonymous":false},{"type":"event","name":"RequestDisperseDataFulfilled","inputs":[{"name":"requestId","type":"bytes32","indexed":false,"internalType":"bytes32"},{"name":"dispersalRequestID","type":"string","indexed":true,"internalType":"string"},{"name":"lastUpdatedHeadCID","type":"string","indexed":true,"internalType":"string"}],"anonymous":false},{"type":"error","name":"StringsInsufficientHexLength","inputs":[{"name":"value","type":"uint256","internalType":"uint256"},{"name":"length","type":"uint256","internalType":"uint256"}]}],"bytecode":{"object":"0x60806040526001600455600880546001600160a01b031916738032b4dba3779b6836b4c69203bb1d3b4f92908b17905534801561003b57600080fd5b5033806000816100925760405162461bcd60e51b815260206004820152601860248201527f43616e6e6f7420736574206f776e657220746f207a65726f000000000000000060448201526064015b60405180910390fd5b600680546001600160a01b0319166001600160a01b03848116919091179091558116156100c2576100c2816100ed565b5050506100e873d27376e609bf32b506535efe2bf1303a74eb546761019760201b60201c565b6101b9565b336001600160a01b038216036101455760405162461bcd60e51b815260206004820152601760248201527f43616e6e6f74207472616e7366657220746f2073656c660000000000000000006044820152606401610089565b600780546001600160a01b0319166001600160a01b03838116918217909255600654604051919216907fed8889f560326eb138920d842192f0eb3dd22b4f139c87a2c57538e05bae127890600090a350565b600280546001600160a01b0319166001600160a01b0392909216919091179055565b6128b2806101c86000396000f3fe608060405234801561001057600080fd5b50600436106101005760003560e01c80635c734115116100975780638dc654a2116100665780638dc654a2146102365780639564c0a21461023e578063ec65d0f814610251578063f2fde38b1461026457600080fd5b80635c734115146101f7578063626e5f941461020a57806379ba50971461021d5780638da5cb5b1461022557600080fd5b806348dec2a7116100d357806348dec2a71461018b5780634a4c560d146101be57806350c9230d146101d15780635adf4718146101e457600080fd5b8063114bd73b14610105578063165d35e11461011a5780633178c8141461013f57806334f1085814610178575b600080fd5b6101186101133660046120d2565b610277565b005b6101226102a1565b6040516001600160a01b0390911681526020015b60405180910390f35b61016a61014d36600461218f565b8051602081830181018051600a8252928201919093012091525481565b604051908152602001610136565b6101186101863660046121c3565b6102ba565b6101ae6101993660046120d2565b60096020526000908152604090205460ff1681565b6040519015158152602001610136565b6101186101cc3660046120d2565b61063a565b6101186101df36600461221e565b6106cf565b6101186101f236600461224e565b6109d6565b6101186102053660046121c3565b610c4e565b600854610122906001600160a01b031681565b610118610fc7565b6006546001600160a01b0316610122565b610118611075565b61011861024c3660046122ba565b6111b9565b61011861025f366004612343565b611590565b6101186102723660046120d2565b6115aa565b61027f6115bb565b600880546001600160a01b0319166001600160a01b0392909216919091179055565b60006102b56002546001600160a01b031690565b905090565b60006102c68383611610565b90506000600a826040516102da91906123b3565b9081526020016040518091039020549050600081116103145760405162461bcd60e51b815260040161030b906123cf565b60405180910390fd5b6001600160a01b038416600090815260096020526040812060019081019061033c9084612410565b8154811061034c5761034c612423565b600091825260209182902060408051610120810182526008909302909101805460ff8082161515855261010090910416938301939093526001830154908201526002820154606082015260038201546080820152600482015460a082015260058201805491929160c0840191906103c290612439565b80601f01602080910402602001604051908101604052809291908181526020018280546103ee90612439565b801561043b5780601f106104105761010080835404028352916020019161043b565b820191906000526020600020905b81548152906001019060200180831161041e57829003601f168201915b5050505050815260200160068201805461045490612439565b80601f016020809104026020016040519081016040528092919081815260200182805461048090612439565b80156104cd5780601f106104a2576101008083540402835291602001916104cd565b820191906000526020600020905b8154815290600101906020018083116104b057829003601f168201915b505050505081526020016007820180546104e690612439565b80601f016020809104026020016040519081016040528092919081815260200182805461051290612439565b801561055f5780601f106105345761010080835404028352916020019161055f565b820191906000526020600020905b81548152906001019060200180831161054257829003601f168201915b5050505050815250509050428160a00151101561060a576001600160a01b03851660009081526009602052604090206003906001908101906105a19085612410565b815481106105b1576105b1612423565b60009182526020909120600890910201805460ff929092166101000261ff0019909216919091179055805115610605576040810151606082015160c083015161060290600190849084908a906111b9565b50505b610633565b4281608001511080156106245750806020015160ff166001145b15610633576106338585610c4e565b5050505050565b6106426115bb565b6001600160a01b03811660009081526009602052604090205460ff16156106ab5760405162461bcd60e51b815260206004820152601860248201527f7573657220616c72656164792077686974656c69737465640000000000000000604482015260640161030b565b6001600160a01b03166000908152600960205260409020805460ff19166001179055565b60008281526005602052604090205482906001600160a01b031633146107075760405162461bcd60e51b815260040161030b9061246d565b60008181526005602052604080822080546001600160a01b03191690555182917f7cc135e0cebb02c3480ae5d74d377283180a2601f8f644edf7987b009316c63a91a26000838152600b602052604081208054600190910180546001600160a01b03909216929161077790612439565b80601f01602080910402602001604051908101604052809291908181526020018280546107a390612439565b80156107f05780601f106107c5576101008083540402835291602001916107f0565b820191906000526020600020905b8154815290600101906020018083116107d357829003601f168201915b505050505090506000600a8260405161080991906123b3565b9081526020016040518091039020549050841561094157600854604051633623e2a960e11b81526001600160a01b0390911690636c47c552906108509085906004016124e1565b600060405180830381600087803b15801561086a57600080fd5b505af115801561087e573d6000803e3d6000fd5b5050506001600160a01b0384166000908152600960205260409020600291506001908101906108ad9084612410565b815481106108bd576108bd612423565b60009182526020909120600890910201805460ff929092166101000261ff00199092169190911790556108f342620d2f006124f4565b6001600160a01b038416600090815260096020526040902060019081019061091b9084612410565b8154811061092b5761092b612423565b9060005260206000209060080201600401819055505b6008546040516001600160a01b039091169061095e9084906123b3565b60405180910390208615157f27ba9a475b834dc3333cbf286869a81c8c50c858296e64a37de4a83c26ff3adc8960405161099a91815260200190565b60405180910390a46000868152600b6020526040812080546001600160a01b0319168155906109cc6001830182612028565b5050505050505050565b60008381526005602052604090205483906001600160a01b03163314610a0e5760405162461bcd60e51b815260040161030b9061246d565b60008181526005602052604080822080546001600160a01b03191690555182917f7cc135e0cebb02c3480ae5d74d377283180a2601f8f644edf7987b009316c63a91a281604051610a5f91906123b3565b604051809103902083604051610a7591906123b3565b604051908190038120868252907f8b52207fce6980cb21677901b8ecbc6b81748f347a9e3171cf167b7b4ed2f9a09060200160405180910390a36000848152600b602052604081208054600190910180546001600160a01b039092169291610adc90612439565b80601f0160208091040260200160405190810160405280929190818152602001828054610b0890612439565b8015610b555780601f10610b2a57610100808354040283529160200191610b55565b820191906000526020600020905b815481529060010190602001808311610b3857829003601f168201915b505050505090506000600a82604051610b6e91906123b3565b908152602001604051809103902054905060008111610b9f5760405162461bcd60e51b815260040161030b906123cf565b6001600160a01b0383166000908152600960205260408120600190810190610bc79084612410565b81548110610bd757610bd7612423565b9060005260206000209060080201905042610258610bf591906124f4565b600382015560068101610c088882612557565b5060078101610c178782612557565b506000888152600b6020526040812080546001600160a01b031916815590610c426001830182612028565b50505050505050505050565b6000610c817f38383038353338616562326434333039613333616631656463396665623435326350c9230d60e01b611650565b3360009081526009602052604090205490915060ff168015610cbb57506001600160a01b03831660009081526009602052604090205460ff165b610d075760405162461bcd60e51b815260206004820152601760248201527f75736572287329206e6f742077686974656c6973746564000000000000000000604482015260640161030b565b6000610d138484611610565b90506000600a82604051610d2791906123b3565b908152602001604051809103902054905060008111610d585760405162461bcd60e51b815260040161030b906123cf565b6001600160a01b03851660009081526009602052604090204290600190810190610d829084612410565b81548110610d9257610d92612423565b90600052602060002090600802016003015410610ddf5760405162461bcd60e51b815260206004820152600b60248201526a1c1b19585cd9481dd85a5d60aa1b604482015260640161030b565b6040805180820190915260098152681c1c9bda9958dd125160ba1b6020820152610e0b90849084611674565b610f2860405180604001604052806012815260200171191a5cdc195c9cd85b14995c5d595cdd125160721b81525060096000886001600160a01b03166001600160a01b03168152602001908152602001600020600101600184610e6e9190612410565b81548110610e7e57610e7e612423565b90600052602060002090600802016006018054610e9a90612439565b80601f0160208091040260200160405190810160405280929190818152602001828054610ec690612439565b8015610f135780601f10610ee857610100808354040283529160200191610f13565b820191906000526020600020905b815481529060010190602001808311610ef657829003601f168201915b5050505050856116749092919063ffffffff16565b6000610f6673ccda5e49ff369640edfa0fb58fb6af165b53b8b585600a610f57670de0b6b3a764000086612616565b610f619190612643565b611697565b6040805180820182526001600160a01b03898116825260208083018881526000868152600b909252939020825181546001600160a01b03191692169190911781559151929350916001820190610fbc9082612557565b505050505050505050565b6007546001600160a01b0316331461101a5760405162461bcd60e51b815260206004820152601660248201527526bab9ba10313290383937b837b9b2b21037bbb732b960511b604482015260640161030b565b600680546001600160a01b0319808216339081179093556007805490911690556040516001600160a01b03909116919082907f8be0079c531659141344cd1fd0a4f28419497f9722a3daafe3b4186f6b6457e090600090a350565b61107d6115bb565b60006110916002546001600160a01b031690565b6040516370a0823160e01b81523060048201529091506001600160a01b0382169063a9059cbb90339083906370a0823190602401602060405180830381865afa1580156110e2573d6000803e3d6000fd5b505050506040513d601f19601f820116820180604052508101906111069190612657565b6040516001600160e01b031960e085901b1681526001600160a01b03909216600483015260248201526044016020604051808303816000875af1158015611151573d6000803e3d6000fd5b505050506040513d601f19601f820116820180604052508101906111759190612670565b6111b65760405162461bcd60e51b81526020600482015260126024820152712ab730b13632903a37903a3930b739b332b960711b604482015260640161030b565b50565b3360009081526009602052604090205460ff1661120f5760405162461bcd60e51b81526020600482015260146024820152731d5cd95c881b9bdd081dda1a5d195b1a5cdd195960621b604482015260640161030b565b60006112427f6561663231373035343564633437393361616464313961613364633832643636630b5be8e360e31b611650565b905060006112503385611610565b6040805180820190915260098152681c1c9bda9958dd125160ba1b602082015290915061127f90839083611674565b60408051808201909152600381526218da5960ea1b60208201526112a590839085611674565b6040805180820190915260058152641cdd185c9d60da1b60208201526112cd9083908861172a565b604080518082019091526003815262195b9960ea1b60208201526112f39083908761172a565b600061132273ccda5e49ff369640edfa0fb58fb6af165b53b8b584600a610f57670de0b6b3a764000086612616565b60408051808201825233815260208082018681526000858152600b909252929020815181546001600160a01b0319166001600160a01b0390911617815591519293509160018201906113749082612557565b509050506000600a8360405161138a91906123b3565b90815260408051602092819003830190205433600090815260099093529082209092506001019082900361150357806040518061012001604052808c15158152602001600160ff1681526020018b81526020018a81526020014260786113f091906124f4565b815260200161140242620d2f006124f4565b815260208082018a90526040805180830182526000808252828501919091528151808401835281815260609485015285546001818101885596825290839020855160089092020180549386015160ff166101000261ff00199215159290921661ffff19909416939093171782558301519381019390935581015160028301556080810151600383015560a0810151600483015560c081015190919060058201906114ac9082612557565b5060e082015160068201906114c19082612557565b5061010082015160078201906114d79082612557565b5050508080549050915081600a856040516114f291906123b3565b908152604051908190036020019020555b6001816115108285612410565b8154811061152057611520612423565b60009182526020909120600890910201805460ff929092166101000261ff00199092169190911790558581611556600185612410565b8154811061156657611566612423565b906000526020600020906008020160050190816115839190612557565b5050505050505050505050565b6115986115bb565b6115a484848484611748565b50505050565b6115b26115bb565b6111b68161180f565b6006546001600160a01b0316331461160e5760405162461bcd60e51b815260206004820152601660248201527527b7363c9031b0b63630b1363290313c9037bbb732b960511b604482015260640161030b565b565b6060611626836001600160a01b031660146118b9565b8260405160200161163892919061268d565b60405160208183030381529060405290505b92915050565b611658612062565b611660612062565b61166c81853086611a30565b949350505050565b60808301516116839083611a6d565b60808301516116929082611a6d565b505050565b6004546000906116a88160016124f4565b600455835160408086015160808701515191516000936320214ca360e11b936116e09386938493923092918a916001916024016126c9565b60408051601f198184030181529190526020810180516001600160e01b03166001600160e01b031990931692909217909152905061172086838684611a84565b9695505050505050565b60808301516117399083611a6d565b60808301516116929082611be2565b60008481526005602052604080822080546001600160a01b0319811690915590516001600160a01b039091169186917fe1fe3afa0f7f761ff0a8b89086790efd5140d2907ebd5b7ff6bfcb5e075fd4c59190a2604051636ee4d55360e01b815260048101869052602481018590526001600160e01b031984166044820152606481018390526001600160a01b03821690636ee4d55390608401600060405180830381600087803b1580156117fb57600080fd5b505af1158015610fbc573d6000803e3d6000fd5b336001600160a01b038216036118675760405162461bcd60e51b815260206004820152601760248201527f43616e6e6f74207472616e7366657220746f2073656c66000000000000000000604482015260640161030b565b600780546001600160a01b0319166001600160a01b03838116918217909255600654604051919216907fed8889f560326eb138920d842192f0eb3dd22b4f139c87a2c57538e05bae127890600090a350565b60608260006118c9846002612616565b6118d49060026124f4565b6001600160401b038111156118eb576118eb6120ed565b6040519080825280601f01601f191660200182016040528015611915576020820181803683370190505b509050600360fc1b8160008151811061193057611930612423565b60200101906001600160f81b031916908160001a905350600f60fb1b8160018151811061195f5761195f612423565b60200101906001600160f81b031916908160001a9053506000611983856002612616565b61198e9060016124f4565b90505b6001811115611a06576f181899199a1a9b1b9c1cb0b131b232b360811b83600f16601081106119c2576119c2612423565b1a60f81b8282815181106119d8576119d8612423565b60200101906001600160f81b031916908160001a90535060049290921c916119ff81612731565b9050611991565b50811561166c5760405163e22e27eb60e01b8152600481018690526024810185905260440161030b565b611a38612062565b611a488560800151610100611c0b565b50509183526001600160a01b031660208301526001600160e01b031916604082015290565b611a7a8260038351611c70565b6116928282611d77565b6040516bffffffffffffffffffffffff193060601b1660208201526034810184905260009060540160408051808303601f1901815282825280516020918201206000818152600590925291812080546001600160a01b0319166001600160a01b038a1617905590925082917fb5e6e01e79f91267dc17b4e6314d5d4d03593d2ceee0fbb452b750bd70ea5af99190a2600254604051630200057560e51b81526001600160a01b0390911690634000aea090611b4790889087908790600401612748565b6020604051808303816000875af1158015611b66573d6000803e3d6000fd5b505050506040513d601f19601f82011682018060405250810190611b8a9190612670565b61166c5760405162461bcd60e51b815260206004820152602360248201527f756e61626c6520746f207472616e73666572416e6443616c6c20746f206f7261604482015262636c6560e81b606482015260840161030b565b6001600160401b03811115611bff57611bfb8282611da5565b5050565b611bfb82600083611c70565b604080518082019091526060815260006020820152611c2b602083612778565b15611c5357611c3b602083612778565b611c46906020612410565b611c5090836124f4565b91505b506020828101829052604080518085526000815290920101905290565b6017816001600160401b031611611c94576115a48360e0600585901b168317611ddc565b60ff816001600160401b031611611cd057611cba836018611fe0600586901b1617611ddc565b506115a4836001600160401b0383166001611e01565b61ffff816001600160401b031611611d0d57611cf7836019611fe0600586901b1617611ddc565b506115a4836001600160401b0383166002611e01565b63ffffffff816001600160401b031611611d4c57611d3683601a611fe0600586901b1617611ddc565b506115a4836001600160401b0383166004611e01565b611d6183601b611fe0600586901b1617611ddc565b506115a4836001600160401b0383166008611e01565b604080518082019091526060815260006020820152611d9e83846000015151848551611e27565b9392505050565b611db08260c2611ddc565b50611bfb8282604051602001611dc891815260200190565b604051602081830303815290604052611f11565b604080518082019091526060815260006020820152611d9e8384600001515184611f1e565b60408051808201909152606081526000602082015261166c848560000151518585611f79565b6040805180820190915260608152600060208201528251821115611e4a57600080fd5b6020850151611e5983866124f4565b1115611e8c57611e8c85611e7c87602001518786611e7791906124f4565b611ffa565b611e87906002612616565b612011565b600080865180518760208301019350808887011115611eab5787860182525b505050602084015b60208410611eeb5780518252611eca6020836124f4565b9150611ed76020826124f4565b9050611ee4602085612410565b9350611eb3565b51815160001960208690036101000a019081169019919091161790525083949350505050565b611a7a8260028351611c70565b60408051808201909152606081526000602082015283602001518310611f5357611f538485602001516002611e879190612616565b8351805160208583010184815350808503611f6f576001810182525b5093949350505050565b6040805180820190915260608152600060208201526020850151611f9d85846124f4565b1115611fb157611fb185611e7c86856124f4565b60006001611fc184610100612870565b611fcb9190612410565b9050855183868201018583198251161781525080518487011115611fef5783860181525b509495945050505050565b60008183111561200b57508161164a565b50919050565b815161201d8383611c0b565b506115a48382611d77565b50805461203490612439565b6000825580601f10612044575050565b601f0160209004906000526020600020908101906111b6919061209d565b6040805160a0810182526000808252602080830182905282840182905260608084018390528451808601909552845283015290608082015290565b5b808211156120b2576000815560010161209e565b5090565b80356001600160a01b03811681146120cd57600080fd5b919050565b6000602082840312156120e457600080fd5b611d9e826120b6565b634e487b7160e01b600052604160045260246000fd5b600082601f83011261211457600080fd5b81356001600160401b038082111561212e5761212e6120ed565b604051601f8301601f19908116603f01168101908282118183101715612156576121566120ed565b8160405283815286602085880101111561216f57600080fd5b836020870160208301376000602085830101528094505050505092915050565b6000602082840312156121a157600080fd5b81356001600160401b038111156121b757600080fd5b61166c84828501612103565b600080604083850312156121d657600080fd5b6121df836120b6565b915060208301356001600160401b038111156121fa57600080fd5b61220685828601612103565b9150509250929050565b80151581146111b657600080fd5b6000806040838503121561223157600080fd5b82359150602083013561224381612210565b809150509250929050565b60008060006060848603121561226357600080fd5b8335925060208401356001600160401b038082111561228157600080fd5b61228d87838801612103565b935060408601359150808211156122a357600080fd5b506122b086828701612103565b9150509250925092565b600080600080600060a086880312156122d257600080fd5b85356122dd81612210565b9450602086013593506040860135925060608601356001600160401b038082111561230757600080fd5b61231389838a01612103565b9350608088013591508082111561232957600080fd5b5061233688828901612103565b9150509295509295909350565b6000806000806080858703121561235957600080fd5b843593506020850135925060408501356001600160e01b03198116811461237f57600080fd5b9396929550929360600135925050565b60005b838110156123aa578181015183820152602001612392565b50506000910152565b600082516123c581846020870161238f565b9190910192915050565b6020808252601190820152701c1c9bda9958dd081b9bdd08199bdd5b99607a1b604082015260600190565b634e487b7160e01b600052601160045260246000fd5b8181038181111561164a5761164a6123fa565b634e487b7160e01b600052603260045260246000fd5b600181811c9082168061244d57607f821691505b60208210810361200b57634e487b7160e01b600052602260045260246000fd5b60208082526028908201527f536f75726365206d75737420626520746865206f7261636c65206f6620746865604082015267081c995c5d595cdd60c21b606082015260800190565b600081518084526124cd81602086016020860161238f565b601f01601f19169290920160200192915050565b602081526000611d9e60208301846124b5565b8082018082111561164a5761164a6123fa565b601f821115611692576000816000526020600020601f850160051c810160208610156125305750805b601f850160051c820191505b8181101561254f5782815560010161253c565b505050505050565b81516001600160401b03811115612570576125706120ed565b6125848161257e8454612439565b84612507565b602080601f8311600181146125b957600084156125a15750858301515b600019600386901b1c1916600185901b17855561254f565b600085815260208120601f198616915b828110156125e8578886015182559484019460019091019084016125c9565b50858210156126065787850151600019600388901b60f8161c191681555b5050505050600190811b01905550565b808202811582820484141761164a5761164a6123fa565b634e487b7160e01b600052601260045260246000fd5b6000826126525761265261262d565b500490565b60006020828403121561266957600080fd5b5051919050565b60006020828403121561268257600080fd5b8151611d9e81612210565b6000835161269f81846020880161238f565b601d60f91b90830190815283516126bd81600184016020880161238f565b01600101949350505050565b6001600160a01b0389811682526020820189905260408201889052861660608201526001600160e01b03198516608082015260a0810184905260c0810183905261010060e08201819052600090612722838201856124b5565b9b9a5050505050505050505050565b600081612740576127406123fa565b506000190190565b60018060a01b038416815282602082015260606040820152600061276f60608301846124b5565b95945050505050565b6000826127875761278761262d565b500690565b600181815b808511156127c75781600019048211156127ad576127ad6123fa565b808516156127ba57918102915b93841c9390800290612791565b509250929050565b6000826127de5750600161164a565b816127eb5750600061164a565b8160018114612801576002811461280b57612827565b600191505061164a565b60ff84111561281c5761281c6123fa565b50506001821b61164a565b5060208310610133831016604e8410600b841016171561284a575081810a61164a565b612854838361278c565b8060001904821115612868576128686123fa565b029392505050565b6000611d9e83836127cf56fea2646970667358221220c274a52cded704a59cf6f6592e2cc4493c3de90e54652d8446919045c33507ff64736f6c63430008190033","linkReferences":{}},"methodIdentifiers":{"acceptOwnership()":"79ba5097","cancelRequest(bytes32,uint256,bytes4,uint256)":"ec65d0f8","fulfillConfirmData(bytes32,bool)":"50c9230d","fulfillDisperseData(bytes32,string,string)":"5adf4718","getChainlinkToken()":"165d35e1","owner()":"8da5cb5b","projectIndex(string)":"3178c814","projectVerifier()":"626e5f94","requestConfirmData(address,string)":"5c734115","requestDisperseData(bool,uint256,uint256,string,string)":"9564c0a2","setProjectVerifier(address)":"114bd73b","transferOwnership(address)":"f2fde38b","updateProjectState(address,string)":"34f10858","userDetails(address)":"48dec2a7","whitelistUser(address)":"4a4c560d","withdrawLink()":"8dc654a2"},"id":72}