{"abi":[{"type":"constructor","inputs":[],"stateMutability":"nonpayable"},{"type":"function","name":"acceptOwnership","inputs":[],"outputs":[],"stateMutability":"nonpayable"},{"type":"function","name":"cancelRequest","inputs":[{"name":"_requestId","type":"bytes32","internalType":"bytes32"},{"name":"_payment","type":"uint256","internalType":"uint256"},{"name":"_callbackFunctionId","type":"bytes4","internalType":"bytes4"},{"name":"_expiration","type":"uint256","internalType":"uint256"}],"outputs":[],"stateMutability":"nonpayable"},{"type":"function","name":"fulfillConfirmData","inputs":[{"name":"_requestId","type":"bytes32","internalType":"bytes32"},{"name":"_isConfirmed","type":"bool","internalType":"bool"}],"outputs":[],"stateMutability":"nonpayable"},{"type":"function","name":"fulfillDisperseData","inputs":[{"name":"_requestId","type":"bytes32","internalType":"bytes32"},{"name":"_dispersalID","type":"string","internalType":"string"},{"name":"_lastUpdatedHeadCID","type":"string","internalType":"string"}],"outputs":[],"stateMutability":"nonpayable"},{"type":"function","name":"getChainlinkToken","inputs":[],"outputs":[{"name":"","type":"address","internalType":"address"}],"stateMutability":"view"},{"type":"function","name":"getUserDetail","inputs":[{"name":"_user","type":"address","internalType":"address"}],"outputs":[{"name":"","type":"tuple","internalType":"struct ICarbonMonitoringVerifier.UserDetail","components":[{"name":"whitelisted","type":"bool","internalType":"bool"},{"name":"userProjects","type":"tuple[]","internalType":"struct ICarbonMonitoringVerifier.UserProject[]","components":[{"name":"isSubscribed","type":"bool","internalType":"bool"},{"name":"projectState","type":"uint8","internalType":"uint8"},{"name":"start","type":"uint256","internalType":"uint256"},{"name":"end","type":"uint256","internalType":"uint256"},{"name":"expectedTimeofDispersal","type":"uint256","internalType":"uint256"},{"name":"expectedTimeofExpiry","type":"uint256","internalType":"uint256"},{"name":"cid","type":"string","internalType":"string"},{"name":"dispersalRequestID","type":"string","internalType":"string"},{"name":"lastUpdatedHeadCID","type":"string","internalType":"string"}]}]}],"stateMutability":"view"},{"type":"function","name":"owner","inputs":[],"outputs":[{"name":"","type":"address","internalType":"address"}],"stateMutability":"view"},{"type":"function","name":"projectIndex","inputs":[{"name":"","type":"string","internalType":"string"}],"outputs":[{"name":"","type":"uint256","internalType":"uint256"}],"stateMutability":"view"},{"type":"function","name":"projectVerifier","inputs":[],"outputs":[{"name":"","type":"address","internalType":"address"}],"stateMutability":"view"},{"type":"function","name":"requestConfirmData","inputs":[{"name":"_user","type":"address","internalType":"address"},{"name":"_projectName","type":"string","internalType":"string"}],"outputs":[],"stateMutability":"nonpayable"},{"type":"function","name":"requestInitialDispersal","inputs":[{"name":"_isSubscription","type":"bool","internalType":"bool"},{"name":"_start","type":"uint256","internalType":"uint256"},{"name":"_end","type":"uint256","internalType":"uint256"},{"name":"_projectName","type":"string","internalType":"string"},{"name":"_cid","type":"string","internalType":"string"}],"outputs":[],"stateMutability":"nonpayable"},{"type":"function","name":"requestRedispersal","inputs":[{"name":"_user","type":"address","internalType":"address"},{"name":"_projectName","type":"string","internalType":"string"}],"outputs":[],"stateMutability":"nonpayable"},{"type":"function","name":"setProjectVerifier","inputs":[{"name":"_projectVerifier","type":"address","internalType":"address"}],"outputs":[],"stateMutability":"nonpayable"},{"type":"function","name":"transferOwnership","inputs":[{"name":"to","type":"address","internalType":"address"}],"outputs":[],"stateMutability":"nonpayable"},{"type":"function","name":"updateProjectState","inputs":[{"name":"_user","type":"address","internalType":"address"},{"name":"_projectName","type":"string","internalType":"string"}],"outputs":[],"stateMutability":"nonpayable"},{"type":"function","name":"userDetails","inputs":[{"name":"","type":"address","internalType":"address"}],"outputs":[{"name":"whitelisted","type":"bool","internalType":"bool"}],"stateMutability":"view"},{"type":"function","name":"whitelistUser","inputs":[{"name":"_user","type":"address","internalType":"address"}],"outputs":[],"stateMutability":"nonpayable"},{"type":"function","name":"withdrawLink","inputs":[],"outputs":[],"stateMutability":"nonpayable"},{"type":"event","name":"ChainlinkCancelled","inputs":[{"name":"id","type":"bytes32","indexed":true,"internalType":"bytes32"}],"anonymous":false},{"type":"event","name":"ChainlinkFulfilled","inputs":[{"name":"id","type":"bytes32","indexed":true,"internalType":"bytes32"}],"anonymous":false},{"type":"event","name":"ChainlinkRequested","inputs":[{"name":"id","type":"bytes32","indexed":true,"internalType":"bytes32"}],"anonymous":false},{"type":"event","name":"OwnershipTransferRequested","inputs":[{"name":"from","type":"address","indexed":true,"internalType":"address"},{"name":"to","type":"address","indexed":true,"internalType":"address"}],"anonymous":false},{"type":"event","name":"OwnershipTransferred","inputs":[{"name":"from","type":"address","indexed":true,"internalType":"address"},{"name":"to","type":"address","indexed":true,"internalType":"address"}],"anonymous":false},{"type":"event","name":"RequestConfirmDataFulfilled","inputs":[{"name":"requestId","type":"bytes32","indexed":false,"internalType":"bytes32"},{"name":"confirmed","type":"bool","indexed":true,"internalType":"bool"},{"name":"projectID","type":"string","indexed":true,"internalType":"string"},{"name":"projectVerifier","type":"address","indexed":true,"internalType":"address"}],"anonymous":false},{"type":"event","name":"RequestDisperseDataFulfilled","inputs":[{"name":"requestId","type":"bytes32","indexed":false,"internalType":"bytes32"},{"name":"dispersalRequestID","type":"string","indexed":true,"internalType":"string"},{"name":"lastUpdatedHeadCID","type":"string","indexed":true,"internalType":"string"}],"anonymous":false},{"type":"error","name":"StringsInsufficientHexLength","inputs":[{"name":"value","type":"uint256","internalType":"uint256"},{"name":"length","type":"uint256","internalType":"uint256"}]}],"bytecode":{"object":"0x60806040526001600455600880546001600160a01b031916738032b4dba3779b6836b4c69203bb1d3b4f92908b17905534801561003b57600080fd5b5033806000816100925760405162461bcd60e51b815260206004820152601860248201527f43616e6e6f7420736574206f776e657220746f207a65726f000000000000000060448201526064015b60405180910390fd5b600680546001600160a01b0319166001600160a01b03848116919091179091558116156100c2576100c2816100ed565b5050506100e873d27376e609bf32b506535efe2bf1303a74eb546761019760201b60201c565b6101b9565b336001600160a01b038216036101455760405162461bcd60e51b815260206004820152601760248201527f43616e6e6f74207472616e7366657220746f2073656c660000000000000000006044820152606401610089565b600780546001600160a01b0319166001600160a01b03838116918217909255600654604051919216907fed8889f560326eb138920d842192f0eb3dd22b4f139c87a2c57538e05bae127890600090a350565b600280546001600160a01b0319166001600160a01b0392909216919091179055565b61304a806101c86000396000f3fe608060405234801561001057600080fd5b50600436106101165760003560e01c80635c734115116100a25780638da5cb5b116100715780638da5cb5b1461026e5780638dc654a21461027f578063aa4f0fc314610287578063ec65d0f81461029a578063f2fde38b146102ad57600080fd5b80635c7341151461022d578063626e5f941461024057806374bae7d91461025357806379ba50971461026657600080fd5b806348dec2a7116100e957806348dec2a7146101a15780634a48c84b146101d45780634a4c560d146101f457806350c9230d146102075780635adf47181461021a57600080fd5b8063114bd73b1461011b578063165d35e1146101305780633178c8141461015557806334f108581461018e575b600080fd5b61012e610129366004612771565b6102c0565b005b6101386102ea565b6040516001600160a01b0390911681526020015b60405180910390f35b61018061016336600461282e565b8051602081830181018051600a8252928201919093012091525481565b60405190815260200161014c565b61012e61019c366004612862565b610303565b6101c46101af366004612771565b60096020526000908152604090205460ff1681565b604051901515815260200161014c565b6101e76101e2366004612771565b610669565b60405161014c91906128ff565b61012e610202366004612771565b61090e565b61012e610215366004612a0e565b6109a3565b61012e610228366004612a3e565b610c50565b61012e61023b366004612862565b610ee6565b600854610138906001600160a01b031681565b61012e610261366004612aaa565b611294565b61012e611375565b6006546001600160a01b0316610138565b61012e611423565b61012e610295366004612862565b611567565b61012e6102a8366004612b33565b6118a9565b61012e6102bb366004612771565b6118c3565b6102c86118d4565b600880546001600160a01b0319166001600160a01b0392909216919091179055565b60006102fe6002546001600160a01b031690565b905090565b600061030f8383611929565b90506000600a826040516103239190612b7f565b90815260200160405180910390205490506000811161035d5760405162461bcd60e51b815260040161035490612b9b565b60405180910390fd5b6001600160a01b03841660009081526009602052604081206001908101906103859084612bdc565b8154811061039557610395612bef565b600091825260209182902060408051610120810182526008909302909101805460ff8082161515855261010090910416938301939093526001830154908201526002820154606082015260038201546080820152600482015460a082015260058201805491929160c08401919061040b90612c05565b80601f016020809104026020016040519081016040528092919081815260200182805461043790612c05565b80156104845780601f1061045957610100808354040283529160200191610484565b820191906000526020600020905b81548152906001019060200180831161046757829003601f168201915b5050505050815260200160068201805461049d90612c05565b80601f01602080910402602001604051908101604052809291908181526020018280546104c990612c05565b80156105165780601f106104eb57610100808354040283529160200191610516565b820191906000526020600020905b8154815290600101906020018083116104f957829003601f168201915b5050505050815260200160078201805461052f90612c05565b80601f016020809104026020016040519081016040528092919081815260200182805461055b90612c05565b80156105a85780601f1061057d576101008083540402835291602001916105a8565b820191906000526020600020905b81548152906001019060200180831161058b57829003601f168201915b5050505050815250509050428160a001511015610639576001600160a01b03851660009081526009602052604090206003906001908101906105ea9085612bdc565b815481106105fa576105fa612bef565b60009182526020909120600890910201805460ff929092166101000261ff0019909216919091179055805115610634576106348585611567565b610662565b4281608001511080156106535750806020015160ff166001145b15610662576106628585610ee6565b5050505050565b6040805180820190915260008152606060208201526001600160a01b038216600090815260096020908152604080832081518083018352815460ff16151581526001820180548451818702810187019095528085529195929486810194939192919084015b82821015610900576000848152602090819020604080516101208101825260088602909201805460ff8082161515855261010090910416938301939093526001830154908201526002820154606082015260038201546080820152600482015460a082015260058201805491929160c08401919061074b90612c05565b80601f016020809104026020016040519081016040528092919081815260200182805461077790612c05565b80156107c45780601f10610799576101008083540402835291602001916107c4565b820191906000526020600020905b8154815290600101906020018083116107a757829003601f168201915b505050505081526020016006820180546107dd90612c05565b80601f016020809104026020016040519081016040528092919081815260200182805461080990612c05565b80156108565780601f1061082b57610100808354040283529160200191610856565b820191906000526020600020905b81548152906001019060200180831161083957829003601f168201915b5050505050815260200160078201805461086f90612c05565b80601f016020809104026020016040519081016040528092919081815260200182805461089b90612c05565b80156108e85780601f106108bd576101008083540402835291602001916108e8565b820191906000526020600020905b8154815290600101906020018083116108cb57829003601f168201915b505050505081525050815260200190600101906106ce565b505050915250909392505050565b6109166118d4565b6001600160a01b03811660009081526009602052604090205460ff161561097f5760405162461bcd60e51b815260206004820152601860248201527f7573657220616c72656164792077686974656c697374656400000000000000006044820152606401610354565b6001600160a01b03166000908152600960205260409020805460ff19166001179055565b60008281526005602052604090205482906001600160a01b031633146109db5760405162461bcd60e51b815260040161035490612c39565b60008181526005602052604080822080546001600160a01b03191690555182917f7cc135e0cebb02c3480ae5d74d377283180a2601f8f644edf7987b009316c63a91a26000838152600b602052604081208054600190910180546001600160a01b039092169291610a4b90612c05565b80601f0160208091040260200160405190810160405280929190818152602001828054610a7790612c05565b8015610ac45780601f10610a9957610100808354040283529160200191610ac4565b820191906000526020600020905b815481529060010190602001808311610aa757829003601f168201915b505050505090506000600a82604051610add9190612b7f565b90815260200160405180910390205490508415610bbb57600854604051633623e2a960e11b81526001600160a01b0390911690636c47c55290610b24908590600401612c81565b600060405180830381600087803b158015610b3e57600080fd5b505af1158015610b52573d6000803e3d6000fd5b5050506001600160a01b038416600090815260096020526040902060029150600190810190610b819084612bdc565b81548110610b9157610b91612bef565b906000526020600020906008020160000160016101000a81548160ff021916908360ff1602179055505b6008546040516001600160a01b0390911690610bd8908490612b7f565b60405180910390208615157f27ba9a475b834dc3333cbf286869a81c8c50c858296e64a37de4a83c26ff3adc89604051610c1491815260200190565b60405180910390a46000868152600b6020526040812080546001600160a01b031916815590610c4660018301826126c7565b5050505050505050565b60008381526005602052604090205483906001600160a01b03163314610c885760405162461bcd60e51b815260040161035490612c39565b60008181526005602052604080822080546001600160a01b03191690555182917f7cc135e0cebb02c3480ae5d74d377283180a2601f8f644edf7987b009316c63a91a281604051610cd99190612b7f565b604051809103902083604051610cef9190612b7f565b604051908190038120868252907f8b52207fce6980cb21677901b8ecbc6b81748f347a9e3171cf167b7b4ed2f9a09060200160405180910390a36000848152600b602052604081208054600190910180546001600160a01b039092169291610d5690612c05565b80601f0160208091040260200160405190810160405280929190818152602001828054610d8290612c05565b8015610dcf5780601f10610da457610100808354040283529160200191610dcf565b820191906000526020600020905b815481529060010190602001808311610db257829003601f168201915b505050505090506000600a82604051610de89190612b7f565b908152602001604051809103902054905060008111610e195760405162461bcd60e51b815260040161035490612b9b565b6001600160a01b0383166000908152600960205260408120600190810190610e419084612bdc565b81548110610e5157610e51612bef565b9060005260206000209060080201905042610258610e6f9190612c94565b6003820155610e8042610258612c94565b610e8d90620d2f00612c94565b600482015560068101610ea08882612cef565b5060078101610eaf8782612cef565b506000888152600b6020526040812080546001600160a01b031916815590610eda60018301826126c7565b50505050505050505050565b6000610f197f38383038353338616562326434333039613333616631656463396665623435326350c9230d60e01b611969565b3360009081526009602052604090205490915060ff168015610f5357506001600160a01b03831660009081526009602052604090205460ff165b610f995760405162461bcd60e51b81526020600482015260176024820152761d5cd95c8a1cca481b9bdd081dda1a5d195b1a5cdd1959604a1b6044820152606401610354565b6000610fa58484611929565b90506000600a82604051610fb99190612b7f565b9081526020016040518091039020549050806001146110255760405162461bcd60e51b815260206004820152602260248201527f70726f6a656374206d757374206265206177616974696e672064697370657273604482015261185b60f21b6064820152608401610354565b6001600160a01b0385166000908152600960205260409020429060019081019061104f9084612bdc565b8154811061105f5761105f612bef565b906000526020600020906008020160030154106110ac5760405162461bcd60e51b815260206004820152600b60248201526a1c1b19585cd9481dd85a5d60aa1b6044820152606401610354565b6040805180820190915260098152681c1c9bda9958dd125160ba1b60208201526110d89084908461198d565b6111f560405180604001604052806012815260200171191a5cdc195c9cd85b14995c5d595cdd125160721b81525060096000886001600160a01b03166001600160a01b0316815260200190815260200160002060010160018461113b9190612bdc565b8154811061114b5761114b612bef565b9060005260206000209060080201600601805461116790612c05565b80601f016020809104026020016040519081016040528092919081815260200182805461119390612c05565b80156111e05780601f106111b5576101008083540402835291602001916111e0565b820191906000526020600020905b8154815290600101906020018083116111c357829003601f168201915b50505050508561198d9092919063ffffffff16565b600061123373ccda5e49ff369640edfa0fb58fb6af165b53b8b585600a611224670de0b6b3a764000086612dae565b61122e9190612ddb565b6119b0565b6040805180820182526001600160a01b03898116825260208083018881526000868152600b909252939020825181546001600160a01b031916921691909117815591519293509160018201906112899082612cef565b505050505050505050565b3360009081526009602052604090205460ff166112ea5760405162461bcd60e51b81526020600482015260146024820152731d5cd95c881b9bdd081dda1a5d195b1a5cdd195960621b6044820152606401610354565b60006112f63384611929565b9050600a816040516113089190612b7f565b90815260200160405180910390205460001461135f5760405162461bcd60e51b815260206004820152601660248201527570726f6a65637420616c72656164792065786973747360501b6044820152606401610354565b61136d863387878587611a43565b505050505050565b6007546001600160a01b031633146113c85760405162461bcd60e51b815260206004820152601660248201527526bab9ba10313290383937b837b9b2b21037bbb732b960511b6044820152606401610354565b600680546001600160a01b0319808216339081179093556007805490911690556040516001600160a01b03909116919082907f8be0079c531659141344cd1fd0a4f28419497f9722a3daafe3b4186f6b6457e090600090a350565b61142b6118d4565b600061143f6002546001600160a01b031690565b6040516370a0823160e01b81523060048201529091506001600160a01b0382169063a9059cbb90339083906370a0823190602401602060405180830381865afa158015611490573d6000803e3d6000fd5b505050506040513d601f19601f820116820180604052508101906114b49190612def565b6040516001600160e01b031960e085901b1681526001600160a01b03909216600483015260248201526044016020604051808303816000875af11580156114ff573d6000803e3d6000fd5b505050506040513d601f19601f820116820180604052508101906115239190612e08565b6115645760405162461bcd60e51b81526020600482015260126024820152712ab730b13632903a37903a3930b739b332b960711b6044820152606401610354565b50565b3360009081526009602052604090205460ff16801561159e57506001600160a01b03821660009081526009602052604090205460ff165b6115e45760405162461bcd60e51b81526020600482015260176024820152761d5cd95c8a1cca481b9bdd081dda1a5d195b1a5cdd1959604a1b6044820152606401610354565b60006115f08383611929565b90506000600a826040516116049190612b7f565b9081526020016040518091039020549050600081116116355760405162461bcd60e51b815260040161035490612b9b565b6001600160a01b038416600090815260096020526040812060019081019061165d9084612bdc565b8154811061166d5761166d612bef565b600091825260209182902060408051610120810182526008909302909101805460ff8082161515855261010090910416938301939093526001830154908201526002820154606082015260038201546080820152600482015460a082015260058201805491929160c0840191906116e390612c05565b80601f016020809104026020016040519081016040528092919081815260200182805461170f90612c05565b801561175c5780601f106117315761010080835404028352916020019161175c565b820191906000526020600020905b81548152906001019060200180831161173f57829003601f168201915b5050505050815260200160068201805461177590612c05565b80601f01602080910402602001604051908101604052809291908181526020018280546117a190612c05565b80156117ee5780601f106117c3576101008083540402835291602001916117ee565b820191906000526020600020905b8154815290600101906020018083116117d157829003601f168201915b5050505050815260200160078201805461180790612c05565b80601f016020809104026020016040519081016040528092919081815260200182805461183390612c05565b80156118805780601f1061185557610100808354040283529160200191611880565b820191906000526020600020905b81548152906001019060200180831161186357829003601f168201915b505050505081525050905061066281600001518683604001518460600151878660c00151611a43565b6118b16118d4565b6118bd84848484611dc9565b50505050565b6118cb6118d4565b61156481611e90565b6006546001600160a01b031633146119275760405162461bcd60e51b815260206004820152601660248201527527b7363c9031b0b63630b1363290313c9037bbb732b960511b6044820152606401610354565b565b606061193f836001600160a01b03166014611f3a565b82604051602001611951929190612e25565b60405160208183030381529060405290505b92915050565b611971612701565b611979612701565b611985818530866120b1565b949350505050565b608083015161199c90836120ee565b60808301516119ab90826120ee565b505050565b6004546000906119c1816001612c94565b600455835160408086015160808701515191516000936320214ca360e11b936119f99386938493923092918a91600191602401612e61565b60408051601f198184030181529190526020810180516001600160e01b03166001600160e01b0319909316929092179091529050611a3986838684612105565b9695505050505050565b6000611a767f6561663231373035343564633437393361616464313961613364633832643636630b5be8e360e31b611969565b6040805180820190915260098152681c1c9bda9958dd125160ba1b6020820152909150611aa59082908561198d565b60408051808201909152600381526218da5960ea1b6020820152611acb9082908461198d565b6040805180820190915260058152641cdd185c9d60da1b6020820152611af390829087612263565b604080518082019091526003815262195b9960ea1b6020820152611b1990829086612263565b6000611b4873ccda5e49ff369640edfa0fb58fb6af165b53b8b583600a611224670de0b6b3a764000086612dae565b6040805180820182526001600160a01b038a8116825260208083018981526000868152600b909252939020825181546001600160a01b03191692169190911781559151929350916001820190611b9e9082612cef565b509050506000600a85604051611bb49190612b7f565b90815260200160405180910390205490506000600960008a6001600160a01b03166001600160a01b03168152602001908152602001600020600101905081600003611d3c57806040518061012001604052808c15158152602001600160ff1681526020018a815260200189815260200142610384611c329190612c94565b81526000602080830182905260408084018b9052805180830182528381526060808601919091528151808401835284815260809586015286546001818101895597855293839020865160089095020180549387015160ff166101000261ff00199515159590951661ffff1990941693909317939093178255840151948101949094558201516002840155810151600383015560a0810151600483015560c08101519091906005820190611ce59082612cef565b5060e08201516006820190611cfa9082612cef565b506101008201516007820190611d109082612cef565b5050508080549050915081600a87604051611d2b9190612b7f565b908152604051908190036020019020555b600181611d498285612bdc565b81548110611d5957611d59612bef565b60009182526020909120600890910201805460ff929092166101000261ff00199092169190911790558481611d8f600185612bdc565b81548110611d9f57611d9f612bef565b90600052602060002090600802016005019081611dbc9190612cef565b5050505050505050505050565b60008481526005602052604080822080546001600160a01b0319811690915590516001600160a01b039091169186917fe1fe3afa0f7f761ff0a8b89086790efd5140d2907ebd5b7ff6bfcb5e075fd4c59190a2604051636ee4d55360e01b815260048101869052602481018590526001600160e01b031984166044820152606481018390526001600160a01b03821690636ee4d55390608401600060405180830381600087803b158015611e7c57600080fd5b505af1158015611289573d6000803e3d6000fd5b336001600160a01b03821603611ee85760405162461bcd60e51b815260206004820152601760248201527f43616e6e6f74207472616e7366657220746f2073656c660000000000000000006044820152606401610354565b600780546001600160a01b0319166001600160a01b03838116918217909255600654604051919216907fed8889f560326eb138920d842192f0eb3dd22b4f139c87a2c57538e05bae127890600090a350565b6060826000611f4a846002612dae565b611f55906002612c94565b6001600160401b03811115611f6c57611f6c61278c565b6040519080825280601f01601f191660200182016040528015611f96576020820181803683370190505b509050600360fc1b81600081518110611fb157611fb1612bef565b60200101906001600160f81b031916908160001a905350600f60fb1b81600181518110611fe057611fe0612bef565b60200101906001600160f81b031916908160001a9053506000612004856002612dae565b61200f906001612c94565b90505b6001811115612087576f181899199a1a9b1b9c1cb0b131b232b360811b83600f166010811061204357612043612bef565b1a60f81b82828151811061205957612059612bef565b60200101906001600160f81b031916908160001a90535060049290921c9161208081612ec9565b9050612012565b5081156119855760405163e22e27eb60e01b81526004810186905260248101859052604401610354565b6120b9612701565b6120c98560800151610100612281565b50509183526001600160a01b031660208301526001600160e01b031916604082015290565b6120fb82600383516122e6565b6119ab82826123ed565b6040516bffffffffffffffffffffffff193060601b1660208201526034810184905260009060540160408051808303601f1901815282825280516020918201206000818152600590925291812080546001600160a01b0319166001600160a01b038a1617905590925082917fb5e6e01e79f91267dc17b4e6314d5d4d03593d2ceee0fbb452b750bd70ea5af99190a2600254604051630200057560e51b81526001600160a01b0390911690634000aea0906121c890889087908790600401612ee0565b6020604051808303816000875af11580156121e7573d6000803e3d6000fd5b505050506040513d601f19601f8201168201806040525081019061220b9190612e08565b6119855760405162461bcd60e51b815260206004820152602360248201527f756e61626c6520746f207472616e73666572416e6443616c6c20746f206f7261604482015262636c6560e81b6064820152608401610354565b608083015161227290836120ee565b60808301516119ab908261241b565b6040805180820190915260608152600060208201526122a1602083612f10565b156122c9576122b1602083612f10565b6122bc906020612bdc565b6122c69083612c94565b91505b506020828101829052604080518085526000815290920101905290565b6017816001600160401b03161161230a576118bd8360e0600585901b168317612444565b60ff816001600160401b03161161234657612330836018611fe0600586901b1617612444565b506118bd836001600160401b0383166001612469565b61ffff816001600160401b0316116123835761236d836019611fe0600586901b1617612444565b506118bd836001600160401b0383166002612469565b63ffffffff816001600160401b0316116123c2576123ac83601a611fe0600586901b1617612444565b506118bd836001600160401b0383166004612469565b6123d783601b611fe0600586901b1617612444565b506118bd836001600160401b0383166008612469565b6040805180820190915260608152600060208201526124148384600001515184855161248f565b9392505050565b6001600160401b03811115612438576124348282612579565b5050565b612434826000836122e6565b60408051808201909152606081526000602082015261241483846000015151846125b0565b60408051808201909152606081526000602082015261198584856000015151858561260b565b60408051808201909152606081526000602082015282518211156124b257600080fd5b60208501516124c18386612c94565b11156124f4576124f4856124e4876020015187866124df9190612c94565b61268c565b6124ef906002612dae565b6126a3565b6000808651805187602083010193508088870111156125135787860182525b505050602084015b602084106125535780518252612532602083612c94565b915061253f602082612c94565b905061254c602085612bdc565b935061251b565b51815160001960208690036101000a019081169019919091161790525083949350505050565b6125848260c2612444565b50612434828260405160200161259c91815260200190565b6040516020818303038152906040526126ba565b604080518082019091526060815260006020820152836020015183106125e5576125e584856020015160026124ef9190612dae565b8351805160208583010184815350808503612601576001810182525b5093949350505050565b604080518082019091526060815260006020820152602085015161262f8584612c94565b111561264357612643856124e48685612c94565b6000600161265384610100613008565b61265d9190612bdc565b90508551838682010185831982511617815250805184870111156126815783860181525b509495945050505050565b60008183111561269d575081611963565b50919050565b81516126af8383612281565b506118bd83826123ed565b6120fb82600283516122e6565b5080546126d390612c05565b6000825580601f106126e3575050565b601f016020900490600052602060002090810190611564919061273c565b6040805160a0810182526000808252602080830182905282840182905260608084018390528451808601909552845283015290608082015290565b5b80821115612751576000815560010161273d565b5090565b80356001600160a01b038116811461276c57600080fd5b919050565b60006020828403121561278357600080fd5b61241482612755565b634e487b7160e01b600052604160045260246000fd5b600082601f8301126127b357600080fd5b81356001600160401b03808211156127cd576127cd61278c565b604051601f8301601f19908116603f011681019082821181831017156127f5576127f561278c565b8160405283815286602085880101111561280e57600080fd5b836020870160208301376000602085830101528094505050505092915050565b60006020828403121561284057600080fd5b81356001600160401b0381111561285657600080fd5b611985848285016127a2565b6000806040838503121561287557600080fd5b61287e83612755565b915060208301356001600160401b0381111561289957600080fd5b6128a5858286016127a2565b9150509250929050565b60005b838110156128ca5781810151838201526020016128b2565b50506000910152565b600081518084526128eb8160208601602086016128af565b601f01601f19169290920160200192915050565b60006020808352606080840185511515838601528286015160408060408801528282518085526080945060808901915060808160051b8a0101878501945060005b828110156129f1578a8203607f190184528551805115158352610120818b015160ff8116858d0152508682015187850152898201518a850152888201518985015260a080830151818601525060c08083015182828701526129a3838701826128d3565b9250505060e080830151858303828701526129be83826128d3565b9250505061010080830151925084820381860152506129dd81836128d3565b978b0197958b019593505050600101612940565b509a9950505050505050505050565b801515811461156457600080fd5b60008060408385031215612a2157600080fd5b823591506020830135612a3381612a00565b809150509250929050565b600080600060608486031215612a5357600080fd5b8335925060208401356001600160401b0380821115612a7157600080fd5b612a7d878388016127a2565b93506040860135915080821115612a9357600080fd5b50612aa0868287016127a2565b9150509250925092565b600080600080600060a08688031215612ac257600080fd5b8535612acd81612a00565b9450602086013593506040860135925060608601356001600160401b0380821115612af757600080fd5b612b0389838a016127a2565b93506080880135915080821115612b1957600080fd5b50612b26888289016127a2565b9150509295509295909350565b60008060008060808587031215612b4957600080fd5b843593506020850135925060408501356001600160e01b031981168114612b6f57600080fd5b9396929550929360600135925050565b60008251612b918184602087016128af565b9190910192915050565b6020808252601190820152701c1c9bda9958dd081b9bdd08199bdd5b99607a1b604082015260600190565b634e487b7160e01b600052601160045260246000fd5b8181038181111561196357611963612bc6565b634e487b7160e01b600052603260045260246000fd5b600181811c90821680612c1957607f821691505b60208210810361269d57634e487b7160e01b600052602260045260246000fd5b60208082526028908201527f536f75726365206d75737420626520746865206f7261636c65206f6620746865604082015267081c995c5d595cdd60c21b606082015260800190565b60208152600061241460208301846128d3565b8082018082111561196357611963612bc6565b601f8211156119ab576000816000526020600020601f850160051c81016020861015612cd05750805b601f850160051c820191505b8181101561136d57828155600101612cdc565b81516001600160401b03811115612d0857612d0861278c565b612d1c81612d168454612c05565b84612ca7565b602080601f831160018114612d515760008415612d395750858301515b600019600386901b1c1916600185901b17855561136d565b600085815260208120601f198616915b82811015612d8057888601518255948401946001909101908401612d61565b5085821015612d9e5787850151600019600388901b60f8161c191681555b5050505050600190811b01905550565b808202811582820484141761196357611963612bc6565b634e487b7160e01b600052601260045260246000fd5b600082612dea57612dea612dc5565b500490565b600060208284031215612e0157600080fd5b5051919050565b600060208284031215612e1a57600080fd5b815161241481612a00565b60008351612e378184602088016128af565b601d60f91b9083019081528351612e558160018401602088016128af565b01600101949350505050565b6001600160a01b0389811682526020820189905260408201889052861660608201526001600160e01b03198516608082015260a0810184905260c0810183905261010060e08201819052600090612eba838201856128d3565b9b9a5050505050505050505050565b600081612ed857612ed8612bc6565b506000190190565b60018060a01b0384168152826020820152606060408201526000612f0760608301846128d3565b95945050505050565b600082612f1f57612f1f612dc5565b500690565b600181815b80851115612f5f578160001904821115612f4557612f45612bc6565b80851615612f5257918102915b93841c9390800290612f29565b509250929050565b600082612f7657506001611963565b81612f8357506000611963565b8160018114612f995760028114612fa357612fbf565b6001915050611963565b60ff841115612fb457612fb4612bc6565b50506001821b611963565b5060208310610133831016604e8410600b8410161715612fe2575081810a611963565b612fec8383612f24565b806000190482111561300057613000612bc6565b029392505050565b60006124148383612f6756fea26469706673582212201cc9f560243ce326204f4684ab0f8790eeeb8db2cf84163c828cd87db6c4b81164736f6c63430008190033","linkReferences":{}},"methodIdentifiers":{"acceptOwnership()":"79ba5097","cancelRequest(bytes32,uint256,bytes4,uint256)":"ec65d0f8","fulfillConfirmData(bytes32,bool)":"50c9230d","fulfillDisperseData(bytes32,string,string)":"5adf4718","getChainlinkToken()":"165d35e1","getUserDetail(address)":"4a48c84b","owner()":"8da5cb5b","projectIndex(string)":"3178c814","projectVerifier()":"626e5f94","requestConfirmData(address,string)":"5c734115","requestInitialDispersal(bool,uint256,uint256,string,string)":"74bae7d9","requestRedispersal(address,string)":"aa4f0fc3","setProjectVerifier(address)":"114bd73b","transferOwnership(address)":"f2fde38b","updateProjectState(address,string)":"34f10858","userDetails(address)":"48dec2a7","whitelistUser(address)":"4a4c560d","withdrawLink()":"8dc654a2"},"id":70}