{"abi":[{"type":"constructor","inputs":[],"stateMutability":"nonpayable"},{"type":"function","name":"acceptOwnership","inputs":[],"outputs":[],"stateMutability":"nonpayable"},{"type":"function","name":"cancelRequest","inputs":[{"name":"_requestId","type":"bytes32","internalType":"bytes32"},{"name":"_payment","type":"uint256","internalType":"uint256"},{"name":"_callbackFunctionId","type":"bytes4","internalType":"bytes4"},{"name":"_expiration","type":"uint256","internalType":"uint256"}],"outputs":[],"stateMutability":"nonpayable"},{"type":"function","name":"fulfillConfirmData","inputs":[{"name":"_requestId","type":"bytes32","internalType":"bytes32"},{"name":"_isConfirmed","type":"bool","internalType":"bool"}],"outputs":[],"stateMutability":"nonpayable"},{"type":"function","name":"fulfillDisperseData","inputs":[{"name":"_requestId","type":"bytes32","internalType":"bytes32"},{"name":"_dispersalID","type":"string","internalType":"string"},{"name":"_lastUpdatedHeadCID","type":"string","internalType":"string"}],"outputs":[],"stateMutability":"nonpayable"},{"type":"function","name":"getChainlinkToken","inputs":[],"outputs":[{"name":"","type":"address","internalType":"address"}],"stateMutability":"view"},{"type":"function","name":"owner","inputs":[],"outputs":[{"name":"","type":"address","internalType":"address"}],"stateMutability":"view"},{"type":"function","name":"projectIndex","inputs":[{"name":"","type":"string","internalType":"string"}],"outputs":[{"name":"","type":"uint256","internalType":"uint256"}],"stateMutability":"view"},{"type":"function","name":"projectVerifier","inputs":[],"outputs":[{"name":"","type":"address","internalType":"address"}],"stateMutability":"view"},{"type":"function","name":"requestConfirmData","inputs":[{"name":"_user","type":"address","internalType":"address"},{"name":"_projectName","type":"string","internalType":"string"}],"outputs":[],"stateMutability":"nonpayable"},{"type":"function","name":"requestInitialDispersal","inputs":[{"name":"_isSubscription","type":"bool","internalType":"bool"},{"name":"_start","type":"uint256","internalType":"uint256"},{"name":"_end","type":"uint256","internalType":"uint256"},{"name":"_projectName","type":"string","internalType":"string"},{"name":"_cid","type":"string","internalType":"string"}],"outputs":[],"stateMutability":"nonpayable"},{"type":"function","name":"requestRedispersal","inputs":[{"name":"_user","type":"address","internalType":"address"},{"name":"_projectName","type":"string","internalType":"string"}],"outputs":[],"stateMutability":"nonpayable"},{"type":"function","name":"setProjectVerifier","inputs":[{"name":"_projectVerifier","type":"address","internalType":"address"}],"outputs":[],"stateMutability":"nonpayable"},{"type":"function","name":"transferOwnership","inputs":[{"name":"to","type":"address","internalType":"address"}],"outputs":[],"stateMutability":"nonpayable"},{"type":"function","name":"updateProjectState","inputs":[{"name":"_user","type":"address","internalType":"address"},{"name":"_projectName","type":"string","internalType":"string"}],"outputs":[],"stateMutability":"nonpayable"},{"type":"function","name":"userDetails","inputs":[{"name":"","type":"address","internalType":"address"}],"outputs":[{"name":"whitelisted","type":"bool","internalType":"bool"}],"stateMutability":"view"},{"type":"function","name":"whitelistUser","inputs":[{"name":"_user","type":"address","internalType":"address"}],"outputs":[],"stateMutability":"nonpayable"},{"type":"function","name":"withdrawLink","inputs":[],"outputs":[],"stateMutability":"nonpayable"},{"type":"event","name":"ChainlinkCancelled","inputs":[{"name":"id","type":"bytes32","indexed":true,"internalType":"bytes32"}],"anonymous":false},{"type":"event","name":"ChainlinkFulfilled","inputs":[{"name":"id","type":"bytes32","indexed":true,"internalType":"bytes32"}],"anonymous":false},{"type":"event","name":"ChainlinkRequested","inputs":[{"name":"id","type":"bytes32","indexed":true,"internalType":"bytes32"}],"anonymous":false},{"type":"event","name":"OwnershipTransferRequested","inputs":[{"name":"from","type":"address","indexed":true,"internalType":"address"},{"name":"to","type":"address","indexed":true,"internalType":"address"}],"anonymous":false},{"type":"event","name":"OwnershipTransferred","inputs":[{"name":"from","type":"address","indexed":true,"internalType":"address"},{"name":"to","type":"address","indexed":true,"internalType":"address"}],"anonymous":false},{"type":"event","name":"RequestConfirmDataFulfilled","inputs":[{"name":"requestId","type":"bytes32","indexed":false,"internalType":"bytes32"},{"name":"confirmed","type":"bool","indexed":true,"internalType":"bool"},{"name":"projectID","type":"string","indexed":true,"internalType":"string"},{"name":"projectVerifier","type":"address","indexed":true,"internalType":"address"}],"anonymous":false},{"type":"event","name":"RequestDisperseDataFulfilled","inputs":[{"name":"requestId","type":"bytes32","indexed":false,"internalType":"bytes32"},{"name":"dispersalRequestID","type":"string","indexed":true,"internalType":"string"},{"name":"lastUpdatedHeadCID","type":"string","indexed":true,"internalType":"string"}],"anonymous":false},{"type":"error","name":"StringsInsufficientHexLength","inputs":[{"name":"value","type":"uint256","internalType":"uint256"},{"name":"length","type":"uint256","internalType":"uint256"}]}],"bytecode":{"object":"0x60806040526001600455600880546001600160a01b031916738032b4dba3779b6836b4c69203bb1d3b4f92908b17905534801561003b57600080fd5b5033806000816100925760405162461bcd60e51b815260206004820152601860248201527f43616e6e6f7420736574206f776e657220746f207a65726f000000000000000060448201526064015b60405180910390fd5b600680546001600160a01b0319166001600160a01b03848116919091179091558116156100c2576100c2816100ed565b5050506100e873d27376e609bf32b506535efe2bf1303a74eb546761019760201b60201c565b6101b9565b336001600160a01b038216036101455760405162461bcd60e51b815260206004820152601760248201527f43616e6e6f74207472616e7366657220746f2073656c660000000000000000006044820152606401610089565b600780546001600160a01b0319166001600160a01b03838116918217909255600654604051919216907fed8889f560326eb138920d842192f0eb3dd22b4f139c87a2c57538e05bae127890600090a350565b600280546001600160a01b0319166001600160a01b0392909216919091179055565b612c79806101c86000396000f3fe608060405234801561001057600080fd5b506004361061010b5760003560e01c80635c734115116100a25780638da5cb5b116100715780638da5cb5b146102435780638dc654a214610254578063aa4f0fc31461025c578063ec65d0f81461026f578063f2fde38b1461028257600080fd5b80635c73411514610202578063626e5f941461021557806374bae7d91461022857806379ba50971461023b57600080fd5b806348dec2a7116100de57806348dec2a7146101965780634a4c560d146101c957806350c9230d146101dc5780635adf4718146101ef57600080fd5b8063114bd73b14610110578063165d35e1146101255780633178c8141461014a57806334f1085814610183575b600080fd5b61012361011e3660046124a1565b610295565b005b61012d6102bf565b6040516001600160a01b0390911681526020015b60405180910390f35b61017561015836600461255e565b8051602081830181018051600a8252928201919093012091525481565b604051908152602001610141565b610123610191366004612592565b6102d8565b6101b96101a43660046124a1565b60096020526000908152604090205460ff1681565b6040519015158152602001610141565b6101236101d73660046124a1565b61063e565b6101236101ea3660046125ed565b6106d3565b6101236101fd36600461261d565b610980565b610123610210366004612592565b610c16565b60085461012d906001600160a01b031681565b610123610236366004612689565b610fc4565b6101236110a5565b6006546001600160a01b031661012d565b610123611153565b61012361026a366004612592565b611297565b61012361027d366004612712565b6115d9565b6101236102903660046124a1565b6115f3565b61029d611604565b600880546001600160a01b0319166001600160a01b0392909216919091179055565b60006102d36002546001600160a01b031690565b905090565b60006102e48383611659565b90506000600a826040516102f89190612782565b9081526020016040518091039020549050600081116103325760405162461bcd60e51b81526004016103299061279e565b60405180910390fd5b6001600160a01b038416600090815260096020526040812060019081019061035a90846127df565b8154811061036a5761036a6127f2565b600091825260209182902060408051610120810182526008909302909101805460ff8082161515855261010090910416938301939093526001830154908201526002820154606082015260038201546080820152600482015460a082015260058201805491929160c0840191906103e090612808565b80601f016020809104026020016040519081016040528092919081815260200182805461040c90612808565b80156104595780601f1061042e57610100808354040283529160200191610459565b820191906000526020600020905b81548152906001019060200180831161043c57829003601f168201915b5050505050815260200160068201805461047290612808565b80601f016020809104026020016040519081016040528092919081815260200182805461049e90612808565b80156104eb5780601f106104c0576101008083540402835291602001916104eb565b820191906000526020600020905b8154815290600101906020018083116104ce57829003601f168201915b5050505050815260200160078201805461050490612808565b80601f016020809104026020016040519081016040528092919081815260200182805461053090612808565b801561057d5780601f106105525761010080835404028352916020019161057d565b820191906000526020600020905b81548152906001019060200180831161056057829003601f168201915b5050505050815250509050428160a00151101561060e576001600160a01b03851660009081526009602052604090206003906001908101906105bf90856127df565b815481106105cf576105cf6127f2565b60009182526020909120600890910201805460ff929092166101000261ff0019909216919091179055805115610609576106098585611297565b610637565b4281608001511080156106285750806020015160ff166001145b15610637576106378585610c16565b5050505050565b610646611604565b6001600160a01b03811660009081526009602052604090205460ff16156106af5760405162461bcd60e51b815260206004820152601860248201527f7573657220616c72656164792077686974656c697374656400000000000000006044820152606401610329565b6001600160a01b03166000908152600960205260409020805460ff19166001179055565b60008281526005602052604090205482906001600160a01b0316331461070b5760405162461bcd60e51b81526004016103299061283c565b60008181526005602052604080822080546001600160a01b03191690555182917f7cc135e0cebb02c3480ae5d74d377283180a2601f8f644edf7987b009316c63a91a26000838152600b602052604081208054600190910180546001600160a01b03909216929161077b90612808565b80601f01602080910402602001604051908101604052809291908181526020018280546107a790612808565b80156107f45780601f106107c9576101008083540402835291602001916107f4565b820191906000526020600020905b8154815290600101906020018083116107d757829003601f168201915b505050505090506000600a8260405161080d9190612782565b908152602001604051809103902054905084156108eb57600854604051633623e2a960e11b81526001600160a01b0390911690636c47c552906108549085906004016128b0565b600060405180830381600087803b15801561086e57600080fd5b505af1158015610882573d6000803e3d6000fd5b5050506001600160a01b0384166000908152600960205260409020600291506001908101906108b190846127df565b815481106108c1576108c16127f2565b906000526020600020906008020160000160016101000a81548160ff021916908360ff1602179055505b6008546040516001600160a01b0390911690610908908490612782565b60405180910390208615157f27ba9a475b834dc3333cbf286869a81c8c50c858296e64a37de4a83c26ff3adc8960405161094491815260200190565b60405180910390a46000868152600b6020526040812080546001600160a01b03191681559061097660018301826123f7565b5050505050505050565b60008381526005602052604090205483906001600160a01b031633146109b85760405162461bcd60e51b81526004016103299061283c565b60008181526005602052604080822080546001600160a01b03191690555182917f7cc135e0cebb02c3480ae5d74d377283180a2601f8f644edf7987b009316c63a91a281604051610a099190612782565b604051809103902083604051610a1f9190612782565b604051908190038120868252907f8b52207fce6980cb21677901b8ecbc6b81748f347a9e3171cf167b7b4ed2f9a09060200160405180910390a36000848152600b602052604081208054600190910180546001600160a01b039092169291610a8690612808565b80601f0160208091040260200160405190810160405280929190818152602001828054610ab290612808565b8015610aff5780601f10610ad457610100808354040283529160200191610aff565b820191906000526020600020905b815481529060010190602001808311610ae257829003601f168201915b505050505090506000600a82604051610b189190612782565b908152602001604051809103902054905060008111610b495760405162461bcd60e51b81526004016103299061279e565b6001600160a01b0383166000908152600960205260408120600190810190610b7190846127df565b81548110610b8157610b816127f2565b9060005260206000209060080201905042610258610b9f91906128c3565b6003820155610bb0426102586128c3565b610bbd90620d2f006128c3565b600482015560068101610bd0888261291e565b5060078101610bdf878261291e565b506000888152600b6020526040812080546001600160a01b031916815590610c0a60018301826123f7565b50505050505050505050565b6000610c497f38383038353338616562326434333039613333616631656463396665623435326350c9230d60e01b611699565b3360009081526009602052604090205490915060ff168015610c8357506001600160a01b03831660009081526009602052604090205460ff165b610cc95760405162461bcd60e51b81526020600482015260176024820152761d5cd95c8a1cca481b9bdd081dda1a5d195b1a5cdd1959604a1b6044820152606401610329565b6000610cd58484611659565b90506000600a82604051610ce99190612782565b908152602001604051809103902054905080600114610d555760405162461bcd60e51b815260206004820152602260248201527f70726f6a656374206d757374206265206177616974696e672064697370657273604482015261185b60f21b6064820152608401610329565b6001600160a01b03851660009081526009602052604090204290600190810190610d7f90846127df565b81548110610d8f57610d8f6127f2565b90600052602060002090600802016003015410610ddc5760405162461bcd60e51b815260206004820152600b60248201526a1c1b19585cd9481dd85a5d60aa1b6044820152606401610329565b6040805180820190915260098152681c1c9bda9958dd125160ba1b6020820152610e08908490846116bd565b610f2560405180604001604052806012815260200171191a5cdc195c9cd85b14995c5d595cdd125160721b81525060096000886001600160a01b03166001600160a01b03168152602001908152602001600020600101600184610e6b91906127df565b81548110610e7b57610e7b6127f2565b90600052602060002090600802016006018054610e9790612808565b80601f0160208091040260200160405190810160405280929190818152602001828054610ec390612808565b8015610f105780601f10610ee557610100808354040283529160200191610f10565b820191906000526020600020905b815481529060010190602001808311610ef357829003601f168201915b5050505050856116bd9092919063ffffffff16565b6000610f6373ccda5e49ff369640edfa0fb58fb6af165b53b8b585600a610f54670de0b6b3a7640000866129dd565b610f5e9190612a0a565b6116e0565b6040805180820182526001600160a01b03898116825260208083018881526000868152600b909252939020825181546001600160a01b03191692169190911781559151929350916001820190610fb9908261291e565b505050505050505050565b3360009081526009602052604090205460ff1661101a5760405162461bcd60e51b81526020600482015260146024820152731d5cd95c881b9bdd081dda1a5d195b1a5cdd195960621b6044820152606401610329565b60006110263384611659565b9050600a816040516110389190612782565b90815260200160405180910390205460001461108f5760405162461bcd60e51b815260206004820152601660248201527570726f6a65637420616c72656164792065786973747360501b6044820152606401610329565b61109d863387878587611773565b505050505050565b6007546001600160a01b031633146110f85760405162461bcd60e51b815260206004820152601660248201527526bab9ba10313290383937b837b9b2b21037bbb732b960511b6044820152606401610329565b600680546001600160a01b0319808216339081179093556007805490911690556040516001600160a01b03909116919082907f8be0079c531659141344cd1fd0a4f28419497f9722a3daafe3b4186f6b6457e090600090a350565b61115b611604565b600061116f6002546001600160a01b031690565b6040516370a0823160e01b81523060048201529091506001600160a01b0382169063a9059cbb90339083906370a0823190602401602060405180830381865afa1580156111c0573d6000803e3d6000fd5b505050506040513d601f19601f820116820180604052508101906111e49190612a1e565b6040516001600160e01b031960e085901b1681526001600160a01b03909216600483015260248201526044016020604051808303816000875af115801561122f573d6000803e3d6000fd5b505050506040513d601f19601f820116820180604052508101906112539190612a37565b6112945760405162461bcd60e51b81526020600482015260126024820152712ab730b13632903a37903a3930b739b332b960711b6044820152606401610329565b50565b3360009081526009602052604090205460ff1680156112ce57506001600160a01b03821660009081526009602052604090205460ff165b6113145760405162461bcd60e51b81526020600482015260176024820152761d5cd95c8a1cca481b9bdd081dda1a5d195b1a5cdd1959604a1b6044820152606401610329565b60006113208383611659565b90506000600a826040516113349190612782565b9081526020016040518091039020549050600081116113655760405162461bcd60e51b81526004016103299061279e565b6001600160a01b038416600090815260096020526040812060019081019061138d90846127df565b8154811061139d5761139d6127f2565b600091825260209182902060408051610120810182526008909302909101805460ff8082161515855261010090910416938301939093526001830154908201526002820154606082015260038201546080820152600482015460a082015260058201805491929160c08401919061141390612808565b80601f016020809104026020016040519081016040528092919081815260200182805461143f90612808565b801561148c5780601f106114615761010080835404028352916020019161148c565b820191906000526020600020905b81548152906001019060200180831161146f57829003601f168201915b505050505081526020016006820180546114a590612808565b80601f01602080910402602001604051908101604052809291908181526020018280546114d190612808565b801561151e5780601f106114f35761010080835404028352916020019161151e565b820191906000526020600020905b81548152906001019060200180831161150157829003601f168201915b5050505050815260200160078201805461153790612808565b80601f016020809104026020016040519081016040528092919081815260200182805461156390612808565b80156115b05780601f10611585576101008083540402835291602001916115b0565b820191906000526020600020905b81548152906001019060200180831161159357829003601f168201915b505050505081525050905061063781600001518683604001518460600151878660c00151611773565b6115e1611604565b6115ed84848484611af9565b50505050565b6115fb611604565b61129481611bc0565b6006546001600160a01b031633146116575760405162461bcd60e51b815260206004820152601660248201527527b7363c9031b0b63630b1363290313c9037bbb732b960511b6044820152606401610329565b565b606061166f836001600160a01b03166014611c6a565b82604051602001611681929190612a54565b60405160208183030381529060405290505b92915050565b6116a1612431565b6116a9612431565b6116b581853086611de1565b949350505050565b60808301516116cc9083611e1e565b60808301516116db9082611e1e565b505050565b6004546000906116f18160016128c3565b600455835160408086015160808701515191516000936320214ca360e11b936117299386938493923092918a91600191602401612a90565b60408051601f198184030181529190526020810180516001600160e01b03166001600160e01b031990931692909217909152905061176986838684611e35565b9695505050505050565b60006117a67f6561663231373035343564633437393361616464313961613364633832643636630b5be8e360e31b611699565b6040805180820190915260098152681c1c9bda9958dd125160ba1b60208201529091506117d5908290856116bd565b60408051808201909152600381526218da5960ea1b60208201526117fb908290846116bd565b6040805180820190915260058152641cdd185c9d60da1b602082015261182390829087611f93565b604080518082019091526003815262195b9960ea1b602082015261184990829086611f93565b600061187873ccda5e49ff369640edfa0fb58fb6af165b53b8b583600a610f54670de0b6b3a7640000866129dd565b6040805180820182526001600160a01b038a8116825260208083018981526000868152600b909252939020825181546001600160a01b031916921691909117815591519293509160018201906118ce908261291e565b509050506000600a856040516118e49190612782565b90815260200160405180910390205490506000600960008a6001600160a01b03166001600160a01b03168152602001908152602001600020600101905081600003611a6c57806040518061012001604052808c15158152602001600160ff1681526020018a81526020018981526020014261038461196291906128c3565b81526000602080830182905260408084018b9052805180830182528381526060808601919091528151808401835284815260809586015286546001818101895597855293839020865160089095020180549387015160ff166101000261ff00199515159590951661ffff1990941693909317939093178255840151948101949094558201516002840155810151600383015560a0810151600483015560c08101519091906005820190611a15908261291e565b5060e08201516006820190611a2a908261291e565b506101008201516007820190611a40908261291e565b5050508080549050915081600a87604051611a5b9190612782565b908152604051908190036020019020555b600181611a7982856127df565b81548110611a8957611a896127f2565b60009182526020909120600890910201805460ff929092166101000261ff00199092169190911790558481611abf6001856127df565b81548110611acf57611acf6127f2565b90600052602060002090600802016005019081611aec919061291e565b5050505050505050505050565b60008481526005602052604080822080546001600160a01b0319811690915590516001600160a01b039091169186917fe1fe3afa0f7f761ff0a8b89086790efd5140d2907ebd5b7ff6bfcb5e075fd4c59190a2604051636ee4d55360e01b815260048101869052602481018590526001600160e01b031984166044820152606481018390526001600160a01b03821690636ee4d55390608401600060405180830381600087803b158015611bac57600080fd5b505af1158015610fb9573d6000803e3d6000fd5b336001600160a01b03821603611c185760405162461bcd60e51b815260206004820152601760248201527f43616e6e6f74207472616e7366657220746f2073656c660000000000000000006044820152606401610329565b600780546001600160a01b0319166001600160a01b03838116918217909255600654604051919216907fed8889f560326eb138920d842192f0eb3dd22b4f139c87a2c57538e05bae127890600090a350565b6060826000611c7a8460026129dd565b611c859060026128c3565b6001600160401b03811115611c9c57611c9c6124bc565b6040519080825280601f01601f191660200182016040528015611cc6576020820181803683370190505b509050600360fc1b81600081518110611ce157611ce16127f2565b60200101906001600160f81b031916908160001a905350600f60fb1b81600181518110611d1057611d106127f2565b60200101906001600160f81b031916908160001a9053506000611d348560026129dd565b611d3f9060016128c3565b90505b6001811115611db7576f181899199a1a9b1b9c1cb0b131b232b360811b83600f1660108110611d7357611d736127f2565b1a60f81b828281518110611d8957611d896127f2565b60200101906001600160f81b031916908160001a90535060049290921c91611db081612af8565b9050611d42565b5081156116b55760405163e22e27eb60e01b81526004810186905260248101859052604401610329565b611de9612431565b611df98560800151610100611fb1565b50509183526001600160a01b031660208301526001600160e01b031916604082015290565b611e2b8260038351612016565b6116db828261211d565b6040516bffffffffffffffffffffffff193060601b1660208201526034810184905260009060540160408051808303601f1901815282825280516020918201206000818152600590925291812080546001600160a01b0319166001600160a01b038a1617905590925082917fb5e6e01e79f91267dc17b4e6314d5d4d03593d2ceee0fbb452b750bd70ea5af99190a2600254604051630200057560e51b81526001600160a01b0390911690634000aea090611ef890889087908790600401612b0f565b6020604051808303816000875af1158015611f17573d6000803e3d6000fd5b505050506040513d601f19601f82011682018060405250810190611f3b9190612a37565b6116b55760405162461bcd60e51b815260206004820152602360248201527f756e61626c6520746f207472616e73666572416e6443616c6c20746f206f7261604482015262636c6560e81b6064820152608401610329565b6080830151611fa29083611e1e565b60808301516116db908261214b565b604080518082019091526060815260006020820152611fd1602083612b3f565b15611ff957611fe1602083612b3f565b611fec9060206127df565b611ff690836128c3565b91505b506020828101829052604080518085526000815290920101905290565b6017816001600160401b03161161203a576115ed8360e0600585901b168317612174565b60ff816001600160401b03161161207657612060836018611fe0600586901b1617612174565b506115ed836001600160401b0383166001612199565b61ffff816001600160401b0316116120b35761209d836019611fe0600586901b1617612174565b506115ed836001600160401b0383166002612199565b63ffffffff816001600160401b0316116120f2576120dc83601a611fe0600586901b1617612174565b506115ed836001600160401b0383166004612199565b61210783601b611fe0600586901b1617612174565b506115ed836001600160401b0383166008612199565b604080518082019091526060815260006020820152612144838460000151518485516121bf565b9392505050565b6001600160401b038111156121685761216482826122a9565b5050565b61216482600083612016565b60408051808201909152606081526000602082015261214483846000015151846122e0565b6040805180820190915260608152600060208201526116b584856000015151858561233b565b60408051808201909152606081526000602082015282518211156121e257600080fd5b60208501516121f183866128c3565b111561222457612224856122148760200151878661220f91906128c3565b6123bc565b61221f9060026129dd565b6123d3565b6000808651805187602083010193508088870111156122435787860182525b505050602084015b6020841061228357805182526122626020836128c3565b915061226f6020826128c3565b905061227c6020856127df565b935061224b565b51815160001960208690036101000a019081169019919091161790525083949350505050565b6122b48260c2612174565b5061216482826040516020016122cc91815260200190565b6040516020818303038152906040526123ea565b6040805180820190915260608152600060208201528360200151831061231557612315848560200151600261221f91906129dd565b8351805160208583010184815350808503612331576001810182525b5093949350505050565b604080518082019091526060815260006020820152602085015161235f85846128c3565b1115612373576123738561221486856128c3565b6000600161238384610100612c37565b61238d91906127df565b90508551838682010185831982511617815250805184870111156123b15783860181525b509495945050505050565b6000818311156123cd575081611693565b50919050565b81516123df8383611fb1565b506115ed838261211d565b611e2b8260028351612016565b50805461240390612808565b6000825580601f10612413575050565b601f016020900490600052602060002090810190611294919061246c565b6040805160a0810182526000808252602080830182905282840182905260608084018390528451808601909552845283015290608082015290565b5b80821115612481576000815560010161246d565b5090565b80356001600160a01b038116811461249c57600080fd5b919050565b6000602082840312156124b357600080fd5b61214482612485565b634e487b7160e01b600052604160045260246000fd5b600082601f8301126124e357600080fd5b81356001600160401b03808211156124fd576124fd6124bc565b604051601f8301601f19908116603f01168101908282118183101715612525576125256124bc565b8160405283815286602085880101111561253e57600080fd5b836020870160208301376000602085830101528094505050505092915050565b60006020828403121561257057600080fd5b81356001600160401b0381111561258657600080fd5b6116b5848285016124d2565b600080604083850312156125a557600080fd5b6125ae83612485565b915060208301356001600160401b038111156125c957600080fd5b6125d5858286016124d2565b9150509250929050565b801515811461129457600080fd5b6000806040838503121561260057600080fd5b823591506020830135612612816125df565b809150509250929050565b60008060006060848603121561263257600080fd5b8335925060208401356001600160401b038082111561265057600080fd5b61265c878388016124d2565b9350604086013591508082111561267257600080fd5b5061267f868287016124d2565b9150509250925092565b600080600080600060a086880312156126a157600080fd5b85356126ac816125df565b9450602086013593506040860135925060608601356001600160401b03808211156126d657600080fd5b6126e289838a016124d2565b935060808801359150808211156126f857600080fd5b50612705888289016124d2565b9150509295509295909350565b6000806000806080858703121561272857600080fd5b843593506020850135925060408501356001600160e01b03198116811461274e57600080fd5b9396929550929360600135925050565b60005b83811015612779578181015183820152602001612761565b50506000910152565b6000825161279481846020870161275e565b9190910192915050565b6020808252601190820152701c1c9bda9958dd081b9bdd08199bdd5b99607a1b604082015260600190565b634e487b7160e01b600052601160045260246000fd5b81810381811115611693576116936127c9565b634e487b7160e01b600052603260045260246000fd5b600181811c9082168061281c57607f821691505b6020821081036123cd57634e487b7160e01b600052602260045260246000fd5b60208082526028908201527f536f75726365206d75737420626520746865206f7261636c65206f6620746865604082015267081c995c5d595cdd60c21b606082015260800190565b6000815180845261289c81602086016020860161275e565b601f01601f19169290920160200192915050565b6020815260006121446020830184612884565b80820180821115611693576116936127c9565b601f8211156116db576000816000526020600020601f850160051c810160208610156128ff5750805b601f850160051c820191505b8181101561109d5782815560010161290b565b81516001600160401b03811115612937576129376124bc565b61294b816129458454612808565b846128d6565b602080601f83116001811461298057600084156129685750858301515b600019600386901b1c1916600185901b17855561109d565b600085815260208120601f198616915b828110156129af57888601518255948401946001909101908401612990565b50858210156129cd5787850151600019600388901b60f8161c191681555b5050505050600190811b01905550565b8082028115828204841417611693576116936127c9565b634e487b7160e01b600052601260045260246000fd5b600082612a1957612a196129f4565b500490565b600060208284031215612a3057600080fd5b5051919050565b600060208284031215612a4957600080fd5b8151612144816125df565b60008351612a6681846020880161275e565b601d60f91b9083019081528351612a8481600184016020880161275e565b01600101949350505050565b6001600160a01b0389811682526020820189905260408201889052861660608201526001600160e01b03198516608082015260a0810184905260c0810183905261010060e08201819052600090612ae983820185612884565b9b9a5050505050505050505050565b600081612b0757612b076127c9565b506000190190565b60018060a01b0384168152826020820152606060408201526000612b366060830184612884565b95945050505050565b600082612b4e57612b4e6129f4565b500690565b600181815b80851115612b8e578160001904821115612b7457612b746127c9565b80851615612b8157918102915b93841c9390800290612b58565b509250929050565b600082612ba557506001611693565b81612bb257506000611693565b8160018114612bc85760028114612bd257612bee565b6001915050611693565b60ff841115612be357612be36127c9565b50506001821b611693565b5060208310610133831016604e8410600b8410161715612c11575081810a611693565b612c1b8383612b53565b8060001904821115612c2f57612c2f6127c9565b029392505050565b60006121448383612b9656fea2646970667358221220a08f4c263f09bcaf6441c0eb34f901bddd4120cd876b08e841346e421b217e1864736f6c63430008190033","linkReferences":{}},"methodIdentifiers":{"acceptOwnership()":"79ba5097","cancelRequest(bytes32,uint256,bytes4,uint256)":"ec65d0f8","fulfillConfirmData(bytes32,bool)":"50c9230d","fulfillDisperseData(bytes32,string,string)":"5adf4718","getChainlinkToken()":"165d35e1","owner()":"8da5cb5b","projectIndex(string)":"3178c814","projectVerifier()":"626e5f94","requestConfirmData(address,string)":"5c734115","requestInitialDispersal(bool,uint256,uint256,string,string)":"74bae7d9","requestRedispersal(address,string)":"aa4f0fc3","setProjectVerifier(address)":"114bd73b","transferOwnership(address)":"f2fde38b","updateProjectState(address,string)":"34f10858","userDetails(address)":"48dec2a7","whitelistUser(address)":"4a4c560d","withdrawLink()":"8dc654a2"},"id":70}